{
  "contractName": "FlightSuretyApp",
  "abi": [
    {
      "inputs": [
        {
          "internalType": "address payable",
          "name": "dataContract",
          "type": "address"
        }
      ],
      "stateMutability": "nonpayable",
      "type": "constructor"
    },
    {
      "anonymous": false,
      "inputs": [
        {
          "indexed": false,
          "internalType": "address",
          "name": "queued",
          "type": "address"
        },
        {
          "indexed": false,
          "internalType": "address",
          "name": "registerer",
          "type": "address"
        }
      ],
      "name": "AirlineRegistrationQueued",
      "type": "event"
    },
    {
      "anonymous": false,
      "inputs": [
        {
          "indexed": false,
          "internalType": "address",
          "name": "airline",
          "type": "address"
        },
        {
          "indexed": false,
          "internalType": "string",
          "name": "flight",
          "type": "string"
        },
        {
          "indexed": false,
          "internalType": "uint256",
          "name": "timestamp",
          "type": "uint256"
        },
        {
          "indexed": false,
          "internalType": "uint8",
          "name": "status",
          "type": "uint8"
        }
      ],
      "name": "FlightStatusInfo",
      "type": "event"
    },
    {
      "anonymous": false,
      "inputs": [
        {
          "indexed": false,
          "internalType": "address",
          "name": "airline",
          "type": "address"
        },
        {
          "indexed": false,
          "internalType": "string",
          "name": "flight",
          "type": "string"
        },
        {
          "indexed": false,
          "internalType": "uint256",
          "name": "timestamp",
          "type": "uint256"
        },
        {
          "indexed": false,
          "internalType": "uint8",
          "name": "status",
          "type": "uint8"
        }
      ],
      "name": "OracleReport",
      "type": "event"
    },
    {
      "anonymous": false,
      "inputs": [
        {
          "indexed": false,
          "internalType": "uint8",
          "name": "index",
          "type": "uint8"
        },
        {
          "indexed": false,
          "internalType": "address",
          "name": "airline",
          "type": "address"
        },
        {
          "indexed": false,
          "internalType": "string",
          "name": "flight",
          "type": "string"
        },
        {
          "indexed": false,
          "internalType": "uint256",
          "name": "timestamp",
          "type": "uint256"
        }
      ],
      "name": "OracleRequest",
      "type": "event"
    },
    {
      "anonymous": false,
      "inputs": [
        {
          "indexed": false,
          "internalType": "address",
          "name": "voted",
          "type": "address"
        },
        {
          "indexed": false,
          "internalType": "address",
          "name": "voter",
          "type": "address"
        }
      ],
      "name": "VotedForAirline",
      "type": "event"
    },
    {
      "inputs": [],
      "name": "REGISTRATION_FEE",
      "outputs": [
        {
          "internalType": "uint256",
          "name": "",
          "type": "uint256"
        }
      ],
      "stateMutability": "view",
      "type": "function",
      "constant": true
    },
    {
      "inputs": [],
      "name": "isOperational",
      "outputs": [
        {
          "internalType": "bool",
          "name": "",
          "type": "bool"
        }
      ],
      "stateMutability": "pure",
      "type": "function",
      "constant": true
    },
    {
      "inputs": [
        {
          "internalType": "address",
          "name": "airline",
          "type": "address"
        }
      ],
      "name": "isAirlineQueued",
      "outputs": [
        {
          "internalType": "bool",
          "name": "",
          "type": "bool"
        }
      ],
      "stateMutability": "view",
      "type": "function",
      "constant": true
    },
    {
      "inputs": [],
      "name": "getAirlinesRegistration",
      "outputs": [
        {
          "internalType": "address[]",
          "name": "",
          "type": "address[]"
        }
      ],
      "stateMutability": "view",
      "type": "function",
      "constant": true
    },
    {
      "inputs": [],
      "name": "getAirlinesFunded",
      "outputs": [
        {
          "internalType": "address[]",
          "name": "",
          "type": "address[]"
        }
      ],
      "stateMutability": "view",
      "type": "function",
      "constant": true
    },
    {
      "inputs": [],
      "name": "getQueued",
      "outputs": [
        {
          "internalType": "address[]",
          "name": "",
          "type": "address[]"
        }
      ],
      "stateMutability": "view",
      "type": "function",
      "constant": true
    },
    {
      "inputs": [
        {
          "internalType": "address",
          "name": "applicant",
          "type": "address"
        }
      ],
      "name": "registerAirline",
      "outputs": [],
      "stateMutability": "nonpayable",
      "type": "function"
    },
    {
      "inputs": [
        {
          "internalType": "address",
          "name": "applicant",
          "type": "address"
        }
      ],
      "name": "voteForAirline",
      "outputs": [],
      "stateMutability": "nonpayable",
      "type": "function"
    },
    {
      "inputs": [],
      "name": "submitFunding",
      "outputs": [],
      "stateMutability": "payable",
      "type": "function",
      "payable": true
    },
    {
      "inputs": [],
      "name": "registerFlight",
      "outputs": [],
      "stateMutability": "pure",
      "type": "function",
      "constant": true
    },
    {
      "inputs": [
        {
          "internalType": "address",
          "name": "airline",
          "type": "address"
        },
        {
          "internalType": "string",
          "name": "flight",
          "type": "string"
        },
        {
          "internalType": "uint256",
          "name": "timestamp",
          "type": "uint256"
        }
      ],
      "name": "fetchFlightStatus",
      "outputs": [],
      "stateMutability": "nonpayable",
      "type": "function"
    },
    {
      "inputs": [],
      "name": "registerOracle",
      "outputs": [],
      "stateMutability": "payable",
      "type": "function",
      "payable": true
    },
    {
      "inputs": [],
      "name": "getMyIndexes",
      "outputs": [
        {
          "internalType": "uint8[3]",
          "name": "",
          "type": "uint8[3]"
        }
      ],
      "stateMutability": "view",
      "type": "function",
      "constant": true
    },
    {
      "inputs": [
        {
          "internalType": "uint8",
          "name": "index",
          "type": "uint8"
        },
        {
          "internalType": "address",
          "name": "airline",
          "type": "address"
        },
        {
          "internalType": "string",
          "name": "flight",
          "type": "string"
        },
        {
          "internalType": "uint256",
          "name": "timestamp",
          "type": "uint256"
        },
        {
          "internalType": "uint8",
          "name": "statusCode",
          "type": "uint8"
        }
      ],
      "name": "submitOracleResponse",
      "outputs": [],
      "stateMutability": "nonpayable",
      "type": "function"
    }
  ],
  "bytecode": "0x60806040526000604051908082528060200260200182016040528015620000355781602001602082028038833980820191505090505b50600390805190602001906200004d92919062000136565b506000600560006101000a81548160ff021916908360ff1602179055503480156200007757600080fd5b506040516200221538038062002215833981810160405260208110156200009d57600080fd5b810190808051906020019092919050505033600160006101000a81548173ffffffffffffffffffffffffffffffffffffffff021916908373ffffffffffffffffffffffffffffffffffffffff160217905550806000806101000a81548173ffffffffffffffffffffffffffffffffffffffff021916908373ffffffffffffffffffffffffffffffffffffffff160217905550506200020b565b828054828255906000526020600020908101928215620001b2579160200282015b82811115620001b15782518260006101000a81548173ffffffffffffffffffffffffffffffffffffffff021916908373ffffffffffffffffffffffffffffffffffffffff1602179055509160200191906001019062000157565b5b509050620001c19190620001c5565b5090565b6200020891905b808211156200020457600081816101000a81549073ffffffffffffffffffffffffffffffffffffffff021916905550600101620001cc565b5090565b90565b611ffa806200021b6000396000f3fe6080604052600436106100dd5760003560e01c8063ae6f17e01161007f578063c52c6d7f11610059578063c52c6d7f14610449578063cd905dff14610453578063f83f11c014610482578063fbfa0c2e14610532576100dd565b8063ae6f17e014610317578063bdfd98771461032e578063c10f27001461037f576100dd565b80635c97fe35116100bb5780635c97fe35146101c15780635f1cc0e61461022d57806364b4f751146102805780637a600242146102ab576100dd565b80631bf642f1146100e2578063339d25901461014e5780635719424b14610158575b600080fd5b3480156100ee57600080fd5b506100f7610583565b6040518080602001828103825283818151815260200191508051906020019060200280838360005b8381101561013a57808201518184015260208101905061011f565b505050509050019250505060405180910390f35b610156610611565b005b34801561016457600080fd5b506101a76004803603602081101561017b57600080fd5b81019080803573ffffffffffffffffffffffffffffffffffffffff169060200190929190505050610737565b604051808215151515815260200191505060405180910390f35b3480156101cd57600080fd5b506101d6610790565b6040518080602001828103825283818151815260200191508051906020019060200280838360005b838110156102195780820151818401526020810190506101fe565b505050509050019250505060405180910390f35b34801561023957600080fd5b506102426108d8565b6040518082600360200280838360005b8381101561026d578082015181840152602081019050610252565b5050505090500191505060405180910390f35b34801561028c57600080fd5b50610295610a4b565b6040518082815260200191505060405180910390f35b3480156102b757600080fd5b506102c0610a57565b6040518080602001828103825283818151815260200191508051906020019060200280838360005b838110156103035780820151818401526020810190506102e8565b505050509050019250505060405180910390f35b34801561032357600080fd5b5061032c610b9f565b005b34801561033a57600080fd5b5061037d6004803603602081101561035157600080fd5b81019080803573ffffffffffffffffffffffffffffffffffffffff169060200190929190505050610ba1565b005b34801561038b57600080fd5b50610447600480360360a08110156103a257600080fd5b81019080803560ff169060200190929190803573ffffffffffffffffffffffffffffffffffffffff169060200190929190803590602001906401000000008111156103ec57600080fd5b8201836020820111156103fe57600080fd5b8035906020019184600183028401116401000000008311171561042057600080fd5b909192939192939080359060200190929190803560ff169060200190929190505050610fff565b005b61045161151d565b005b34801561045f57600080fd5b50610468611679565b604051808215151515815260200191505060405180910390f35b34801561048e57600080fd5b50610530600480360360608110156104a557600080fd5b81019080803573ffffffffffffffffffffffffffffffffffffffff169060200190929190803590602001906401000000008111156104e257600080fd5b8201836020820111156104f457600080fd5b8035906020019184600183028401116401000000008311171561051657600080fd5b909192939192939080359060200190929190505050611682565b005b34801561053e57600080fd5b506105816004803603602081101561055557600080fd5b81019080803573ffffffffffffffffffffffffffffffffffffffff169060200190929190505050611873565b005b6060600380548060200260200160405190810160405280929190818152602001828054801561060757602002820191906000526020600020905b8160009054906101000a900473ffffffffffffffffffffffffffffffffffffffff1673ffffffffffffffffffffffffffffffffffffffff16815260200190600101908083116105bd575b5050505050905090565b670de0b6b3a764000034101561068f576040517f08c379a000000000000000000000000000000000000000000000000000000000815260040180806020018281038252601c8152602001807f526567697374726174696f6e206665652069732072657175697265640000000081525060200191505060405180910390fd5b610697611e86565b6106a033611c04565b9050604051806040016040528060011515815260200182815250600660003373ffffffffffffffffffffffffffffffffffffffff1673ffffffffffffffffffffffffffffffffffffffff16815260200190815260200160002060008201518160000160006101000a81548160ff021916908315150217905550602082015181600101906003610730929190611ea8565b5090505050565b6000600260008373ffffffffffffffffffffffffffffffffffffffff1673ffffffffffffffffffffffffffffffffffffffff16815260200190815260200160002060020160009054906101000a900460ff169050919050565b6060806000809054906101000a900473ffffffffffffffffffffffffffffffffffffffff1673ffffffffffffffffffffffffffffffffffffffff16631cebb54d6040518163ffffffff1660e01b815260040160006040518083038186803b1580156107fa57600080fd5b505afa15801561080e573d6000803e3d6000fd5b505050506040513d6000823e3d601f19601f82011682018060405250602081101561083857600080fd5b810190808051604051939291908464010000000082111561085857600080fd5b8382019150602082018581111561086e57600080fd5b825186602082028301116401000000008211171561088b57600080fd5b8083526020830192505050908051906020019060200280838360005b838110156108c25780820151818401526020810190506108a7565b5050505090500160405250505090508091505090565b6108e0611e86565b600660003373ffffffffffffffffffffffffffffffffffffffff1673ffffffffffffffffffffffffffffffffffffffff16815260200190815260200160002060000160009054906101000a900460ff166109a2576040517f08c379a000000000000000000000000000000000000000000000000000000000815260040180806020018281038252601b8152602001807f4e6f74207265676973746572656420617320616e206f7261636c65000000000081525060200191505060405180910390fd5b600660003373ffffffffffffffffffffffffffffffffffffffff1673ffffffffffffffffffffffffffffffffffffffff168152602001908152602001600020600101600380602002604051908101604052809291908260038015610a41576020028201916000905b82829054906101000a900460ff1660ff1681526020019060010190602082600001049283019260010382029150808411610a0a5790505b5050505050905090565b670de0b6b3a764000081565b6060806000809054906101000a900473ffffffffffffffffffffffffffffffffffffffff1673ffffffffffffffffffffffffffffffffffffffff16637a6002426040518163ffffffff1660e01b815260040160006040518083038186803b158015610ac157600080fd5b505afa158015610ad5573d6000803e3d6000fd5b505050506040513d6000823e3d601f19601f820116820180604052506020811015610aff57600080fd5b8101908080516040519392919084640100000000821115610b1f57600080fd5b83820191506020820185811115610b3557600080fd5b8251866020820283011164010000000082111715610b5257600080fd5b8083526020830192505050908051906020019060200280838360005b83811015610b89578082015181840152602081019050610b6e565b5050505090500160405250505090508091505090565b565b60606000809054906101000a900473ffffffffffffffffffffffffffffffffffffffff1673ffffffffffffffffffffffffffffffffffffffff16637a6002426040518163ffffffff1660e01b815260040160006040518083038186803b158015610c0a57600080fd5b505afa158015610c1e573d6000803e3d6000fd5b505050506040513d6000823e3d601f19601f820116820180604052506020811015610c4857600080fd5b8101908080516040519392919084640100000000821115610c6857600080fd5b83820191506020820185811115610c7e57600080fd5b8251866020820283011164010000000082111715610c9b57600080fd5b8083526020830192505050908051906020019060200280838360005b83811015610cd2578082015181840152602081019050610cb7565b505050509050016040525050509050600581511015610ddc576000809054906101000a900473ffffffffffffffffffffffffffffffffffffffff1673ffffffffffffffffffffffffffffffffffffffff1663c7ba501883336040518363ffffffff1660e01b8152600401808373ffffffffffffffffffffffffffffffffffffffff1673ffffffffffffffffffffffffffffffffffffffff1681526020018273ffffffffffffffffffffffffffffffffffffffff1673ffffffffffffffffffffffffffffffffffffffff16815260200192505050600060405180830381600087803b158015610dbf57600080fd5b505af1158015610dd3573d6000803e3d6000fd5b50505050610ffb565b33600260008473ffffffffffffffffffffffffffffffffffffffff1673ffffffffffffffffffffffffffffffffffffffff16815260200190815260200160002060000160006101000a81548173ffffffffffffffffffffffffffffffffffffffff021916908373ffffffffffffffffffffffffffffffffffffffff1602179055506001600260008473ffffffffffffffffffffffffffffffffffffffff1673ffffffffffffffffffffffffffffffffffffffff168152602001908152602001600020600101819055506001600260008473ffffffffffffffffffffffffffffffffffffffff1673ffffffffffffffffffffffffffffffffffffffff16815260200190815260200160002060020160006101000a81548160ff0219169083151502179055506003829080600181540180825580915050600190039060005260206000200160009091909190916101000a81548173ffffffffffffffffffffffffffffffffffffffff021916908373ffffffffffffffffffffffffffffffffffffffff1602179055507fc243c0fd676d7d4d8475225a652beb9dbda28e69857257332eb01b7e01156f958233604051808373ffffffffffffffffffffffffffffffffffffffff1673ffffffffffffffffffffffffffffffffffffffff1681526020018273ffffffffffffffffffffffffffffffffffffffff1673ffffffffffffffffffffffffffffffffffffffff1681526020019250505060405180910390a15b5050565b8560ff16600660003373ffffffffffffffffffffffffffffffffffffffff1673ffffffffffffffffffffffffffffffffffffffff16815260200190815260200160002060010160006003811061105157fe5b602091828204019190069054906101000a900460ff1660ff1614806110de57508560ff16600660003373ffffffffffffffffffffffffffffffffffffffff1673ffffffffffffffffffffffffffffffffffffffff1681526020019081526020016000206001016001600381106110c357fe5b602091828204019190069054906101000a900460ff1660ff16145b8061115157508560ff16600660003373ffffffffffffffffffffffffffffffffffffffff1673ffffffffffffffffffffffffffffffffffffffff16815260200190815260200160002060010160026003811061113657fe5b602091828204019190069054906101000a900460ff1660ff16145b6111a6576040517f08c379a0000000000000000000000000000000000000000000000000000000008152600401808060200182810382526023815260200180611fa26023913960400191505060405180910390fd5b60008686868686604051602001808660ff1660ff1660f81b81526001018573ffffffffffffffffffffffffffffffffffffffff1673ffffffffffffffffffffffffffffffffffffffff1660601b815260140184848082843780830192505050828152602001955050505050506040516020818303038152906040528051906020012090506007600082815260200190815260200160002060000160149054906101000a900460ff166112a3576040517f08c379a000000000000000000000000000000000000000000000000000000000815260040180806020018281038252602f815260200180611f73602f913960400191505060405180910390fd5b6007600082815260200190815260200160002060010160008360ff1660ff168152602001908152602001600020339080600181540180825580915050600190039060005260206000200160009091909190916101000a81548173ffffffffffffffffffffffffffffffffffffffff021916908373ffffffffffffffffffffffffffffffffffffffff1602179055507f43c853095c2752648493c88b4baac4d580d2594ffb00c6f1d4242d844514f7838686868686604051808673ffffffffffffffffffffffffffffffffffffffff1673ffffffffffffffffffffffffffffffffffffffff168152602001806020018481526020018360ff1660ff1681526020018281038252868682818152602001925080828437600081840152601f19601f820116905080830192505050965050505050505060405180910390a160036007600083815260200190815260200160002060010160008460ff1660ff1681526020019081526020016000208054905010611514577fe23f5229de535c091e3b7bec2665f5d698192d3b31393066e8987b7a05076b6c8686868686604051808673ffffffffffffffffffffffffffffffffffffffff1673ffffffffffffffffffffffffffffffffffffffff168152602001806020018481526020018360ff1660ff1681526020018281038252868682818152602001925080828437600081840152601f19601f820116905080830192505050965050505050505060405180910390a16115138686868080601f016020809104026020016040519081016040528093929190818152602001838380828437600081840152601f19601f820116905080830192505050505050508585611d90565b5b50505050505050565b678ac7230489e80000341461159a576040517f08c379a000000000000000000000000000000000000000000000000000000000815260040180806020018281038252601f8152602001807f496e636f72726563742066756e64732076616c7565207375626d69747465640081525060200191505060405180910390fd5b6000809054906101000a900473ffffffffffffffffffffffffffffffffffffffff1673ffffffffffffffffffffffffffffffffffffffff16636fbb879834336040518363ffffffff1660e01b8152600401808273ffffffffffffffffffffffffffffffffffffffff1673ffffffffffffffffffffffffffffffffffffffff1681526020019150506020604051808303818588803b15801561163a57600080fd5b505af115801561164e573d6000803e3d6000fd5b50505050506040513d602081101561166557600080fd5b810190808051906020019092919050505050565b60006001905090565b600061168d33611d96565b905060008186868686604051602001808660ff1660ff1660f81b81526001018573ffffffffffffffffffffffffffffffffffffffff1673ffffffffffffffffffffffffffffffffffffffff1660601b8152601401848480828437808301925050508281526020019550505050505060405160208183030381529060405280519060200120905060405180604001604052803373ffffffffffffffffffffffffffffffffffffffff168152602001600115158152506007600083815260200190815260200160002060008201518160000160006101000a81548173ffffffffffffffffffffffffffffffffffffffff021916908373ffffffffffffffffffffffffffffffffffffffff16021790555060208201518160000160146101000a81548160ff0219169083151502179055509050507f3ed01f2c3fc24c6b329d931e35b03e390d23497d22b3f90e15b600343e93df118287878787604051808660ff1660ff1681526020018573ffffffffffffffffffffffffffffffffffffffff1673ffffffffffffffffffffffffffffffffffffffff168152602001806020018381526020018281038252858582818152602001925080828437600081840152601f19601f820116905080830192505050965050505050505060405180910390a1505050505050565b60606000809054906101000a900473ffffffffffffffffffffffffffffffffffffffff1673ffffffffffffffffffffffffffffffffffffffff16631cebb54d6040518163ffffffff1660e01b815260040160006040518083038186803b1580156118dc57600080fd5b505afa1580156118f0573d6000803e3d6000fd5b505050506040513d6000823e3d601f19601f82011682018060405250602081101561191a57600080fd5b810190808051604051939291908464010000000082111561193a57600080fd5b8382019150602082018581111561195057600080fd5b825186602082028301116401000000008211171561196d57600080fd5b8083526020830192505050908051906020019060200280838360005b838110156119a4578082015181840152602081019050611989565b5050505090500160405250505090506000815190506000600282816119c557fe5b0490506000600260008673ffffffffffffffffffffffffffffffffffffffff1673ffffffffffffffffffffffffffffffffffffffff1681526020019081526020016000206001015490508080600101915050818110611b66576000809054906101000a900473ffffffffffffffffffffffffffffffffffffffff1673ffffffffffffffffffffffffffffffffffffffff1663c7ba501886336040518363ffffffff1660e01b8152600401808373ffffffffffffffffffffffffffffffffffffffff1673ffffffffffffffffffffffffffffffffffffffff1681526020018273ffffffffffffffffffffffffffffffffffffffff1673ffffffffffffffffffffffffffffffffffffffff16815260200192505050600060405180830381600087803b158015611af257600080fd5b505af1158015611b06573d6000803e3d6000fd5b505050506000600260008773ffffffffffffffffffffffffffffffffffffffff1673ffffffffffffffffffffffffffffffffffffffff16815260200190815260200160002060020160006101000a81548160ff0219169083151502179055505b7f0fedfc31f1666875352b0f56bae76d940988f8ebcd7cb91dbf074384957198e78533604051808373ffffffffffffffffffffffffffffffffffffffff1673ffffffffffffffffffffffffffffffffffffffff1681526020018273ffffffffffffffffffffffffffffffffffffffff1673ffffffffffffffffffffffffffffffffffffffff1681526020019250505060405180910390a15050505050565b611c0c611e86565b611c14611e86565b611c1d83611d96565b81600060038110611c2a57fe5b602002019060ff16908160ff168152505080600060038110611c4857fe5b602002015181600160038110611c5a57fe5b602002019060ff16908160ff16815250505b80600060038110611c7957fe5b602002015160ff1681600160038110611c8e57fe5b602002015160ff161415611cc857611ca583611d96565b81600160038110611cb257fe5b602002019060ff16908160ff1681525050611c6c565b80600160038110611cd557fe5b602002015181600260038110611ce757fe5b602002019060ff16908160ff16815250505b80600060038110611d0657fe5b602002015160ff1681600260038110611d1b57fe5b602002015160ff161480611d56575080600160038110611d3757fe5b602002015160ff1681600260038110611d4c57fe5b602002015160ff16145b15611d8757611d6483611d96565b81600260038110611d7157fe5b602002019060ff16908160ff1681525050611cf9565b80915050919050565b50505050565b600080600a905060008160ff166005600081819054906101000a900460ff168092919060010191906101000a81548160ff021916908360ff16021790555060ff1643034085604051602001808381526020018273ffffffffffffffffffffffffffffffffffffffff1673ffffffffffffffffffffffffffffffffffffffff1660601b8152601401925050506040516020818303038152906040528051906020012060001c81611e4157fe5b06905060fa600560009054906101000a900460ff1660ff161115611e7c576000600560006101000a81548160ff021916908360ff1602179055505b8092505050919050565b6040518060600160405280600390602082028038833980820191505090505090565b826003601f01602090048101928215611f315791602002820160005b83821115611f0257835183826101000a81548160ff021916908360ff1602179055509260200192600101602081600001049283019260010302611ec4565b8015611f2f5782816101000a81549060ff0219169055600101602081600001049283019260010302611f02565b505b509050611f3e9190611f42565b5090565b611f6f91905b80821115611f6b57600081816101000a81549060ff021916905550600101611f48565b5090565b9056fe466c69676874206f722074696d657374616d7020646f206e6f74206d61746368206f7261636c652072657175657374496e64657820646f6573206e6f74206d61746368206f7261636c652072657175657374a2646970667358221220229c32c9e3081d869020b5766797877234e42adbb12ed982694bdc41a92667f464736f6c63430006020033",
  "source": "pragma solidity ^0.6;\n\nimport \"../node_modules/openzeppelin-solidity/contracts/math/SafeMath.sol\";\n\n/************************************************** */\n/* FlightSurety Smart Contract                      */\n/************************************************** */\ncontract FlightSuretyApp {\n    using SafeMath for uint256;\n\n    /********************************************************************************************/\n    /*                                       DATA VARIABLES                                     */\n    /********************************************************************************************/\n\n    // Flight status codees\n    uint8 private constant STATUS_CODE_UNKNOWN = 0;\n    uint8 private constant STATUS_CODE_ON_TIME = 10;\n    uint8 private constant STATUS_CODE_LATE_AIRLINE = 20;\n    uint8 private constant STATUS_CODE_LATE_WEATHER = 30;\n    uint8 private constant STATUS_CODE_LATE_TECHNICAL = 40;\n    uint8 private constant STATUS_CODE_LATE_OTHER = 50;\n\n    // MSJ: State variable to interface with FlightSuretyData contract\n    FlightSuretyData flightSuretyData;\n\n    // MSJ: Account used to deploy contract\n    address private contractOwner;\n\n     // MSJ: Airline registration fee\n    uint256 constant AIRLINE_REG_FEE = 10 ether;\n\n    // MSJ: Airlines Registration Queue\n    struct AirlineRegistrationQueue {\n        address registerer;\n        uint256 votes;\n        bool isQueued;\n    }\n\n    // MSJ: Mapping the address of the airline's address with registration status\n    mapping(address => AirlineRegistrationQueue) private registrationQueue;\n    \n    // MSJ: Array to keep track of airline registration queue\n    address[] airlineRegQueue = new address[](0);\n\n    // MSJ: Events\n    event AirlineRegistrationQueued(address queued, address registerer);\n    event VotedForAirline(address voted, address voter);\n\n    // MSJ: Modifier to verify address is registered\n    modifier requireIsAirlineRegistered(address airline) {\n        require(flightSuretyData.isAirlineRegistered(airline) == true, 'Caller is not the authorized app contract');\n        _;\n    }\n\n    // MSJ: Modifier to verify address is Funded\n    modifier requireIsAirlineFunded(address airline) {\n        require(flightSuretyData.isAirlineFunded(airline) == true, 'Caller is not the authorized app contract');\n        _;\n    }\n\n    struct Flight {\n        bool isRegistered;\n        uint8 statusCode;\n        uint256 updatedTimestamp;        \n        address airline;\n    }\n    mapping(bytes32 => Flight) private flights;\n\n \n    /********************************************************************************************/\n    /*                                       FUNCTION MODIFIERS                                 */\n    /********************************************************************************************/\n\n    modifier requireIsOperational() \n    {\n        require(true, \"Contract is currently not operational\"); \n        _; \n    }\n\n    modifier requireContractOwner()\n    {\n        require(msg.sender == contractOwner, \"Caller is not contract owner\");\n        _;\n    }\n\n    /********************************************************************************************/\n    /*                                       CONSTRUCTOR                                        */\n    /********************************************************************************************/\n\n    constructor(address payable dataContract) public\n    {\n        contractOwner = msg.sender;\n        flightSuretyData = FlightSuretyData(dataContract);\n    }\n\n    /********************************************************************************************/\n    /*                                       UTILITY FUNCTIONS                                  */\n    /********************************************************************************************/\n\n    function isOperational() public pure returns(bool) \n    {\n        return true;  // Modify to call data contract's status\n    }\n\n    // MSJ: Function to verify address is queue\n    function isAirlineQueued(address airline) external view returns(bool) \n    {     \n        return registrationQueue[airline].isQueued;\n    }\n\n    // MSJ: Get list of registered airlines\n    function getAirlinesRegistration() public view returns(address[] memory) \n    {\n        address[] memory airlinesRegistration = flightSuretyData.getAirlinesRegistration();\n\n        return airlinesRegistration;\n    }\n\n    // MSJ: Get list of funded airlines\n    function getAirlinesFunded() public view returns(address[] memory) \n    {\n        address[] memory airlinesFunded = flightSuretyData.getAirlinesRegisteredFunded();\n\n        return airlinesFunded;\n    }\n\n    // MSJ: Function to get airline registration queue\n    function getQueued() public view returns(address[] memory) \n    {\n        return airlineRegQueue;\n    }\n\n    /********************************************************************************************/\n    /*                                     SMART CONTRACT FUNCTIONS                             */\n    /********************************************************************************************/\n\n  \n    // MSJ: Register Airline\n    function registerAirline(address applicant) public\n    {\n        address[] memory airlinesRegisteredFunded = flightSuretyData.getAirlinesRegistration();\n\n        // MSJ: Register airline if there are less than 5 registered airlines altogether\n        if(airlinesRegisteredFunded.length < 5) \n        {\n            flightSuretyData.registerAirline(applicant, msg.sender);\n        }\n        // MSJ: Add airline registration to queue, to run through voting process\n        else \n        {\n            // add check that airline is not yet in queue\n            registrationQueue[applicant].registerer = msg.sender;\n            registrationQueue[applicant].votes = 1;\n            registrationQueue[applicant].isQueued = true;\n            \n            airlineRegQueue.push(applicant); \n\n            emit AirlineRegistrationQueued(applicant, msg.sender);\n        }\n    }\n\n    // MSJ: Function to allow other registered airlines to vote\n    function voteForAirline(address applicant) public\n    {\n        // MSJ: Get total count of participating airlines\n        address[] memory participatingAirlines = flightSuretyData.getAirlinesRegisteredFunded();\n        uint256 currentRegistration = participatingAirlines.length;\n        \n        // MSJ: Get 50% if participating airlines\n        uint256 requiredConsensus = currentRegistration / 2;\n\n        // MSJ: Get applicant's current votes\n        uint256 currentApplicantVotes = registrationQueue[applicant].votes;\n        \n        // MSJ: Increment votes\n        currentApplicantVotes++;\n\n        // MSJ: Check if there are enough votes\n        if(currentApplicantVotes >= requiredConsensus)\n        {\n            // MSJ: If required vote consensus is met, proceed with registration (but not yet funded)\n            flightSuretyData.registerAirline(applicant, msg.sender);\n            registrationQueue[applicant].isQueued = false;\n        }\n\n        emit VotedForAirline(applicant, msg.sender);\n    }\n\n    \n    // MSJ: For airline to submit registration funding so they can start participating\n    function submitFunding() payable external {\n        require(msg.value == AIRLINE_REG_FEE, \"Incorrect funds value submitted\");\n       \n        //require(address(this).balance > AIRLINE_REG_FEE, \"Insufficient funds\");\n        \n        // MSJ: Submit funding\n        flightSuretyData.fundAirline{value: msg.value}(msg.sender);\n    }\n\n   /**\n    * @dev Register a future flight for insuring.\n    *\n    */  \n    function registerFlight() external pure\n    {\n\n    }\n    \n   /**\n    * @dev Called after oracle has updated flight status\n    *\n    */  \n    function processFlightStatus(address airline, string memory flight, uint256 timestamp, uint8 statusCode) internal pure\n    {\n    }\n\n\n    // Generate a request for oracles to fetch flight information\n    function fetchFlightStatus(address airline, string calldata flight, uint256 timestamp) external\n    {\n        uint8 index = getRandomIndex(msg.sender);\n\n        // Generate a unique key for storing the request\n        bytes32 key = keccak256(abi.encodePacked(index, airline, flight, timestamp));\n        oracleResponses[key] = ResponseInfo({\n                                                requester: msg.sender,\n                                                isOpen: true\n                                            });\n\n        emit OracleRequest(index, airline, flight, timestamp);\n    } \n\n\n// region ORACLE MANAGEMENT\n\n    // Incremented to add pseudo-randomness at various points\n    uint8 private nonce = 0;    \n\n    // Fee to be paid when registering oracle\n    uint256 public constant REGISTRATION_FEE = 1 ether;\n\n    // Number of oracles that must respond for valid status\n    uint256 private constant MIN_RESPONSES = 3;\n\n\n    struct Oracle {\n        bool isRegistered;\n        uint8[3] indexes;        \n    }\n\n    // Track all registered oracles\n    mapping(address => Oracle) private oracles;\n\n    // Model for responses from oracles\n    struct ResponseInfo {\n        address requester;                              // Account that requested status\n        bool isOpen;                                    // If open, oracle responses are accepted\n        mapping(uint8 => address[]) responses;          // Mapping key is the status code reported\n                                                        // This lets us group responses and identify\n                                                        // the response that majority of the oracles\n    }\n\n    // Track all oracle responses\n    // Key = hash(index, flight, timestamp)\n    mapping(bytes32 => ResponseInfo) private oracleResponses;\n\n    // Event fired each time an oracle submits a response\n    event FlightStatusInfo(address airline, string flight, uint256 timestamp, uint8 status);\n\n    event OracleReport(address airline, string flight, uint256 timestamp, uint8 status);\n\n    // Event fired when flight status request is submitted\n    // Oracles track this and if they have a matching index\n    // they fetch data and submit a response\n    event OracleRequest(uint8 index, address airline, string flight, uint256 timestamp);\n\n\n    // Register an oracle with the contract\n    function registerOracle() external payable\n    {\n        // Require registration fee\n        require(msg.value >= REGISTRATION_FEE, \"Registration fee is required\");\n\n        uint8[3] memory indexes = generateIndexes(msg.sender);\n\n        oracles[msg.sender] = Oracle({\n                                        isRegistered: true,\n                                        indexes: indexes\n                                    });\n    }\n\n    function getMyIndexes() view external returns(uint8[3] memory)\n    {\n        require(oracles[msg.sender].isRegistered, \"Not registered as an oracle\");\n\n        return oracles[msg.sender].indexes;\n    }\n\n    // Called by oracle when a response is available to an outstanding request\n    // For the response to be accepted, there must be a pending request that is open\n    // and matches one of the three Indexes randomly assigned to the oracle at the\n    // time of registration (i.e. uninvited oracles are not welcome)\n    function submitOracleResponse(uint8 index, address airline, string calldata flight, uint256 timestamp, uint8 statusCode) external\n    {\n        require((oracles[msg.sender].indexes[0] == index) || (oracles[msg.sender].indexes[1] == index) || (oracles[msg.sender].indexes[2] == index), \"Index does not match oracle request\");\n\n\n        bytes32 key = keccak256(abi.encodePacked(index, airline, flight, timestamp)); \n        require(oracleResponses[key].isOpen, \"Flight or timestamp do not match oracle request\");\n\n        oracleResponses[key].responses[statusCode].push(msg.sender);\n\n        // Information isn't considered verified until at least MIN_RESPONSES\n        // oracles respond with the *** same *** information\n        emit OracleReport(airline, flight, timestamp, statusCode);\n        if (oracleResponses[key].responses[statusCode].length >= MIN_RESPONSES) {\n\n            emit FlightStatusInfo(airline, flight, timestamp, statusCode);\n\n            // Handle flight status as appropriate\n            processFlightStatus(airline, flight, timestamp, statusCode);\n        }\n    }\n\n\n    function getFlightKey(address airline, string memory flight, uint256 timestamp) pure internal returns(bytes32) \n    {\n        return keccak256(abi.encodePacked(airline, flight, timestamp));\n    }\n\n    // Returns array of three non-duplicating integers from 0-9\n    function generateIndexes(address account) internal returns(uint8[3] memory)\n    {\n        uint8[3] memory indexes;\n        indexes[0] = getRandomIndex(account);\n        \n        indexes[1] = indexes[0];\n        while(indexes[1] == indexes[0]) {\n            indexes[1] = getRandomIndex(account);\n        }\n\n        indexes[2] = indexes[1];\n        while((indexes[2] == indexes[0]) || (indexes[2] == indexes[1])) {\n            indexes[2] = getRandomIndex(account);\n        }\n\n        return indexes;\n    }\n\n    // Returns array of three non-duplicating integers from 0-9\n    function getRandomIndex\n                            (\n                                address account\n                            )\n                            internal\n                            returns (uint8)\n    {\n        uint8 maxValue = 10;\n\n        // Pseudo random number...the incrementing nonce adds variation\n        uint8 random = uint8(uint256(keccak256(abi.encodePacked(blockhash(block.number - nonce++), account))) % maxValue);\n\n        if (nonce > 250) {\n            nonce = 0;  // Can only fetch blockhashes for last 256 blocks so we adapt\n        }\n\n        return random;\n    }\n\n// endregion\n\n}\n\n// MSJ: FlightSurety data contract interface\nabstract contract FlightSuretyData {\n    function registerAirline(address applicant, address registerer) external virtual; //returns(bool);\n    function getAirlinesRegistration() external virtual view returns(address[] memory);\n    function getAirlinesFunded() external virtual view returns(address[] memory);\n    function getAirlinesRegisteredFunded() external virtual view returns(address[] memory);\n    function fundAirline(address airline) external virtual payable returns(bool);\n    function isAirlineRegistered(address airline) external virtual view returns(bool);\n    function isAirlineFunded(address airline) external virtual view returns(bool);\n\n}",
  "sourcePath": "C:\\Users\\marco\\Documents\\bc_proj\\ud-bcnd-project-4\\contracts\\FlightSuretyApp.sol",
  "compiler": {
    "name": "solc",
    "version": "0.6.2+commit.bacdbe57.Emscripten.clang"
  },
  "schemaVersion": "3.0.23",
  "updatedAt": "2020-07-02T02:00:56.126Z",
  "networkType": "ethereum",
  "devdoc": {
    "methods": {
      "registerFlight()": {
        "details": "Register a future flight for insuring.    "
      }
    }
  },
  "userdoc": {
    "methods": {
      "constructor": "*****************************************************************************************",
      "isOperational()": {
        "notice": "*****************************************************************************************"
      },
      "registerAirline(address)": {
        "notice": "*****************************************************************************************"
      }
    },
    "notice": "************************************************ "
  }
}