{
  "contractName": "FlightSuretyData",
  "abi": [
    {
      "inputs": [],
      "stateMutability": "nonpayable",
      "type": "constructor"
    },
    {
      "anonymous": false,
      "inputs": [
        {
          "indexed": false,
          "internalType": "address",
          "name": "passenger",
          "type": "address"
        },
        {
          "indexed": false,
          "internalType": "uint256",
          "name": "amount",
          "type": "uint256"
        }
      ],
      "name": "AccountWithdrawn",
      "type": "event"
    },
    {
      "anonymous": false,
      "inputs": [
        {
          "indexed": false,
          "internalType": "address",
          "name": "funded",
          "type": "address"
        }
      ],
      "name": "AirlineFunded",
      "type": "event"
    },
    {
      "anonymous": false,
      "inputs": [
        {
          "indexed": false,
          "internalType": "address",
          "name": "registered",
          "type": "address"
        },
        {
          "indexed": false,
          "internalType": "address",
          "name": "registerer",
          "type": "address"
        }
      ],
      "name": "AirlineRegistered",
      "type": "event"
    },
    {
      "anonymous": false,
      "inputs": [
        {
          "indexed": false,
          "internalType": "bytes32",
          "name": "flightKey",
          "type": "bytes32"
        },
        {
          "indexed": false,
          "internalType": "string",
          "name": "flight",
          "type": "string"
        },
        {
          "indexed": false,
          "internalType": "uint256",
          "name": "timestamp",
          "type": "uint256"
        },
        {
          "indexed": false,
          "internalType": "address",
          "name": "registerer",
          "type": "address"
        }
      ],
      "name": "FlightRegistered",
      "type": "event"
    },
    {
      "anonymous": false,
      "inputs": [
        {
          "indexed": false,
          "internalType": "address",
          "name": "airline",
          "type": "address"
        },
        {
          "indexed": false,
          "internalType": "string",
          "name": "flight",
          "type": "string"
        },
        {
          "indexed": false,
          "internalType": "uint256",
          "name": "timestamp",
          "type": "uint256"
        },
        {
          "indexed": false,
          "internalType": "uint8",
          "name": "statusCode",
          "type": "uint8"
        }
      ],
      "name": "FlightStatusUpdated",
      "type": "event"
    },
    {
      "anonymous": false,
      "inputs": [
        {
          "indexed": false,
          "internalType": "address",
          "name": "passenger",
          "type": "address"
        },
        {
          "indexed": false,
          "internalType": "string",
          "name": "flight",
          "type": "string"
        },
        {
          "indexed": false,
          "internalType": "address",
          "name": "airline",
          "type": "address"
        },
        {
          "indexed": false,
          "internalType": "uint256",
          "name": "timestamp",
          "type": "uint256"
        }
      ],
      "name": "InsurancePurchased",
      "type": "event"
    },
    {
      "anonymous": false,
      "inputs": [
        {
          "indexed": false,
          "internalType": "address",
          "name": "passenger",
          "type": "address"
        },
        {
          "indexed": false,
          "internalType": "uint256",
          "name": "amount",
          "type": "uint256"
        }
      ],
      "name": "InsureeCredited",
      "type": "event"
    },
    {
      "stateMutability": "payable",
      "type": "fallback",
      "payable": true
    },
    {
      "inputs": [
        {
          "internalType": "address",
          "name": "",
          "type": "address"
        }
      ],
      "name": "pendingPayments",
      "outputs": [
        {
          "internalType": "uint256",
          "name": "",
          "type": "uint256"
        }
      ],
      "stateMutability": "view",
      "type": "function",
      "constant": true
    },
    {
      "stateMutability": "payable",
      "type": "receive",
      "payable": true
    },
    {
      "inputs": [],
      "name": "isOperational",
      "outputs": [
        {
          "internalType": "bool",
          "name": "",
          "type": "bool"
        }
      ],
      "stateMutability": "view",
      "type": "function",
      "constant": true
    },
    {
      "inputs": [
        {
          "internalType": "bool",
          "name": "mode",
          "type": "bool"
        }
      ],
      "name": "setOperatingStatus",
      "outputs": [],
      "stateMutability": "nonpayable",
      "type": "function"
    },
    {
      "inputs": [
        {
          "internalType": "address",
          "name": "appContract",
          "type": "address"
        }
      ],
      "name": "authorizeCaller",
      "outputs": [],
      "stateMutability": "nonpayable",
      "type": "function"
    },
    {
      "inputs": [
        {
          "internalType": "address",
          "name": "appContract",
          "type": "address"
        }
      ],
      "name": "deauthorizeCaller",
      "outputs": [],
      "stateMutability": "nonpayable",
      "type": "function"
    },
    {
      "inputs": [
        {
          "internalType": "address",
          "name": "airline",
          "type": "address"
        }
      ],
      "name": "isAirlineRegistered",
      "outputs": [
        {
          "internalType": "bool",
          "name": "",
          "type": "bool"
        }
      ],
      "stateMutability": "view",
      "type": "function",
      "constant": true
    },
    {
      "inputs": [
        {
          "internalType": "address",
          "name": "airline",
          "type": "address"
        }
      ],
      "name": "isAirlineFunded",
      "outputs": [
        {
          "internalType": "bool",
          "name": "",
          "type": "bool"
        }
      ],
      "stateMutability": "view",
      "type": "function",
      "constant": true
    },
    {
      "inputs": [],
      "name": "getAirlinesRegistration",
      "outputs": [
        {
          "internalType": "address[]",
          "name": "",
          "type": "address[]"
        }
      ],
      "stateMutability": "view",
      "type": "function",
      "constant": true
    },
    {
      "inputs": [],
      "name": "getAirlinesRegisteredFunded",
      "outputs": [
        {
          "internalType": "address[]",
          "name": "",
          "type": "address[]"
        }
      ],
      "stateMutability": "view",
      "type": "function",
      "constant": true
    },
    {
      "inputs": [],
      "name": "getRegisteredFlights",
      "outputs": [
        {
          "internalType": "bytes32[]",
          "name": "",
          "type": "bytes32[]"
        }
      ],
      "stateMutability": "view",
      "type": "function",
      "constant": true
    },
    {
      "inputs": [
        {
          "internalType": "bytes32",
          "name": "flightkey",
          "type": "bytes32"
        }
      ],
      "name": "isFlightRegistered",
      "outputs": [
        {
          "internalType": "bool",
          "name": "",
          "type": "bool"
        }
      ],
      "stateMutability": "view",
      "type": "function",
      "constant": true
    },
    {
      "inputs": [
        {
          "internalType": "address",
          "name": "airline",
          "type": "address"
        },
        {
          "internalType": "string",
          "name": "flight",
          "type": "string"
        },
        {
          "internalType": "uint256",
          "name": "timestamp",
          "type": "uint256"
        }
      ],
      "name": "_getFlightKey",
      "outputs": [
        {
          "internalType": "bytes32",
          "name": "",
          "type": "bytes32"
        }
      ],
      "stateMutability": "view",
      "type": "function",
      "constant": true
    },
    {
      "inputs": [
        {
          "internalType": "bytes32",
          "name": "flightkey",
          "type": "bytes32"
        },
        {
          "internalType": "uint8",
          "name": "statusCode",
          "type": "uint8"
        }
      ],
      "name": "updateFlightStatusCode",
      "outputs": [],
      "stateMutability": "nonpayable",
      "type": "function"
    },
    {
      "inputs": [
        {
          "internalType": "bytes32",
          "name": "flightkey",
          "type": "bytes32"
        }
      ],
      "name": "getFlightStatusCode",
      "outputs": [
        {
          "internalType": "uint8",
          "name": "",
          "type": "uint8"
        }
      ],
      "stateMutability": "view",
      "type": "function",
      "constant": true
    },
    {
      "inputs": [
        {
          "internalType": "address",
          "name": "passenger",
          "type": "address"
        },
        {
          "internalType": "address",
          "name": "airline",
          "type": "address"
        },
        {
          "internalType": "string",
          "name": "flight",
          "type": "string"
        },
        {
          "internalType": "uint256",
          "name": "timestamp",
          "type": "uint256"
        }
      ],
      "name": "isInsured",
      "outputs": [
        {
          "internalType": "bool",
          "name": "",
          "type": "bool"
        }
      ],
      "stateMutability": "view",
      "type": "function",
      "constant": true
    },
    {
      "inputs": [
        {
          "internalType": "address",
          "name": "passenger",
          "type": "address"
        }
      ],
      "name": "getPendingPayment",
      "outputs": [
        {
          "internalType": "uint256",
          "name": "",
          "type": "uint256"
        }
      ],
      "stateMutability": "view",
      "type": "function",
      "constant": true
    },
    {
      "inputs": [
        {
          "internalType": "address",
          "name": "applicant",
          "type": "address"
        },
        {
          "internalType": "address",
          "name": "registerer",
          "type": "address"
        }
      ],
      "name": "registerAirline",
      "outputs": [
        {
          "internalType": "bool",
          "name": "",
          "type": "bool"
        }
      ],
      "stateMutability": "nonpayable",
      "type": "function"
    },
    {
      "inputs": [
        {
          "internalType": "address",
          "name": "airline",
          "type": "address"
        }
      ],
      "name": "fundAirline",
      "outputs": [
        {
          "internalType": "bool",
          "name": "",
          "type": "bool"
        }
      ],
      "stateMutability": "payable",
      "type": "function",
      "payable": true
    },
    {
      "inputs": [
        {
          "internalType": "string",
          "name": "flight",
          "type": "string"
        },
        {
          "internalType": "uint256",
          "name": "timestamp",
          "type": "uint256"
        },
        {
          "internalType": "address",
          "name": "registerer",
          "type": "address"
        }
      ],
      "name": "registerFlight",
      "outputs": [],
      "stateMutability": "nonpayable",
      "type": "function"
    },
    {
      "inputs": [
        {
          "internalType": "address",
          "name": "airline",
          "type": "address"
        },
        {
          "internalType": "string",
          "name": "flight",
          "type": "string"
        },
        {
          "internalType": "uint256",
          "name": "timestamp",
          "type": "uint256"
        },
        {
          "internalType": "uint8",
          "name": "statusCode",
          "type": "uint8"
        }
      ],
      "name": "processFlightStatus",
      "outputs": [],
      "stateMutability": "nonpayable",
      "type": "function"
    },
    {
      "inputs": [
        {
          "internalType": "address",
          "name": "passenger",
          "type": "address"
        },
        {
          "internalType": "string",
          "name": "flight",
          "type": "string"
        },
        {
          "internalType": "address",
          "name": "airline",
          "type": "address"
        },
        {
          "internalType": "uint256",
          "name": "timestamp",
          "type": "uint256"
        },
        {
          "internalType": "uint256",
          "name": "amount",
          "type": "uint256"
        },
        {
          "internalType": "uint256",
          "name": "multiplier",
          "type": "uint256"
        }
      ],
      "name": "buy",
      "outputs": [
        {
          "internalType": "bool",
          "name": "",
          "type": "bool"
        }
      ],
      "stateMutability": "payable",
      "type": "function",
      "payable": true
    },
    {
      "inputs": [
        {
          "internalType": "address",
          "name": "passenger",
          "type": "address"
        }
      ],
      "name": "pay",
      "outputs": [],
      "stateMutability": "nonpayable",
      "type": "function"
    }
  ],
  "bytecode": "0x60806040526001600060146101000a81548160ff0219169083151502179055506000604051908082528060200260200182016040528015620000505781602001602082028038833980820191505090505b506004908051906020019062000068929190620003c5565b5060006040519080825280602002602001820160405280156200009a5781602001602082028038833980820191505090505b5060059080519060200190620000b2929190620003c5565b506000604051908082528060200260200182016040528015620000e45781602001602082028038833980820191505090505b5060079080519060200190620000fc92919062000454565b503480156200010a57600080fd5b50336000806101000a81548173ffffffffffffffffffffffffffffffffffffffff021916908373ffffffffffffffffffffffffffffffffffffffff1602179055506200017d6000809054906101000a900473ffffffffffffffffffffffffffffffffffffffff166200018360201b60201c565b62000514565b6000809054906101000a900473ffffffffffffffffffffffffffffffffffffffff1673ffffffffffffffffffffffffffffffffffffffff163373ffffffffffffffffffffffffffffffffffffffff161462000246576040517f08c379a000000000000000000000000000000000000000000000000000000000815260040180806020018281038252601c8152602001807f43616c6c6572206973206e6f7420636f6e7472616374206f776e65720000000081525060200191505060405180910390fd5b6001600360008373ffffffffffffffffffffffffffffffffffffffff1673ffffffffffffffffffffffffffffffffffffffff16815260200190815260200160002060000160006101000a81548160ff0219169083151502179055506001600360008373ffffffffffffffffffffffffffffffffffffffff1673ffffffffffffffffffffffffffffffffffffffff16815260200190815260200160002060000160016101000a81548160ff0219169083151502179055506004819080600181540180825580915050600190039060005260206000200160009091909190916101000a81548173ffffffffffffffffffffffffffffffffffffffff021916908373ffffffffffffffffffffffffffffffffffffffff1602179055506005819080600181540180825580915050600190039060005260206000200160009091909190916101000a81548173ffffffffffffffffffffffffffffffffffffffff021916908373ffffffffffffffffffffffffffffffffffffffff16021790555050565b82805482825590600052602060002090810192821562000441579160200282015b82811115620004405782518260006101000a81548173ffffffffffffffffffffffffffffffffffffffff021916908373ffffffffffffffffffffffffffffffffffffffff16021790555091602001919060010190620003e6565b5b509050620004509190620004a6565b5090565b82805482825590600052602060002090810192821562000493579160200282015b828111156200049257825182559160200191906001019062000475565b5b509050620004a29190620004ec565b5090565b620004e991905b80821115620004e557600081816101000a81549073ffffffffffffffffffffffffffffffffffffffff021916905550600101620004ad565b5090565b90565b6200051191905b808211156200050d576000816000905550600101620004f3565b5090565b90565b613a4780620005246000396000f3fe6080604052600436106101395760003560e01c80637a600242116100ab578063c19b4fae1161006f578063c19b4fae14610845578063c7ba50181461092d578063cd905dff146109b6578063e7bdde3b146109e5578063f53b6d6514610aa2578063fd59025e14610b0b57610149565b80637a600242146105e85780637f38e5261461065457806396fb2915146106b9578063b881c41f146107a8578063bf4a7b87146107fd57610149565b806339c675e1116100fd57806339c675e11461030857806358ac36a3146103cc57806365c152f71461041f5780636873c21d146104cf5780636fbb879814610520578063707153381461057c57610149565b8063010c5c97146101545780630c11dedd146101bd578063110466ed1461020e5780631cebb54d1461024b5780632c388d5d146102b757610149565b366101495761014734610b70565b005b61015234610b70565b005b34801561016057600080fd5b506101a36004803603602081101561017757600080fd5b81019080803573ffffffffffffffffffffffffffffffffffffffff169060200190929190505050610b8e565b604051808215151515815260200191505060405180910390f35b3480156101c957600080fd5b5061020c600480360360208110156101e057600080fd5b81019080803573ffffffffffffffffffffffffffffffffffffffff169060200190929190505050610be7565b005b34801561021a57600080fd5b506102496004803603602081101561023157600080fd5b81019080803515159060200190929190505050610f8a565b005b34801561025757600080fd5b50610260611069565b6040518080602001828103825283818151815260200191508051906020019060200280838360005b838110156102a3578082015181840152602081019050610288565b505050509050019250505060405180910390f35b3480156102c357600080fd5b50610306600480360360208110156102da57600080fd5b81019080803573ffffffffffffffffffffffffffffffffffffffff1690602001909291905050506110f7565b005b34801561031457600080fd5b506103b66004803603606081101561032b57600080fd5b81019080803573ffffffffffffffffffffffffffffffffffffffff1690602001909291908035906020019064010000000081111561036857600080fd5b82018360208201111561037a57600080fd5b8035906020019184600183028401116401000000008311171561039c57600080fd5b909192939192939080359060200190929190505050611214565b6040518082815260200191505060405180910390f35b3480156103d857600080fd5b50610405600480360360208110156103ef57600080fd5b810190808035906020019092919050505061128f565b604051808215151515815260200191505060405180910390f35b34801561042b57600080fd5b506104cd6004803603606081101561044257600080fd5b810190808035906020019064010000000081111561045f57600080fd5b82018360208201111561047157600080fd5b8035906020019184600183028401116401000000008311171561049357600080fd5b909192939192939080359060200190929190803573ffffffffffffffffffffffffffffffffffffffff1690602001909291905050506112bc565b005b3480156104db57600080fd5b5061051e600480360360208110156104f257600080fd5b81019080803573ffffffffffffffffffffffffffffffffffffffff1690602001909291905050506119c4565b005b6105626004803603602081101561053657600080fd5b81019080803573ffffffffffffffffffffffffffffffffffffffff169060200190929190505050611ae1565b604051808215151515815260200191505060405180910390f35b34801561058857600080fd5b50610591611e33565b6040518080602001828103825283818151815260200191508051906020019060200280838360005b838110156105d45780820151818401526020810190506105b9565b505050509050019250505060405180910390f35b3480156105f457600080fd5b506105fd611e8b565b6040518080602001828103825283818151815260200191508051906020019060200280838360005b83811015610640578082015181840152602081019050610625565b505050509050019250505060405180910390f35b34801561066057600080fd5b506106a36004803603602081101561067757600080fd5b81019080803573ffffffffffffffffffffffffffffffffffffffff169060200190929190505050611f19565b6040518082815260200191505060405180910390f35b61078e600480360360c08110156106cf57600080fd5b81019080803573ffffffffffffffffffffffffffffffffffffffff1690602001909291908035906020019064010000000081111561070c57600080fd5b82018360208201111561071e57600080fd5b8035906020019184600183028401116401000000008311171561074057600080fd5b9091929391929390803573ffffffffffffffffffffffffffffffffffffffff169060200190929190803590602001909291908035906020019092919080359060200190929190505050611f31565b604051808215151515815260200191505060405180910390f35b3480156107b457600080fd5b506107e1600480360360208110156107cb57600080fd5b8101908080359060200190929190505050612572565b604051808260ff1660ff16815260200191505060405180910390f35b34801561080957600080fd5b506108436004803603604081101561082057600080fd5b8101908080359060200190929190803560ff16906020019092919050505061259f565b005b34801561085157600080fd5b506109136004803603608081101561086857600080fd5b81019080803573ffffffffffffffffffffffffffffffffffffffff169060200190929190803573ffffffffffffffffffffffffffffffffffffffff169060200190929190803590602001906401000000008111156108c557600080fd5b8201836020820111156108d757600080fd5b803590602001918460018302840111640100000000831117156108f957600080fd5b9091929391929390803590602001909291905050506125d2565b604051808215151515815260200191505060405180910390f35b34801561093957600080fd5b5061099c6004803603604081101561095057600080fd5b81019080803573ffffffffffffffffffffffffffffffffffffffff169060200190929190803573ffffffffffffffffffffffffffffffffffffffff169060200190929190505050612898565b604051808215151515815260200191505060405180910390f35b3480156109c257600080fd5b506109cb612d95565b604051808215151515815260200191505060405180910390f35b3480156109f157600080fd5b50610aa060048036036080811015610a0857600080fd5b81019080803573ffffffffffffffffffffffffffffffffffffffff16906020019092919080359060200190640100000000811115610a4557600080fd5b820183602082011115610a5757600080fd5b80359060200191846001830284011164010000000083111715610a7957600080fd5b909192939192939080359060200190929190803560ff169060200190929190505050612dab565b005b348015610aae57600080fd5b50610af160048036036020811015610ac557600080fd5b81019080803573ffffffffffffffffffffffffffffffffffffffff1690602001909291905050506130a5565b604051808215151515815260200191505060405180910390f35b348015610b1757600080fd5b50610b5a60048036036020811015610b2e57600080fd5b81019080803573ffffffffffffffffffffffffffffffffffffffff1690602001909291905050506130fe565b6040518082815260200191505060405180910390f35b610b858160015461314790919063ffffffff16565b60018190555050565b6000600360008373ffffffffffffffffffffffffffffffffffffffff1673ffffffffffffffffffffffffffffffffffffffff16815260200190815260200160002060000160009054906101000a900460ff169050919050565b600060149054906101000a900460ff16610c4c576040517f08c379a00000000000000000000000000000000000000000000000000000000081526004018080602001828103825260258152602001806139ed6025913960400191505060405180910390fd5b60011515600260003373ffffffffffffffffffffffffffffffffffffffff1673ffffffffffffffffffffffffffffffffffffffff16815260200190815260200160002060009054906101000a900460ff16151514610cf5576040517f08c379a000000000000000000000000000000000000000000000000000000000815260040180806020018281038252602981526020018061397f6029913960400191505060405180910390fd5b3273ffffffffffffffffffffffffffffffffffffffff168173ffffffffffffffffffffffffffffffffffffffff1614610d96576040517f08c379a00000000000000000000000000000000000000000000000000000000081526004018080602001828103825260158152602001807f436f6e747261637473206e6f7420616c6c6f776564000000000000000000000081525060200191505060405180910390fd5b6000600960008373ffffffffffffffffffffffffffffffffffffffff1673ffffffffffffffffffffffffffffffffffffffff1681526020019081526020016000205411610e4b576040517f08c379a00000000000000000000000000000000000000000000000000000000081526004018080602001828103825260208152602001807f4e6f2066756e6420617661696c61626c6520666f72207769746864726177616c81525060200191505060405180910390fd5b6000600960008373ffffffffffffffffffffffffffffffffffffffff1673ffffffffffffffffffffffffffffffffffffffff1681526020019081526020016000205490506000600960008473ffffffffffffffffffffffffffffffffffffffff1673ffffffffffffffffffffffffffffffffffffffff168152602001908152602001600020819055508173ffffffffffffffffffffffffffffffffffffffff166108fc829081150290604051600060405180830381858888f19350505050158015610f1a573d6000803e3d6000fd5b507fdfeacc538b4e5daa9b6f7bd5267be179488543805cd27e8022d2883a4dc847d78282604051808373ffffffffffffffffffffffffffffffffffffffff1673ffffffffffffffffffffffffffffffffffffffff1681526020018281526020019250505060405180910390a15050565b6000809054906101000a900473ffffffffffffffffffffffffffffffffffffffff1673ffffffffffffffffffffffffffffffffffffffff163373ffffffffffffffffffffffffffffffffffffffff161461104c576040517f08c379a000000000000000000000000000000000000000000000000000000000815260040180806020018281038252601c8152602001807f43616c6c6572206973206e6f7420636f6e7472616374206f776e65720000000081525060200191505060405180910390fd5b80600060146101000a81548160ff02191690831515021790555050565b606060058054806020026020016040519081016040528092919081815260200182805480156110ed57602002820191906000526020600020905b8160009054906101000a900473ffffffffffffffffffffffffffffffffffffffff1673ffffffffffffffffffffffffffffffffffffffff16815260200190600101908083116110a3575b5050505050905090565b6000809054906101000a900473ffffffffffffffffffffffffffffffffffffffff1673ffffffffffffffffffffffffffffffffffffffff163373ffffffffffffffffffffffffffffffffffffffff16146111b9576040517f08c379a000000000000000000000000000000000000000000000000000000000815260040180806020018281038252601c8152602001807f43616c6c6572206973206e6f7420636f6e7472616374206f776e65720000000081525060200191505060405180910390fd5b6001600260008373ffffffffffffffffffffffffffffffffffffffff1673ffffffffffffffffffffffffffffffffffffffff16815260200190815260200160002060006101000a81548160ff02191690831515021790555050565b600084848484604051602001808573ffffffffffffffffffffffffffffffffffffffff1673ffffffffffffffffffffffffffffffffffffffff1660601b815260140184848082843780830192505050828152602001945050505050604051602081830303815290604052805190602001209050949350505050565b60006006600083815260200190815260200160002060000160009054906101000a900460ff169050919050565b600060149054906101000a900460ff16611321576040517f08c379a00000000000000000000000000000000000000000000000000000000081526004018080602001828103825260258152602001806139ed6025913960400191505060405180910390fd5b60011515600260003373ffffffffffffffffffffffffffffffffffffffff1673ffffffffffffffffffffffffffffffffffffffff16815260200190815260200160002060009054906101000a900460ff161515146113ca576040517f08c379a000000000000000000000000000000000000000000000000000000000815260040180806020018281038252602981526020018061397f6029913960400191505060405180910390fd5b8060011515600360008373ffffffffffffffffffffffffffffffffffffffff1673ffffffffffffffffffffffffffffffffffffffff16815260200190815260200160002060000160009054906101000a900460ff16151514611477576040517f08c379a00000000000000000000000000000000000000000000000000000000081526004018080602001828103825260248152602001806139a86024913960400191505060405180910390fd5b60011515600360008373ffffffffffffffffffffffffffffffffffffffff1673ffffffffffffffffffffffffffffffffffffffff16815260200190815260200160002060000160019054906101000a900460ff16151514611540576040517f08c379a00000000000000000000000000000000000000000000000000000000081526004018080602001828103825260208152602001807f4169726c696e652052656769737465726572206973206e6f742066756e64656481525060200191505060405180910390fd5b60011515600360008473ffffffffffffffffffffffffffffffffffffffff1673ffffffffffffffffffffffffffffffffffffffff16815260200190815260200160002060000160009054906101000a900460ff16151514611609576040517f08c379a00000000000000000000000000000000000000000000000000000000081526004018080602001828103825260168152602001807f4169726c696e65206e6f7420726567697374657265640000000000000000000081525060200191505060405180910390fd5b60011515600360008473ffffffffffffffffffffffffffffffffffffffff1673ffffffffffffffffffffffffffffffffffffffff16815260200190815260200160002060000160019054906101000a900460ff161515146116d2576040517f08c379a00000000000000000000000000000000000000000000000000000000081526004018080602001828103825260128152602001807f4169726c696e65206e6f742066756e646564000000000000000000000000000081525060200191505060405180910390fd5b60006117238387878080601f016020809104026020016040519081016040528093929190818152602001838380828437600081840152601f19601f82011690508083019250505050505050866131cf565b90506006600082815260200190815260200160002060000160009054906101000a900460ff161561179f576040517f08c379a000000000000000000000000000000000000000000000000000000000815260040180806020018281038252602281526020018061395d6022913960400191505060405180910390fd5b6040518060a00160405280600115158152602001600060ff1681526020018581526020018473ffffffffffffffffffffffffffffffffffffffff16815260200187878080601f016020809104026020016040519081016040528093929190818152602001838380828437600081840152601f19601f820116905080830192505050505050508152506006600083815260200190815260200160002060008201518160000160006101000a81548160ff02191690831515021790555060208201518160000160016101000a81548160ff021916908360ff1602179055506040820151816001015560608201518160020160006101000a81548173ffffffffffffffffffffffffffffffffffffffff021916908373ffffffffffffffffffffffffffffffffffffffff16021790555060808201518160030190805190602001906118e892919061384c565b5090505060078190806001815401808255809150506001900390600052602060002001600090919091909150557f14122ef803a27c9e5daf90c64604def1b58b088d7f0fc0d4770488c6bcf55d8c818787878760405180868152602001806020018481526020018373ffffffffffffffffffffffffffffffffffffffff1673ffffffffffffffffffffffffffffffffffffffff1681526020018281038252868682818152602001925080828437600081840152601f19601f820116905080830192505050965050505050505060405180910390a1505050505050565b6000809054906101000a900473ffffffffffffffffffffffffffffffffffffffff1673ffffffffffffffffffffffffffffffffffffffff163373ffffffffffffffffffffffffffffffffffffffff1614611a86576040517f08c379a000000000000000000000000000000000000000000000000000000000815260040180806020018281038252601c8152602001807f43616c6c6572206973206e6f7420636f6e7472616374206f776e65720000000081525060200191505060405180910390fd5b6000600260008373ffffffffffffffffffffffffffffffffffffffff1673ffffffffffffffffffffffffffffffffffffffff16815260200190815260200160002060006101000a81548160ff02191690831515021790555050565b60008060149054906101000a900460ff16611b47576040517f08c379a00000000000000000000000000000000000000000000000000000000081526004018080602001828103825260258152602001806139ed6025913960400191505060405180910390fd5b60011515600260003373ffffffffffffffffffffffffffffffffffffffff1673ffffffffffffffffffffffffffffffffffffffff16815260200190815260200160002060009054906101000a900460ff16151514611bf0576040517f08c379a000000000000000000000000000000000000000000000000000000000815260040180806020018281038252602981526020018061397f6029913960400191505060405180910390fd5b60011515600360008473ffffffffffffffffffffffffffffffffffffffff1673ffffffffffffffffffffffffffffffffffffffff16815260200190815260200160002060000160009054906101000a900460ff16151514611cb9576040517f08c379a00000000000000000000000000000000000000000000000000000000081526004018080602001828103825260168152602001807f4169726c696e65206e6f7420726567697374657265640000000000000000000081525060200191505060405180910390fd5b6001600360008473ffffffffffffffffffffffffffffffffffffffff1673ffffffffffffffffffffffffffffffffffffffff16815260200190815260200160002060000160016101000a81548160ff02191690831515021790555034600360008473ffffffffffffffffffffffffffffffffffffffff1673ffffffffffffffffffffffffffffffffffffffff168152602001908152602001600020600101600082825401925050819055506005829080600181540180825580915050600190039060005260206000200160009091909190916101000a81548173ffffffffffffffffffffffffffffffffffffffff021916908373ffffffffffffffffffffffffffffffffffffffff1602179055507f3c348ba34685212d5d04f432a9e569b642b180df0227a6b0c899050c4acb7af882604051808273ffffffffffffffffffffffffffffffffffffffff1673ffffffffffffffffffffffffffffffffffffffff16815260200191505060405180910390a160019050919050565b60606007805480602002602001604051908101604052809291908181526020018280548015611e8157602002820191906000526020600020905b815481526020019060010190808311611e6d575b5050505050905090565b60606004805480602002602001604051908101604052809291908181526020018280548015611f0f57602002820191906000526020600020905b8160009054906101000a900473ffffffffffffffffffffffffffffffffffffffff1673ffffffffffffffffffffffffffffffffffffffff1681526020019060010190808311611ec5575b5050505050905090565b60096020528060005260406000206000915090505481565b60008060149054906101000a900460ff16611f97576040517f08c379a00000000000000000000000000000000000000000000000000000000081526004018080602001828103825260258152602001806139ed6025913960400191505060405180910390fd5b60011515600260003373ffffffffffffffffffffffffffffffffffffffff1673ffffffffffffffffffffffffffffffffffffffff16815260200190815260200160002060009054906101000a900460ff16151514612040576040517f08c379a000000000000000000000000000000000000000000000000000000000815260040180806020018281038252602981526020018061397f6029913960400191505060405180910390fd5b60006120918689898080601f016020809104026020016040519081016040528093929190818152602001838380828437600081840152601f19601f82011690508083019250505050505050876131cf565b9050600115156006600083815260200190815260200160002060000160009054906101000a900460ff16151514612130576040517f08c379a00000000000000000000000000000000000000000000000000000000081526004018080602001828103825260158152602001807f466c69676874206e6f742072656769737465726564000000000000000000000081525060200191505060405180910390fd5b60011515600360008873ffffffffffffffffffffffffffffffffffffffff1673ffffffffffffffffffffffffffffffffffffffff16815260200190815260200160002060000160009054906101000a900460ff161515146121f9576040517f08c379a00000000000000000000000000000000000000000000000000000000081526004018080602001828103825260168152602001807f4169726c696e65206e6f7420726567697374657265640000000000000000000081525060200191505060405180910390fd5b60011515600360008873ffffffffffffffffffffffffffffffffffffffff1673ffffffffffffffffffffffffffffffffffffffff16815260200190815260200160002060000160019054906101000a900460ff161515146122c2576040517f08c379a00000000000000000000000000000000000000000000000000000000081526004018080602001828103825260128152602001807f4169726c696e65206e6f742066756e646564000000000000000000000000000081525060200191505060405180910390fd5b600860008281526020019081526020016000206040518060e001604052808b73ffffffffffffffffffffffffffffffffffffffff1681526020018781526020018873ffffffffffffffffffffffffffffffffffffffff1681526020018a8a8080601f016020809104026020016040519081016040528093929190818152602001838380828437600081840152601f19601f82011690508083019250505050505050815260200186815260200185815260200160001515815250908060018154018082558091505060019003906000526020600020906007020160009091909190915060008201518160000160006101000a81548173ffffffffffffffffffffffffffffffffffffffff021916908373ffffffffffffffffffffffffffffffffffffffff1602179055506020820151816001015560408201518160020160006101000a81548173ffffffffffffffffffffffffffffffffffffffff021916908373ffffffffffffffffffffffffffffffffffffffff160217905550606082015181600301908051906020019061245892919061384c565b506080820151816004015560a0820151816005015560c08201518160060160006101000a81548160ff02191690831515021790555050507f7ba6209d91c74ecd926c783f178412d62d1ff25815a4842c683b2d1aadeace1a8989898989604051808673ffffffffffffffffffffffffffffffffffffffff1673ffffffffffffffffffffffffffffffffffffffff168152602001806020018473ffffffffffffffffffffffffffffffffffffffff1673ffffffffffffffffffffffffffffffffffffffff1681526020018381526020018281038252868682818152602001925080828437600081840152601f19601f820116905080830192505050965050505050505060405180910390a16001915050979650505050505050565b60006006600083815260200190815260200160002060000160019054906101000a900460ff169050919050565b806006600084815260200190815260200160002060000160016101000a81548160ff021916908360ff1602179055505050565b60006060600860006126298888888080601f016020809104026020016040519081016040528093929190818152602001838380828437600081840152601f19601f82011690508083019250505050505050876131cf565b8152602001908152602001600020805480602002602001604051908101604052809291908181526020016000905b8282101561281057838290600052602060002090600702016040518060e00160405290816000820160009054906101000a900473ffffffffffffffffffffffffffffffffffffffff1673ffffffffffffffffffffffffffffffffffffffff1673ffffffffffffffffffffffffffffffffffffffff168152602001600182015481526020016002820160009054906101000a900473ffffffffffffffffffffffffffffffffffffffff1673ffffffffffffffffffffffffffffffffffffffff1673ffffffffffffffffffffffffffffffffffffffff168152602001600382018054600181600116156101000203166002900480601f0160208091040260200160405190810160405280929190818152602001828054600181600116156101000203166002900480156127c95780601f1061279e576101008083540402835291602001916127c9565b820191906000526020600020905b8154815290600101906020018083116127ac57829003601f168201915b5050505050815260200160048201548152602001600582015481526020016006820160009054906101000a900460ff16151515158152505081526020019060010190612657565b50505050905060008090505b8151811015612888578773ffffffffffffffffffffffffffffffffffffffff1682828151811061284857fe5b60200260200101516000015173ffffffffffffffffffffffffffffffffffffffff16141561287b5760019250505061288f565b808060010191505061281c565b5060009150505b95945050505050565b60008060149054906101000a900460ff166128fe576040517f08c379a00000000000000000000000000000000000000000000000000000000081526004018080602001828103825260258152602001806139ed6025913960400191505060405180910390fd5b60011515600260003373ffffffffffffffffffffffffffffffffffffffff1673ffffffffffffffffffffffffffffffffffffffff16815260200190815260200160002060009054906101000a900460ff161515146129a7576040517f08c379a000000000000000000000000000000000000000000000000000000000815260040180806020018281038252602981526020018061397f6029913960400191505060405180910390fd5b8160011515600360008373ffffffffffffffffffffffffffffffffffffffff1673ffffffffffffffffffffffffffffffffffffffff16815260200190815260200160002060000160009054906101000a900460ff16151514612a54576040517f08c379a00000000000000000000000000000000000000000000000000000000081526004018080602001828103825260248152602001806139a86024913960400191505060405180910390fd5b60011515600360008373ffffffffffffffffffffffffffffffffffffffff1673ffffffffffffffffffffffffffffffffffffffff16815260200190815260200160002060000160019054906101000a900460ff16151514612b1d576040517f08c379a00000000000000000000000000000000000000000000000000000000081526004018080602001828103825260208152602001807f4169726c696e652052656769737465726572206973206e6f742066756e64656481525060200191505060405180910390fd5b60001515600360008673ffffffffffffffffffffffffffffffffffffffff1673ffffffffffffffffffffffffffffffffffffffff16815260200190815260200160002060000160009054906101000a900460ff16151514612be6576040517f08c379a000000000000000000000000000000000000000000000000000000000815260040180806020018281038252601d8152602001807f4169726c696e6520697320616c7265616479207265676973746572656400000081525060200191505060405180910390fd5b60405180606001604052806001151581526020016000151581526020016000815250600360008673ffffffffffffffffffffffffffffffffffffffff1673ffffffffffffffffffffffffffffffffffffffff16815260200190815260200160002060008201518160000160006101000a81548160ff02191690831515021790555060208201518160000160016101000a81548160ff021916908315150217905550604082015181600101559050506004849080600181540180825580915050600190039060005260206000200160009091909190916101000a81548173ffffffffffffffffffffffffffffffffffffffff021916908373ffffffffffffffffffffffffffffffffffffffff1602179055507f3bfdb99fbcef24ea247a0804fbb61674b13e92dafc59610dfcac7321d700796a8484604051808373ffffffffffffffffffffffffffffffffffffffff1673ffffffffffffffffffffffffffffffffffffffff1681526020018273ffffffffffffffffffffffffffffffffffffffff1673ffffffffffffffffffffffffffffffffffffffff1681526020019250505060405180910390a15092915050565b60008060149054906101000a900460ff16905090565b600060149054906101000a900460ff16612e10576040517f08c379a00000000000000000000000000000000000000000000000000000000081526004018080602001828103825260258152602001806139ed6025913960400191505060405180910390fd5b60011515600260003373ffffffffffffffffffffffffffffffffffffffff1673ffffffffffffffffffffffffffffffffffffffff16815260200190815260200160002060009054906101000a900460ff16151514612eb9576040517f08c379a000000000000000000000000000000000000000000000000000000000815260040180806020018281038252602981526020018061397f6029913960400191505060405180910390fd5b6000612f0a8686868080601f016020809104026020016040519081016040528093929190818152602001838380828437600081840152601f19601f82011690508083019250505050505050856131cf565b9050600060ff166006600083815260200190815260200160002060000160019054906101000a900460ff1660ff161415612f6e57816006600083815260200190815260200160002060000160016101000a81548160ff021916908360ff1602179055505b601460ff166006600083815260200190815260200160002060000160019054906101000a900460ff1660ff161415612ff057612fef8686868080601f016020809104026020016040519081016040528093929190818152602001838380828437600081840152601f19601f820116905080830192505050505050508561328b565b5b7f3f8930fd52e84bc32c0c2e5d060a9cfa59066160d5197e39f17d16ebbcaa7db68686868686604051808673ffffffffffffffffffffffffffffffffffffffff1673ffffffffffffffffffffffffffffffffffffffff168152602001806020018481526020018360ff1660ff1681526020018281038252868682818152602001925080828437600081840152601f19601f820116905080830192505050965050505050505060405180910390a1505050505050565b6000600360008373ffffffffffffffffffffffffffffffffffffffff1673ffffffffffffffffffffffffffffffffffffffff16815260200190815260200160002060000160019054906101000a900460ff169050919050565b6000600960008373ffffffffffffffffffffffffffffffffffffffff1673ffffffffffffffffffffffffffffffffffffffff168152602001908152602001600020549050919050565b6000808284019050838110156131c5576040517f08c379a000000000000000000000000000000000000000000000000000000000815260040180806020018281038252601b8152602001807f536166654d6174683a206164646974696f6e206f766572666c6f77000000000081525060200191505060405180910390fd5b8091505092915050565b6000838383604051602001808473ffffffffffffffffffffffffffffffffffffffff1673ffffffffffffffffffffffffffffffffffffffff1660601b815260140183805190602001908083835b6020831061323f578051825260208201915060208101905060208303925061321c565b6001836020036101000a03801982511681845116808217855250505050505090500182815260200193505050506040516020818303038152906040528051906020012090509392505050565b600060149054906101000a900460ff166132f0576040517f08c379a00000000000000000000000000000000000000000000000000000000081526004018080602001828103825260258152602001806139ed6025913960400191505060405180910390fd5b60011515600260003373ffffffffffffffffffffffffffffffffffffffff1673ffffffffffffffffffffffffffffffffffffffff16815260200190815260200160002060009054906101000a900460ff16151514613399576040517f08c379a000000000000000000000000000000000000000000000000000000000815260040180806020018281038252602981526020018061397f6029913960400191505060405180910390fd5b60006133a68484846131cf565b905060008090505b60086000838152602001908152602001600020805490508110156136af576133d46138cc565b6008600084815260200190815260200160002082815481106133f257fe5b90600052602060002090600702016040518060e00160405290816000820160009054906101000a900473ffffffffffffffffffffffffffffffffffffffff1673ffffffffffffffffffffffffffffffffffffffff1673ffffffffffffffffffffffffffffffffffffffff168152602001600182015481526020016002820160009054906101000a900473ffffffffffffffffffffffffffffffffffffffff1673ffffffffffffffffffffffffffffffffffffffff1673ffffffffffffffffffffffffffffffffffffffff168152602001600382018054600181600116156101000203166002900480601f01602080910402602001604051908101604052809291908181526020018280546001816001161561010002031660029004801561355a5780601f1061352f5761010080835404028352916020019161355a565b820191906000526020600020905b81548152906001019060200180831161353d57829003601f168201915b5050505050815260200160048201548152602001600582015481526020016006820160009054906101000a900460ff1615151515815250509050600015158160c00151151514156136a15760018160c001901515908115158152505060006135e660646135d88460a0015185608001516136b690919063ffffffff16565b61373c90919063ffffffff16565b90508060096000846000015173ffffffffffffffffffffffffffffffffffffffff1673ffffffffffffffffffffffffffffffffffffffff168152602001908152602001600020819055507f868591bb2b953c2ab9230c3d982fc24b5b255e5d8d9bcd0c1a5e6ad5cddccab6826000015182604051808373ffffffffffffffffffffffffffffffffffffffff1673ffffffffffffffffffffffffffffffffffffffff1681526020018281526020019250505060405180910390a1505b5080806001019150506133ae565b5050505050565b6000808314156136c95760009050613736565b60008284029050828482816136da57fe5b0414613731576040517f08c379a00000000000000000000000000000000000000000000000000000000081526004018080602001828103825260218152602001806139cc6021913960400191505060405180910390fd5b809150505b92915050565b600061377e83836040518060400160405280601a81526020017f536166654d6174683a206469766973696f6e206279207a65726f000000000000815250613786565b905092915050565b60008083118290613832576040517f08c379a00000000000000000000000000000000000000000000000000000000081526004018080602001828103825283818151815260200191508051906020019080838360005b838110156137f75780820151818401526020810190506137dc565b50505050905090810190601f1680156138245780820380516001836020036101000a031916815260200191505b509250505060405180910390fd5b50600083858161383e57fe5b049050809150509392505050565b828054600181600116156101000203166002900490600052602060002090601f016020900481019282601f1061388d57805160ff19168380011785556138bb565b828001600101855582156138bb579182015b828111156138ba57825182559160200191906001019061389f565b5b5090506138c89190613937565b5090565b6040518060e00160405280600073ffffffffffffffffffffffffffffffffffffffff16815260200160008152602001600073ffffffffffffffffffffffffffffffffffffffff1681526020016060815260200160008152602001600081526020016000151581525090565b61395991905b8082111561395557600081600090555060010161393d565b5090565b9056fe466c696768742068617320616c7265616479206265656e207265676973746572656443616c6c6572206973206e6f742074686520617574686f72697a65642061707020636f6e74726163744169726c696e652052656769737465726572206973206e6f742072656769737465726564536166654d6174683a206d756c7469706c69636174696f6e206f766572666c6f77436f6e74726163742069732063757272656e746c79206e6f74206f7065726174696f6e616ca2646970667358221220a29de44a7e5481060485e1e0c2679d5c0e1b46b96e0058e46b46450bf8cf0e4d64736f6c63430006020033",
  "source": "pragma solidity ^0.6;\n\nimport \"../node_modules/openzeppelin-solidity/contracts/math/SafeMath.sol\";\n\ncontract FlightSuretyData {\n    using SafeMath for uint256;\n\n    /********************************************************************************************/\n    /*                                       DATA VARIABLES                                     */\n    /********************************************************************************************/\n\n    address private contractOwner;\n    bool private operational = true;\n    uint private balance;\n    \n    // MSJ: Mapping contract address to authorizedContracts\n    mapping(address => bool) private authorizedContracts;\n\n    // MSJ: Airlines struct\n    struct Airline {\n        bool isRegistered;\n        bool isFunded;\n        uint256 deposit;\n    }\n\n    // MSJ: Mapping the address of the airline with the airline's struct record\n    mapping(address => Airline) private airlines;\n\n    // MSJ: Array to keep track of registered + funded airlines\n    address[] airlinesRegistration = new address[](0);\n    address[] airlinesRegisteredFunded = new address[](0);\n\n    // MSJ: Flight status codees\n    uint8 private constant STATUS_CODE_UNKNOWN = 0;\n    uint8 private constant STATUS_CODE_ON_TIME = 10;\n    uint8 private constant STATUS_CODE_LATE_AIRLINE = 20;\n    uint8 private constant STATUS_CODE_LATE_WEATHER = 30;\n    uint8 private constant STATUS_CODE_LATE_TECHNICAL = 40;\n    uint8 private constant STATUS_CODE_LATE_OTHER = 50;\n\n    // MSJ: Flights struct\n    struct Flight {\n        bool isRegistered;\n        uint8 statusCode;\n        uint256 updatedTimestamp;        \n        address airline;\n        string flight;\n    }\n    \n    // MSJ: Mapping bytes32 to flights\n    mapping(bytes32 => Flight) private flights;\n    \n    // MSJ: Bytes32 data to keep track of registered flights\n    bytes32[] registeredFlights = new bytes32[](0);\n\n    // MSJ: Insurance struct\n    struct Insurance {\n        address passenger;\n        uint256 timestamp;        \n        address airline;\n        string flight;\n        uint256 amount;\n        uint256 multiplier;\n        bool isCredited;\n    }\n    \n    // MSJ: Bytes32 data to keep track of insured passengers\n    mapping (bytes32 => Insurance[]) insuredPassengers;\n    mapping (address => uint) public pendingPayments;\n\n    /********************************************************************************************/\n    /*                                       EVENT DEFINITIONS                                  */\n    /********************************************************************************************/\n\n    // MSJ: Events\n    event AirlineRegistered(address registered, address registerer);\n    event AirlineFunded(address funded);\n    event FlightRegistered(bytes32 flightKey, string flight, uint256 timestamp, address registerer);\n    event InsurancePurchased(address passenger, string flight, address airline, uint256 timestamp);\n    event FlightStatusUpdated(address airline, string flight, uint256 timestamp, uint8 statusCode);\n    event InsureeCredited(address passenger, uint256 amount);\n    event AccountWithdrawn(address passenger, uint256 amount);\n\n    /********************************************************************************************/\n    /*                                       CONSTRUCTOR                                        */\n    /********************************************************************************************/\n    \n    // MSJ: Constructor to set contract owner and first airline\n    constructor() public \n    {\n        contractOwner = msg.sender;\n\n        // MSJ: For first airline registration\n        registerFirstAirline(contractOwner);\n    }\n\n    /********************************************************************************************/\n    /*                                       FUNCTION MODIFIERS                                 */\n    /********************************************************************************************/\n\n    // MSJ: Modifier to check operating status\n    modifier requireIsOperational() \n    {\n        require(operational, \"Contract is currently not operational\");\n        _;\n    }\n\n    // MSJ: Modifier to check for contract owner\n    modifier requireContractOwner()\n    {\n        require(msg.sender == contractOwner, \"Caller is not contract owner\");\n        _;\n    }\n    \n    // MSJ: Modifier to only allow authorized contracts to call this contract\n    modifier requireIsCallerAuthorized() {\n        require(authorizedContracts[msg.sender] == true, 'Caller is not the authorized app contract');\n        _;\n    }\n    \n    // MSJ: Modifier to only allow registered + funded airlines to register other airlines\n    modifier requireAirlineRegisteredFunded(address registerer) {\n        require(airlines[registerer].isRegistered == true, 'Airline Registerer is not registered');\n        require(airlines[registerer].isFunded == true, 'Airline Registerer is not funded');\n        _;\n    }\n\n    /********************************************************************************************/\n    /*                                       UTILITY FUNCTIONS                                  */\n    /********************************************************************************************/\n    \n    function isOperational() public view returns(bool) \n    {\n        return operational;\n    }\n  \n    function setOperatingStatus(bool mode) external requireContractOwner \n    {\n        operational = mode;\n    }\n\n    // MSJ: Function to authorize contract(s) that can access this contract\n    function authorizeCaller(address appContract) external requireContractOwner \n    {\n        authorizedContracts[appContract] = true;\n    }\n\n    // MSJ: Function to authorize contract(s) that can access this contract\n    function deauthorizeCaller(address appContract) external requireContractOwner \n    {\n        authorizedContracts[appContract] = false;\n    }\n\n    // MSJ: Function to register first airline\n    function registerFirstAirline(address firstAirline) internal requireContractOwner\n    {\n        airlines[firstAirline].isRegistered = true;\n        airlines[firstAirline].isFunded = true; \n        airlinesRegistration.push(firstAirline); \n        airlinesRegisteredFunded.push(firstAirline); \n    }\n\n    // MSJ: Function to verify address is registered\n    function isAirlineRegistered(address airline) external view returns(bool) \n    {     \n        return airlines[airline].isRegistered;\n    }\n\n    // MSJ: Function to verify address is Funded\n    function isAirlineFunded(address airline) external view returns(bool) \n    {     \n        return airlines[airline].isFunded;\n    }\n\n    // MSJ: Get list of registered airlines\n    function getAirlinesRegistration() external view returns(address[] memory) \n    {\n        return airlinesRegistration;\n    }\n\n    // MSJ: Get list of funded airlines\n    function getAirlinesRegisteredFunded() external view returns(address[] memory) \n    {\n        return airlinesRegisteredFunded;\n    }\n\n    // MSJ: Get list of registered flights\n    function getRegisteredFlights() external view returns(bytes32[] memory) \n    {\n        return registeredFlights;\n    }\n    \n    // MSJ: Function to verify flight is registered\n    function isFlightRegistered(bytes32 flightkey) external view returns(bool) \n    {     \n        return flights[flightkey].isRegistered;\n    }\n\n    function _getFlightKey(address airline, string calldata flight, uint256 timestamp) external view returns(bytes32) \n    {\n        return keccak256(abi.encodePacked(airline, flight, timestamp));\n    }\n\n    // MSJ: Update flight status code\n    function updateFlightStatusCode(bytes32 flightkey, uint8 statusCode) external \n    {     \n       flights[flightkey].statusCode = statusCode;\n       \n       //return flights[flightkey].statusCode;\n    }\n\n    // MSJ: Get flight status code\n    function getFlightStatusCode(bytes32 flightkey) external view returns(uint8) \n    {     \n        return flights[flightkey].statusCode;\n    }\n    \n    // MSJ: Function to check if passenger is insured\n    function isInsured(address passenger, address airline, string calldata flight, uint256 timestamp) external view returns (bool) {\n        Insurance[] memory insured = insuredPassengers[getFlightKey(airline, flight, timestamp)];\n        for(uint i = 0; i < insured.length; i++) \n        {\n            if (insured[i].passenger == passenger) \n            {\n                return true;\n            }\n        }\n        return false;\n    }\n    \n    // MSJ: Function to get pending payment\n    function getPendingPayment(address passenger) external view returns (uint256)\n    {\n        return pendingPayments[passenger];\n    }\n\n    /********************************************************************************************/\n    /*                                     SMART CONTRACT FUNCTIONS                             */\n    /********************************************************************************************/\n\n    // MSJ: Register Airline\n    function registerAirline(address applicant, address registerer) external \n             requireIsOperational\n             requireIsCallerAuthorized\n             requireAirlineRegisteredFunded(registerer) \n             returns(bool)\n    {\n        //bool status = true;\n\n        require(airlines[applicant].isRegistered == false, 'Airline is already registered');\n\n        airlines[applicant] = Airline({\n            isRegistered: true, \n            isFunded: false,\n            deposit: 0\n        });\n\n        airlinesRegistration.push(applicant); \n\n        emit AirlineRegistered(applicant, registerer);\n\n        // return status;\n    }\n\n    // MSJ: Fund Airline\n    function fundAirline(address airline) external payable\n             requireIsOperational\n             requireIsCallerAuthorized\n             returns(bool)\n    {\n        require(airlines[airline].isRegistered == true, 'Airline not registered');\n \n        airlines[airline].isFunded = true;\n        airlines[airline].deposit += msg.value;\n        airlinesRegisteredFunded.push(airline); \n        \n        emit AirlineFunded(airline);\n        return true;\n    }\n\n    // MSJ: Register Flight\n    function registerFlight(string calldata flight, uint256 timestamp, address registerer) external \n             requireIsOperational\n             requireIsCallerAuthorized\n             requireAirlineRegisteredFunded(registerer)\n    {\n        require(airlines[registerer].isRegistered == true, 'Airline not registered');\n        require(airlines[registerer].isFunded == true, 'Airline not funded');\n\n        bytes32 flightKey = getFlightKey(registerer, flight, timestamp);\n        require(!flights[flightKey].isRegistered, \"Flight has already been registered\");\n        \n        flights[flightKey] = Flight({\n          isRegistered: true,\n          statusCode: 0,\n          updatedTimestamp: timestamp,\n          airline: registerer,\n          flight: flight\n        });\n\n        registeredFlights.push(flightKey); \n\n        emit FlightRegistered(flightKey, flight, timestamp, registerer);\n\n    }\n\n    function getFlightKey(address airline, string memory flight, uint256 timestamp) pure internal returns(bytes32)\n    {\n        return keccak256(abi.encodePacked(airline, flight, timestamp));\n    }\n\n    // MSJ: Process Flight\n    function processFlightStatus(address airline, string calldata flight, uint256 timestamp, uint8 statusCode) external requireIsOperational requireIsCallerAuthorized \n    {\n        \n        bytes32 flightKey = getFlightKey(airline, flight, timestamp);    \n\n        // MSJ: If unknown status code, set it to the specified status code\n        if (flights[flightKey].statusCode == STATUS_CODE_UNKNOWN) \n        {\n            flights[flightKey].statusCode = statusCode;\n        }\n\n        // MSJ: If stauts code is late due to airline\n        if(flights[flightKey].statusCode == STATUS_CODE_LATE_AIRLINE) \n        {\n            creditInsurees(airline, flight, timestamp);\n        }\n\n        emit FlightStatusUpdated(airline, flight, timestamp, statusCode);\n    }\n    \n    function creditInsurees(address airline, string memory flight, uint256 timestamp) internal requireIsOperational requireIsCallerAuthorized \n    {\n        bytes32 flightKey = getFlightKey(airline, flight, timestamp);\n\n        for (uint i = 0; i < insuredPassengers[flightKey].length; i++) \n        {\n            Insurance memory insurance = insuredPassengers[flightKey][i];\n\n            if (insurance.isCredited == false) \n            {\n                insurance.isCredited = true;\n                uint256 amount = insurance.amount.mul(insurance.multiplier).div(100);\n                pendingPayments[insurance.passenger] = amount;\n\n                emit InsureeCredited(insurance.passenger, amount);\n            }\n        }\n    }\n    \n    // MSJ: For passenger to buy insurance\n    function buy(address passenger, string calldata flight, address airline, uint256 timestamp, uint256 amount, uint256 multiplier) external payable\n             requireIsOperational\n             requireIsCallerAuthorized\n             returns(bool)\n    {\n        bytes32 flightKey = getFlightKey(airline, flight, timestamp);\n        require(flights[flightKey].isRegistered == true, \"Flight not registered\");\n        require(airlines[airline].isRegistered == true, 'Airline not registered');\n        require(airlines[airline].isFunded == true, 'Airline not funded');\n\n        insuredPassengers[flightKey].push(Insurance({\n          passenger: passenger,\n          timestamp: timestamp,\n          airline: airline,\n          flight: flight,\n          amount: amount,\n          multiplier: multiplier,\n          isCredited: false\n        }));\n\n        \n        emit InsurancePurchased(passenger, flight, airline, timestamp);\n        return true;\n    }\n    \n    // MSJ: To transfer eligible payout\n    function pay(address passenger) external requireIsOperational requireIsCallerAuthorized \n    {\n        require(passenger == tx.origin, \"Contracts not allowed\");\n        require(pendingPayments[passenger] > 0, \"No fund available for withdrawal\");\n\n        uint256 amount = pendingPayments[passenger];\n        pendingPayments[passenger] = 0;\n\n        address(uint160(passenger)).transfer(amount);\n\n        emit AccountWithdrawn(passenger, amount);\n    }\n    \n    // MSJ: Function to fund contract\n    function fund(uint256 amount) internal\n    {\n        balance = balance.add(amount);\n    }\n    \n    // MSJ: Fallback\n    fallback() external payable {\n        fund(msg.value);\n    }\n    \n    // MSJ: Fallback\n    receive() external payable {\n        fund(msg.value);\n    }\n\n}\n\n",
  "sourcePath": "C:\\Users\\marco\\Documents\\bc_proj\\ud-bcnd-project-4\\contracts\\FlightSuretyData.sol",
  "compiler": {
    "name": "solc",
    "version": "0.6.2+commit.bacdbe57.Emscripten.clang"
  },
  "schemaVersion": "3.0.23",
  "updatedAt": "2020-07-04T08:09:04.279Z",
  "networkType": "ethereum",
  "devdoc": {
    "methods": {}
  },
  "userdoc": {
    "methods": {
      "constructor": "*****************************************************************************************",
      "isOperational()": {
        "notice": "*****************************************************************************************"
      },
      "registerAirline(address,address)": {
        "notice": "*****************************************************************************************"
      }
    }
  }
}