{
  "contractName": "FlightSuretyApp",
  "abi": [
    {
      "inputs": [
        {
          "internalType": "address payable",
          "name": "dataContract",
          "type": "address"
        }
      ],
      "stateMutability": "nonpayable",
      "type": "constructor"
    },
    {
      "anonymous": false,
      "inputs": [
        {
          "indexed": false,
          "internalType": "address",
          "name": "queued",
          "type": "address"
        },
        {
          "indexed": false,
          "internalType": "address",
          "name": "registerer",
          "type": "address"
        }
      ],
      "name": "AirlineRegistrationQueued",
      "type": "event"
    },
    {
      "anonymous": false,
      "inputs": [
        {
          "indexed": false,
          "internalType": "address",
          "name": "passenger",
          "type": "address"
        },
        {
          "indexed": false,
          "internalType": "uint256",
          "name": "amount",
          "type": "uint256"
        }
      ],
      "name": "CreditsWithdrawn",
      "type": "event"
    },
    {
      "anonymous": false,
      "inputs": [
        {
          "indexed": false,
          "internalType": "string",
          "name": "flight",
          "type": "string"
        },
        {
          "indexed": false,
          "internalType": "uint256",
          "name": "timestamp",
          "type": "uint256"
        },
        {
          "indexed": false,
          "internalType": "address",
          "name": "airline",
          "type": "address"
        }
      ],
      "name": "FlightRegistered",
      "type": "event"
    },
    {
      "anonymous": false,
      "inputs": [
        {
          "indexed": false,
          "internalType": "address",
          "name": "airline",
          "type": "address"
        },
        {
          "indexed": false,
          "internalType": "string",
          "name": "flight",
          "type": "string"
        },
        {
          "indexed": false,
          "internalType": "uint256",
          "name": "timestamp",
          "type": "uint256"
        },
        {
          "indexed": false,
          "internalType": "uint8",
          "name": "status",
          "type": "uint8"
        }
      ],
      "name": "FlightStatusInfo",
      "type": "event"
    },
    {
      "anonymous": false,
      "inputs": [
        {
          "indexed": false,
          "internalType": "address",
          "name": "airline",
          "type": "address"
        },
        {
          "indexed": false,
          "internalType": "string",
          "name": "flight",
          "type": "string"
        },
        {
          "indexed": false,
          "internalType": "uint256",
          "name": "timestamp",
          "type": "uint256"
        },
        {
          "indexed": false,
          "internalType": "uint8",
          "name": "statusCode",
          "type": "uint8"
        }
      ],
      "name": "FlightStatusUpdated",
      "type": "event"
    },
    {
      "anonymous": false,
      "inputs": [
        {
          "indexed": false,
          "internalType": "address",
          "name": "airline",
          "type": "address"
        },
        {
          "indexed": false,
          "internalType": "string",
          "name": "flight",
          "type": "string"
        },
        {
          "indexed": false,
          "internalType": "uint256",
          "name": "timestamp",
          "type": "uint256"
        },
        {
          "indexed": false,
          "internalType": "uint8",
          "name": "status",
          "type": "uint8"
        }
      ],
      "name": "OracleReport",
      "type": "event"
    },
    {
      "anonymous": false,
      "inputs": [
        {
          "indexed": false,
          "internalType": "uint8",
          "name": "index",
          "type": "uint8"
        },
        {
          "indexed": false,
          "internalType": "address",
          "name": "airline",
          "type": "address"
        },
        {
          "indexed": false,
          "internalType": "string",
          "name": "flight",
          "type": "string"
        },
        {
          "indexed": false,
          "internalType": "uint256",
          "name": "timestamp",
          "type": "uint256"
        }
      ],
      "name": "OracleRequest",
      "type": "event"
    },
    {
      "anonymous": false,
      "inputs": [
        {
          "indexed": false,
          "internalType": "address",
          "name": "voted",
          "type": "address"
        },
        {
          "indexed": false,
          "internalType": "address",
          "name": "voter",
          "type": "address"
        }
      ],
      "name": "VotedForAirline",
      "type": "event"
    },
    {
      "inputs": [],
      "name": "REGISTRATION_FEE",
      "outputs": [
        {
          "internalType": "uint256",
          "name": "",
          "type": "uint256"
        }
      ],
      "stateMutability": "view",
      "type": "function",
      "constant": true
    },
    {
      "inputs": [],
      "name": "isOperational",
      "outputs": [
        {
          "internalType": "bool",
          "name": "",
          "type": "bool"
        }
      ],
      "stateMutability": "view",
      "type": "function",
      "constant": true
    },
    {
      "inputs": [],
      "name": "getAirlinesRegistration",
      "outputs": [
        {
          "internalType": "address[]",
          "name": "",
          "type": "address[]"
        }
      ],
      "stateMutability": "view",
      "type": "function",
      "constant": true
    },
    {
      "inputs": [],
      "name": "getAirlinesFunded",
      "outputs": [
        {
          "internalType": "address[]",
          "name": "",
          "type": "address[]"
        }
      ],
      "stateMutability": "view",
      "type": "function",
      "constant": true
    },
    {
      "inputs": [],
      "name": "getQueued",
      "outputs": [
        {
          "internalType": "address[]",
          "name": "",
          "type": "address[]"
        }
      ],
      "stateMutability": "view",
      "type": "function",
      "constant": true
    },
    {
      "inputs": [
        {
          "internalType": "address",
          "name": "airline",
          "type": "address"
        }
      ],
      "name": "isAirlineQueued",
      "outputs": [
        {
          "internalType": "bool",
          "name": "",
          "type": "bool"
        }
      ],
      "stateMutability": "view",
      "type": "function",
      "constant": true
    },
    {
      "inputs": [
        {
          "internalType": "address",
          "name": "airline",
          "type": "address"
        }
      ],
      "name": "getVotes",
      "outputs": [
        {
          "internalType": "uint256",
          "name": "",
          "type": "uint256"
        }
      ],
      "stateMutability": "view",
      "type": "function",
      "constant": true
    },
    {
      "inputs": [
        {
          "internalType": "address",
          "name": "applicant",
          "type": "address"
        }
      ],
      "name": "registerAirline",
      "outputs": [],
      "stateMutability": "nonpayable",
      "type": "function"
    },
    {
      "inputs": [
        {
          "internalType": "address",
          "name": "applicant",
          "type": "address"
        }
      ],
      "name": "voteForAirline",
      "outputs": [],
      "stateMutability": "nonpayable",
      "type": "function"
    },
    {
      "inputs": [],
      "name": "submitFunding",
      "outputs": [],
      "stateMutability": "payable",
      "type": "function",
      "payable": true
    },
    {
      "inputs": [
        {
          "internalType": "string",
          "name": "flight",
          "type": "string"
        },
        {
          "internalType": "uint256",
          "name": "timestamp",
          "type": "uint256"
        }
      ],
      "name": "registerFlight",
      "outputs": [],
      "stateMutability": "nonpayable",
      "type": "function"
    },
    {
      "inputs": [
        {
          "internalType": "string",
          "name": "flight",
          "type": "string"
        },
        {
          "internalType": "address",
          "name": "airline",
          "type": "address"
        },
        {
          "internalType": "uint256",
          "name": "timestamp",
          "type": "uint256"
        }
      ],
      "name": "purchaseFlightInsurance",
      "outputs": [],
      "stateMutability": "payable",
      "type": "function",
      "payable": true
    },
    {
      "inputs": [
        {
          "internalType": "address",
          "name": "airline",
          "type": "address"
        },
        {
          "internalType": "string",
          "name": "flight",
          "type": "string"
        },
        {
          "internalType": "uint256",
          "name": "timestamp",
          "type": "uint256"
        }
      ],
      "name": "fetchFlightStatus",
      "outputs": [],
      "stateMutability": "nonpayable",
      "type": "function"
    },
    {
      "inputs": [],
      "name": "withdrawFunds",
      "outputs": [],
      "stateMutability": "nonpayable",
      "type": "function"
    },
    {
      "inputs": [],
      "name": "getContractBalance",
      "outputs": [
        {
          "internalType": "uint256",
          "name": "",
          "type": "uint256"
        }
      ],
      "stateMutability": "nonpayable",
      "type": "function"
    },
    {
      "inputs": [],
      "name": "getPassengerFunds",
      "outputs": [
        {
          "internalType": "uint256",
          "name": "",
          "type": "uint256"
        }
      ],
      "stateMutability": "payable",
      "type": "function",
      "payable": true
    },
    {
      "inputs": [],
      "name": "registerOracle",
      "outputs": [],
      "stateMutability": "payable",
      "type": "function",
      "payable": true
    },
    {
      "inputs": [],
      "name": "getMyIndexes",
      "outputs": [
        {
          "internalType": "uint8[3]",
          "name": "",
          "type": "uint8[3]"
        }
      ],
      "stateMutability": "view",
      "type": "function",
      "constant": true
    },
    {
      "inputs": [
        {
          "internalType": "uint8",
          "name": "index",
          "type": "uint8"
        },
        {
          "internalType": "address",
          "name": "airline",
          "type": "address"
        },
        {
          "internalType": "string",
          "name": "flight",
          "type": "string"
        },
        {
          "internalType": "uint256",
          "name": "timestamp",
          "type": "uint256"
        },
        {
          "internalType": "uint8",
          "name": "statusCode",
          "type": "uint8"
        }
      ],
      "name": "submitOracleResponse",
      "outputs": [],
      "stateMutability": "nonpayable",
      "type": "function"
    },
    {
      "inputs": [
        {
          "internalType": "address",
          "name": "airline",
          "type": "address"
        },
        {
          "internalType": "string",
          "name": "flight",
          "type": "string"
        },
        {
          "internalType": "uint256",
          "name": "timestamp",
          "type": "uint256"
        },
        {
          "internalType": "uint8",
          "name": "statusCode",
          "type": "uint8"
        }
      ],
      "name": "processFlightStatus",
      "outputs": [],
      "stateMutability": "nonpayable",
      "type": "function"
    }
  ],
  "bytecode": "0x60806040526000600460006101000a81548160ff021916908360ff16021790555034801561002c57600080fd5b50604051613bb0380380613bb08339818101604052602081101561004f57600080fd5b810190808051906020019092919050505033600160006101000a81548173ffffffffffffffffffffffffffffffffffffffff021916908373ffffffffffffffffffffffffffffffffffffffff160217905550806000806101000a81548173ffffffffffffffffffffffffffffffffffffffff021916908373ffffffffffffffffffffffffffffffffffffffff16021790555050613abf806100f16000396000f3fe60806040526004361061011f5760003560e01c80637a600242116100a0578063cd905dff11610064578063cd905dff1461069a578063db994260146106c9578063e7bdde3b146106e7578063f83f11c0146107a4578063fbfa0c2e146108545761011f565b80637a600242146104a45780639ab24eb014610510578063bdfd987714610575578063c10f2700146105c6578063c52c6d7f146106905761011f565b80635c97fe35116100e75780635c97fe35146102ec5780635f1cc0e61461035857806364b4f751146103ab5780636e750d02146103d65780636f9fb98a146104795761011f565b80631bf642f11461012457806324600fc314610190578063339d2590146101a757806339cfc995146101b15780635719424b14610283575b600080fd5b34801561013057600080fd5b506101396108a5565b6040518080602001828103825283818151815260200191508051906020019060200280838360005b8381101561017c578082015181840152602081019050610161565b505050509050019250505060405180910390f35b34801561019c57600080fd5b506101a5610933565b005b6101af610d0c565b005b3480156101bd57600080fd5b50610281600480360360408110156101d457600080fd5b81019080803590602001906401000000008111156101f157600080fd5b82018360208201111561020357600080fd5b8035906020019184600183028401116401000000008311171561022557600080fd5b91908080601f016020809104026020016040519081016040528093929190818152602001838380828437600081840152601f19601f82011690508083019250505050505050919291929080359060200190929190505050610f29565b005b34801561028f57600080fd5b506102d2600480360360208110156102a657600080fd5b81019080803573ffffffffffffffffffffffffffffffffffffffff169060200190929190505050611132565b604051808215151515815260200191505060405180910390f35b3480156102f857600080fd5b5061030161118b565b6040518080602001828103825283818151815260200191508051906020019060200280838360005b83811015610344578082015181840152602081019050610329565b505050509050019250505060405180910390f35b34801561036457600080fd5b5061036d6112d3565b6040518082600360200280838360005b8381101561039857808201518184015260208101905061037d565b5050505090500191505060405180910390f35b3480156103b757600080fd5b506103c0611446565b6040518082815260200191505060405180910390f35b610477600480360360608110156103ec57600080fd5b810190808035906020019064010000000081111561040957600080fd5b82018360208201111561041b57600080fd5b8035906020019184600183028401116401000000008311171561043d57600080fd5b9091929391929390803573ffffffffffffffffffffffffffffffffffffffff16906020019092919080359060200190929190505050611452565b005b34801561048557600080fd5b5061048e61161a565b6040518082815260200191505060405180910390f35b3480156104b057600080fd5b506104b96117bc565b6040518080602001828103825283818151815260200191508051906020019060200280838360005b838110156104fc5780820151818401526020810190506104e1565b505050509050019250505060405180910390f35b34801561051c57600080fd5b5061055f6004803603602081101561053357600080fd5b81019080803573ffffffffffffffffffffffffffffffffffffffff169060200190929190505050611904565b6040518082815260200191505060405180910390f35b34801561058157600080fd5b506105c46004803603602081101561059857600080fd5b81019080803573ffffffffffffffffffffffffffffffffffffffff169060200190929190505050611950565b005b3480156105d257600080fd5b5061068e600480360360a08110156105e957600080fd5b81019080803560ff169060200190929190803573ffffffffffffffffffffffffffffffffffffffff1690602001909291908035906020019064010000000081111561063357600080fd5b82018360208201111561064557600080fd5b8035906020019184600183028401116401000000008311171561066757600080fd5b909192939192939080359060200190929190803560ff169060200190929190505050611dae565b005b61069861262d565b005b3480156106a657600080fd5b506106af61276c565b604051808215151515815260200191505060405180910390f35b6106d1612815565b6040518082815260200191505060405180910390f35b3480156106f357600080fd5b506107a26004803603608081101561070a57600080fd5b81019080803573ffffffffffffffffffffffffffffffffffffffff1690602001909291908035906020019064010000000081111561074757600080fd5b82018360208201111561075957600080fd5b8035906020019184600183028401116401000000008311171561077b57600080fd5b909192939192939080359060200190929190803560ff1690602001909291905050506129ee565b005b3480156107b057600080fd5b50610852600480360360608110156107c757600080fd5b81019080803573ffffffffffffffffffffffffffffffffffffffff1690602001909291908035906020019064010000000081111561080457600080fd5b82018360208201111561081657600080fd5b8035906020019184600183028401116401000000008311171561083857600080fd5b909192939192939080359060200190929190505050612da6565b005b34801561086057600080fd5b506108a36004803603602081101561087757600080fd5b81019080803573ffffffffffffffffffffffffffffffffffffffff169060200190929190505050612f97565b005b6060600380548060200260200160405190810160405280929190818152602001828054801561092957602002820191906000526020600020905b8160009054906101000a900473ffffffffffffffffffffffffffffffffffffffff1673ffffffffffffffffffffffffffffffffffffffff16815260200190600101908083116108df575b5050505050905090565b6000809054906101000a900473ffffffffffffffffffffffffffffffffffffffff1673ffffffffffffffffffffffffffffffffffffffff1663cd905dff6040518163ffffffff1660e01b815260040160206040518083038186803b15801561099a57600080fd5b505afa1580156109ae573d6000803e3d6000fd5b505050506040513d60208110156109c457600080fd5b8101908080519060200190929190505050610a2a576040517f08c379a0000000000000000000000000000000000000000000000000000000008152600401808060200182810382526025815260200180613a426025913960400191505060405180910390fd5b60008060009054906101000a900473ffffffffffffffffffffffffffffffffffffffff1673ffffffffffffffffffffffffffffffffffffffff1663fd59025e336040518263ffffffff1660e01b8152600401808273ffffffffffffffffffffffffffffffffffffffff1673ffffffffffffffffffffffffffffffffffffffff16815260200191505060206040518083038186803b158015610aca57600080fd5b505afa158015610ade573d6000803e3d6000fd5b505050506040513d6020811015610af457600080fd5b810190808051906020019092919050505011610b78576040517f08c379a000000000000000000000000000000000000000000000000000000000815260040180806020018281038252600d8152602001807f496e73756666696369656e742e0000000000000000000000000000000000000081525060200191505060405180910390fd5b60008060009054906101000a900473ffffffffffffffffffffffffffffffffffffffff1673ffffffffffffffffffffffffffffffffffffffff16630c11dedd336040518263ffffffff1660e01b8152600401808273ffffffffffffffffffffffffffffffffffffffff1673ffffffffffffffffffffffffffffffffffffffff168152602001915050602060405180830381600087803b158015610c1a57600080fd5b505af1158015610c2e573d6000803e3d6000fd5b505050506040513d6020811015610c4457600080fd5b810190808051906020019092919050505090503373ffffffffffffffffffffffffffffffffffffffff166108fc829081150290604051600060405180830381858888f19350505050158015610c9d573d6000803e3d6000fd5b507fbf02738f72225271246afb262c204871c038924a9baf1e506bbb624688a1e84f3382604051808373ffffffffffffffffffffffffffffffffffffffff1673ffffffffffffffffffffffffffffffffffffffff1681526020018281526020019250505060405180910390a150565b6000809054906101000a900473ffffffffffffffffffffffffffffffffffffffff1673ffffffffffffffffffffffffffffffffffffffff1663cd905dff6040518163ffffffff1660e01b815260040160206040518083038186803b158015610d7357600080fd5b505afa158015610d87573d6000803e3d6000fd5b505050506040513d6020811015610d9d57600080fd5b8101908080519060200190929190505050610e03576040517f08c379a0000000000000000000000000000000000000000000000000000000008152600401808060200182810382526025815260200180613a426025913960400191505060405180910390fd5b670de0b6b3a7640000341015610e81576040517f08c379a000000000000000000000000000000000000000000000000000000000815260040180806020018281038252601c8152602001807f526567697374726174696f6e206665652069732072657175697265640000000081525060200191505060405180910390fd5b610e89613856565b610e9233613386565b9050604051806040016040528060011515815260200182815250600560003373ffffffffffffffffffffffffffffffffffffffff1673ffffffffffffffffffffffffffffffffffffffff16815260200190815260200160002060008201518160000160006101000a81548160ff021916908315150217905550602082015181600101906003610f22929190613878565b5090505050565b6000809054906101000a900473ffffffffffffffffffffffffffffffffffffffff1673ffffffffffffffffffffffffffffffffffffffff166365c152f78383336040518463ffffffff1660e01b815260040180806020018481526020018373ffffffffffffffffffffffffffffffffffffffff1673ffffffffffffffffffffffffffffffffffffffff168152602001828103825285818151815260200191508051906020019080838360005b83811015610ff0578082015181840152602081019050610fd5565b50505050905090810190601f16801561101d5780820380516001836020036101000a031916815260200191505b50945050505050600060405180830381600087803b15801561103e57600080fd5b505af1158015611052573d6000803e3d6000fd5b505050507f7e9c226ac5d85c5e088472aea4786ad32703535448a2c13a5963ff836b91551f82823360405180806020018481526020018373ffffffffffffffffffffffffffffffffffffffff1673ffffffffffffffffffffffffffffffffffffffff168152602001828103825285818151815260200191508051906020019080838360005b838110156110f25780820151818401526020810190506110d7565b50505050905090810190601f16801561111f5780820380516001836020036101000a031916815260200191505b5094505050505060405180910390a15050565b6000600260008373ffffffffffffffffffffffffffffffffffffffff1673ffffffffffffffffffffffffffffffffffffffff16815260200190815260200160002060020160009054906101000a900460ff169050919050565b6060806000809054906101000a900473ffffffffffffffffffffffffffffffffffffffff1673ffffffffffffffffffffffffffffffffffffffff16631cebb54d6040518163ffffffff1660e01b815260040160006040518083038186803b1580156111f557600080fd5b505afa158015611209573d6000803e3d6000fd5b505050506040513d6000823e3d601f19601f82011682018060405250602081101561123357600080fd5b810190808051604051939291908464010000000082111561125357600080fd5b8382019150602082018581111561126957600080fd5b825186602082028301116401000000008211171561128657600080fd5b8083526020830192505050908051906020019060200280838360005b838110156112bd5780820151818401526020810190506112a2565b5050505090500160405250505090508091505090565b6112db613856565b600560003373ffffffffffffffffffffffffffffffffffffffff1673ffffffffffffffffffffffffffffffffffffffff16815260200190815260200160002060000160009054906101000a900460ff1661139d576040517f08c379a000000000000000000000000000000000000000000000000000000000815260040180806020018281038252601b8152602001807f4e6f74207265676973746572656420617320616e206f7261636c65000000000081525060200191505060405180910390fd5b600560003373ffffffffffffffffffffffffffffffffffffffff1673ffffffffffffffffffffffffffffffffffffffff16815260200190815260200160002060010160038060200260405190810160405280929190826003801561143c576020028201916000905b82829054906101000a900460ff1660ff16815260200190600101906020826000010492830192600103820291508084116114055790505b5050505050905090565b670de0b6b3a764000081565b60003411801561146a5750670de0b6b3a76400003411155b6114bf576040517f08c379a00000000000000000000000000000000000000000000000000000000081526004018080602001828103825260458152602001806139726045913960600191505060405180910390fd5b6000809054906101000a900473ffffffffffffffffffffffffffffffffffffffff1673ffffffffffffffffffffffffffffffffffffffff16638c9f1afe343387878787346040518863ffffffff1660e01b8152600401808773ffffffffffffffffffffffffffffffffffffffff1673ffffffffffffffffffffffffffffffffffffffff168152602001806020018573ffffffffffffffffffffffffffffffffffffffff1673ffffffffffffffffffffffffffffffffffffffff1681526020018481526020018381526020018281038252878782818152602001925080828437600081840152601f19601f8201169050808301925050509750505050505050506020604051808303818588803b1580156115d757600080fd5b505af11580156115eb573d6000803e3d6000fd5b50505050506040513d602081101561160257600080fd5b81019080805190602001909291905050505050505050565b60008060009054906101000a900473ffffffffffffffffffffffffffffffffffffffff1673ffffffffffffffffffffffffffffffffffffffff1663cd905dff6040518163ffffffff1660e01b815260040160206040518083038186803b15801561168357600080fd5b505afa158015611697573d6000803e3d6000fd5b505050506040513d60208110156116ad57600080fd5b8101908080519060200190929190505050611713576040517f08c379a0000000000000000000000000000000000000000000000000000000008152600401808060200182810382526025815260200180613a426025913960400191505060405180910390fd5b6000809054906101000a900473ffffffffffffffffffffffffffffffffffffffff1673ffffffffffffffffffffffffffffffffffffffff16636f9fb98a6040518163ffffffff1660e01b8152600401602060405180830381600087803b15801561177c57600080fd5b505af1158015611790573d6000803e3d6000fd5b505050506040513d60208110156117a657600080fd5b8101908080519060200190929190505050905090565b6060806000809054906101000a900473ffffffffffffffffffffffffffffffffffffffff1673ffffffffffffffffffffffffffffffffffffffff16637a6002426040518163ffffffff1660e01b815260040160006040518083038186803b15801561182657600080fd5b505afa15801561183a573d6000803e3d6000fd5b505050506040513d6000823e3d601f19601f82011682018060405250602081101561186457600080fd5b810190808051604051939291908464010000000082111561188457600080fd5b8382019150602082018581111561189a57600080fd5b82518660208202830111640100000000821117156118b757600080fd5b8083526020830192505050908051906020019060200280838360005b838110156118ee5780820151818401526020810190506118d3565b5050505090500160405250505090508091505090565b6000600260008373ffffffffffffffffffffffffffffffffffffffff1673ffffffffffffffffffffffffffffffffffffffff168152602001908152602001600020600101549050919050565b60606000809054906101000a900473ffffffffffffffffffffffffffffffffffffffff1673ffffffffffffffffffffffffffffffffffffffff16637a6002426040518163ffffffff1660e01b815260040160006040518083038186803b1580156119b957600080fd5b505afa1580156119cd573d6000803e3d6000fd5b505050506040513d6000823e3d601f19601f8201168201806040525060208110156119f757600080fd5b8101908080516040519392919084640100000000821115611a1757600080fd5b83820191506020820185811115611a2d57600080fd5b8251866020820283011164010000000082111715611a4a57600080fd5b8083526020830192505050908051906020019060200280838360005b83811015611a81578082015181840152602081019050611a66565b505050509050016040525050509050600581511015611b8b576000809054906101000a900473ffffffffffffffffffffffffffffffffffffffff1673ffffffffffffffffffffffffffffffffffffffff1663c7ba501883336040518363ffffffff1660e01b8152600401808373ffffffffffffffffffffffffffffffffffffffff1673ffffffffffffffffffffffffffffffffffffffff1681526020018273ffffffffffffffffffffffffffffffffffffffff1673ffffffffffffffffffffffffffffffffffffffff16815260200192505050600060405180830381600087803b158015611b6e57600080fd5b505af1158015611b82573d6000803e3d6000fd5b50505050611daa565b33600260008473ffffffffffffffffffffffffffffffffffffffff1673ffffffffffffffffffffffffffffffffffffffff16815260200190815260200160002060000160006101000a81548173ffffffffffffffffffffffffffffffffffffffff021916908373ffffffffffffffffffffffffffffffffffffffff1602179055506000600260008473ffffffffffffffffffffffffffffffffffffffff1673ffffffffffffffffffffffffffffffffffffffff168152602001908152602001600020600101819055506001600260008473ffffffffffffffffffffffffffffffffffffffff1673ffffffffffffffffffffffffffffffffffffffff16815260200190815260200160002060020160006101000a81548160ff0219169083151502179055506003829080600181540180825580915050600190039060005260206000200160009091909190916101000a81548173ffffffffffffffffffffffffffffffffffffffff021916908373ffffffffffffffffffffffffffffffffffffffff1602179055507fc243c0fd676d7d4d8475225a652beb9dbda28e69857257332eb01b7e01156f958233604051808373ffffffffffffffffffffffffffffffffffffffff1673ffffffffffffffffffffffffffffffffffffffff1681526020018273ffffffffffffffffffffffffffffffffffffffff1673ffffffffffffffffffffffffffffffffffffffff1681526020019250505060405180910390a15b5050565b8560ff16600560003373ffffffffffffffffffffffffffffffffffffffff1673ffffffffffffffffffffffffffffffffffffffff168152602001908152602001600020600101600060038110611e0057fe5b602091828204019190069054906101000a900460ff1660ff161480611e8d57508560ff16600560003373ffffffffffffffffffffffffffffffffffffffff1673ffffffffffffffffffffffffffffffffffffffff168152602001908152602001600020600101600160038110611e7257fe5b602091828204019190069054906101000a900460ff1660ff16145b80611f0057508560ff16600560003373ffffffffffffffffffffffffffffffffffffffff1673ffffffffffffffffffffffffffffffffffffffff168152602001908152602001600020600101600260038110611ee557fe5b602091828204019190069054906101000a900460ff1660ff16145b611f55576040517f08c379a0000000000000000000000000000000000000000000000000000000008152600401808060200182810382526023815260200180613a676023913960400191505060405180910390fd5b60008686868686604051602001808660ff1660ff1660f81b81526001018573ffffffffffffffffffffffffffffffffffffffff1673ffffffffffffffffffffffffffffffffffffffff1660601b815260140184848082843780830192505050828152602001955050505050506040516020818303038152906040528051906020012090506006600082815260200190815260200160002060000160149054906101000a900460ff16612052576040517f08c379a000000000000000000000000000000000000000000000000000000000815260040180806020018281038252602f815260200180613943602f913960400191505060405180910390fd5b6006600082815260200190815260200160002060010160008360ff1660ff168152602001908152602001600020339080600181540180825580915050600190039060005260206000200160009091909190916101000a81548173ffffffffffffffffffffffffffffffffffffffff021916908373ffffffffffffffffffffffffffffffffffffffff1602179055507f43c853095c2752648493c88b4baac4d580d2594ffb00c6f1d4242d844514f7838686868686604051808673ffffffffffffffffffffffffffffffffffffffff1673ffffffffffffffffffffffffffffffffffffffff168152602001806020018481526020018360ff1660ff1681526020018281038252868682818152602001925080828437600081840152601f19601f820116905080830192505050965050505050505060405180910390a160036006600083815260200190815260200160002060010160008460ff1660ff1681526020019081526020016000208054905010612624577fe23f5229de535c091e3b7bec2665f5d698192d3b31393066e8987b7a05076b6c8686868686604051808673ffffffffffffffffffffffffffffffffffffffff1673ffffffffffffffffffffffffffffffffffffffff168152602001806020018481526020018360ff1660ff1681526020018281038252868682818152602001925080828437600081840152601f19601f820116905080830192505050965050505050505060405180910390a160006122c38787878080601f016020809104026020016040519081016040528093929190818152602001838380828437600081840152601f19601f8201169050808301925050505050505086613512565b90506000809054906101000a900473ffffffffffffffffffffffffffffffffffffffff1673ffffffffffffffffffffffffffffffffffffffff1663bf4a7b8782856040518363ffffffff1660e01b8152600401808381526020018260ff1660ff16815260200192505050600060405180830381600087803b15801561234757600080fd5b505af115801561235b573d6000803e3d6000fd5b5050505060008060009054906101000a900473ffffffffffffffffffffffffffffffffffffffff1673ffffffffffffffffffffffffffffffffffffffff1663b881c41f836040518263ffffffff1660e01b81526004018082815260200191505060206040518083038186803b1580156123d357600080fd5b505afa1580156123e7573d6000803e3d6000fd5b505050506040513d60208110156123fd57600080fd5b81019080805190602001909291905050509050600060ff168160ff161415612470576040517f08c379a0000000000000000000000000000000000000000000000000000000008152600401808060200182810382526042815260200180613a006042913960600191505060405180910390fd5b601460ff168160ff161415612574576000809054906101000a900473ffffffffffffffffffffffffffffffffffffffff1673ffffffffffffffffffffffffffffffffffffffff1663c8820a70898989896040518563ffffffff1660e01b8152600401808573ffffffffffffffffffffffffffffffffffffffff1673ffffffffffffffffffffffffffffffffffffffff168152602001806020018381526020018281038252858582818152602001925080828437600081840152601f19601f82011690508083019250505095505050505050600060405180830381600087803b15801561255b57600080fd5b505af115801561256f573d6000803e3d6000fd5b505050505b7f3f8930fd52e84bc32c0c2e5d060a9cfa59066160d5197e39f17d16ebbcaa7db68888888888604051808673ffffffffffffffffffffffffffffffffffffffff1673ffffffffffffffffffffffffffffffffffffffff168152602001806020018481526020018360ff1660ff1681526020018281038252868682818152602001925080828437600081840152601f19601f820116905080830192505050965050505050505060405180910390a150505b50505050505050565b678ac7230489e80000341461268d576040517f08c379a00000000000000000000000000000000000000000000000000000000081526004018080602001828103825260498152602001806139b76049913960600191505060405180910390fd5b6000809054906101000a900473ffffffffffffffffffffffffffffffffffffffff1673ffffffffffffffffffffffffffffffffffffffff16635ac3b4f434336040518363ffffffff1660e01b8152600401808273ffffffffffffffffffffffffffffffffffffffff1673ffffffffffffffffffffffffffffffffffffffff1681526020019150506020604051808303818588803b15801561272d57600080fd5b505af1158015612741573d6000803e3d6000fd5b50505050506040513d602081101561275857600080fd5b810190808051906020019092919050505050565b60008060009054906101000a900473ffffffffffffffffffffffffffffffffffffffff1673ffffffffffffffffffffffffffffffffffffffff1663cd905dff6040518163ffffffff1660e01b815260040160206040518083038186803b1580156127d557600080fd5b505afa1580156127e9573d6000803e3d6000fd5b505050506040513d60208110156127ff57600080fd5b8101908080519060200190929190505050905090565b60008060009054906101000a900473ffffffffffffffffffffffffffffffffffffffff1673ffffffffffffffffffffffffffffffffffffffff1663cd905dff6040518163ffffffff1660e01b815260040160206040518083038186803b15801561287e57600080fd5b505afa158015612892573d6000803e3d6000fd5b505050506040513d60208110156128a857600080fd5b810190808051906020019092919050505061290e576040517f08c379a0000000000000000000000000000000000000000000000000000000008152600401808060200182810382526025815260200180613a426025913960400191505060405180910390fd5b6000809054906101000a900473ffffffffffffffffffffffffffffffffffffffff1673ffffffffffffffffffffffffffffffffffffffff166345d29b92336040518263ffffffff1660e01b8152600401808273ffffffffffffffffffffffffffffffffffffffff1673ffffffffffffffffffffffffffffffffffffffff168152602001915050602060405180830381600087803b1580156129ae57600080fd5b505af11580156129c2573d6000803e3d6000fd5b505050506040513d60208110156129d857600080fd5b8101908080519060200190929190505050905090565b6000612a3f8686868080601f016020809104026020016040519081016040528093929190818152602001838380828437600081840152601f19601f8201169050808301925050505050505085613512565b90506000809054906101000a900473ffffffffffffffffffffffffffffffffffffffff1673ffffffffffffffffffffffffffffffffffffffff1663bf4a7b8782846040518363ffffffff1660e01b8152600401808381526020018260ff1660ff16815260200192505050600060405180830381600087803b158015612ac357600080fd5b505af1158015612ad7573d6000803e3d6000fd5b5050505060008060009054906101000a900473ffffffffffffffffffffffffffffffffffffffff1673ffffffffffffffffffffffffffffffffffffffff1663b881c41f836040518263ffffffff1660e01b81526004018082815260200191505060206040518083038186803b158015612b4f57600080fd5b505afa158015612b63573d6000803e3d6000fd5b505050506040513d6020811015612b7957600080fd5b81019080805190602001909291905050509050600060ff168160ff161415612bec576040517f08c379a0000000000000000000000000000000000000000000000000000000008152600401808060200182810382526042815260200180613a006042913960600191505060405180910390fd5b601460ff168160ff161415612cf0576000809054906101000a900473ffffffffffffffffffffffffffffffffffffffff1673ffffffffffffffffffffffffffffffffffffffff1663c8820a70888888886040518563ffffffff1660e01b8152600401808573ffffffffffffffffffffffffffffffffffffffff1673ffffffffffffffffffffffffffffffffffffffff168152602001806020018381526020018281038252858582818152602001925080828437600081840152601f19601f82011690508083019250505095505050505050600060405180830381600087803b158015612cd757600080fd5b505af1158015612ceb573d6000803e3d6000fd5b505050505b7f3f8930fd52e84bc32c0c2e5d060a9cfa59066160d5197e39f17d16ebbcaa7db68787878787604051808673ffffffffffffffffffffffffffffffffffffffff1673ffffffffffffffffffffffffffffffffffffffff168152602001806020018481526020018360ff1660ff1681526020018281038252868682818152602001925080828437600081840152601f19601f820116905080830192505050965050505050505060405180910390a150505050505050565b6000612db1336135ce565b905060008186868686604051602001808660ff1660ff1660f81b81526001018573ffffffffffffffffffffffffffffffffffffffff1673ffffffffffffffffffffffffffffffffffffffff1660601b8152601401848480828437808301925050508281526020019550505050505060405160208183030381529060405280519060200120905060405180604001604052803373ffffffffffffffffffffffffffffffffffffffff168152602001600115158152506006600083815260200190815260200160002060008201518160000160006101000a81548173ffffffffffffffffffffffffffffffffffffffff021916908373ffffffffffffffffffffffffffffffffffffffff16021790555060208201518160000160146101000a81548160ff0219169083151502179055509050507f3ed01f2c3fc24c6b329d931e35b03e390d23497d22b3f90e15b600343e93df118287878787604051808660ff1660ff1681526020018573ffffffffffffffffffffffffffffffffffffffff1673ffffffffffffffffffffffffffffffffffffffff168152602001806020018381526020018281038252858582818152602001925080828437600081840152601f19601f820116905080830192505050965050505050505060405180910390a1505050505050565b60606000809054906101000a900473ffffffffffffffffffffffffffffffffffffffff1673ffffffffffffffffffffffffffffffffffffffff16631cebb54d6040518163ffffffff1660e01b815260040160006040518083038186803b15801561300057600080fd5b505afa158015613014573d6000803e3d6000fd5b505050506040513d6000823e3d601f19601f82011682018060405250602081101561303e57600080fd5b810190808051604051939291908464010000000082111561305e57600080fd5b8382019150602082018581111561307457600080fd5b825186602082028301116401000000008211171561309157600080fd5b8083526020830192505050908051906020019060200280838360005b838110156130c85780820151818401526020810190506130ad565b50505050905001604052505050905060008151905060006130f36002836136be90919063ffffffff16565b90506000600260008673ffffffffffffffffffffffffffffffffffffffff1673ffffffffffffffffffffffffffffffffffffffff16815260200190815260200160002060010154905061315060018261370890919063ffffffff16565b905080600260008773ffffffffffffffffffffffffffffffffffffffff1673ffffffffffffffffffffffffffffffffffffffff168152602001908152602001600020600101819055508181106132e8576000809054906101000a900473ffffffffffffffffffffffffffffffffffffffff1673ffffffffffffffffffffffffffffffffffffffff1663c7ba501886336040518363ffffffff1660e01b8152600401808373ffffffffffffffffffffffffffffffffffffffff1673ffffffffffffffffffffffffffffffffffffffff1681526020018273ffffffffffffffffffffffffffffffffffffffff1673ffffffffffffffffffffffffffffffffffffffff16815260200192505050600060405180830381600087803b15801561327457600080fd5b505af1158015613288573d6000803e3d6000fd5b505050506000600260008773ffffffffffffffffffffffffffffffffffffffff1673ffffffffffffffffffffffffffffffffffffffff16815260200190815260200160002060020160006101000a81548160ff0219169083151502179055505b7f0fedfc31f1666875352b0f56bae76d940988f8ebcd7cb91dbf074384957198e78533604051808373ffffffffffffffffffffffffffffffffffffffff1673ffffffffffffffffffffffffffffffffffffffff1681526020018273ffffffffffffffffffffffffffffffffffffffff1673ffffffffffffffffffffffffffffffffffffffff1681526020019250505060405180910390a15050505050565b61338e613856565b613396613856565b61339f836135ce565b816000600381106133ac57fe5b602002019060ff16908160ff1681525050806000600381106133ca57fe5b6020020151816001600381106133dc57fe5b602002019060ff16908160ff16815250505b806000600381106133fb57fe5b602002015160ff168160016003811061341057fe5b602002015160ff16141561344a57613427836135ce565b8160016003811061343457fe5b602002019060ff16908160ff16815250506133ee565b8060016003811061345757fe5b60200201518160026003811061346957fe5b602002019060ff16908160ff16815250505b8060006003811061348857fe5b602002015160ff168160026003811061349d57fe5b602002015160ff1614806134d85750806001600381106134b957fe5b602002015160ff16816002600381106134ce57fe5b602002015160ff16145b15613509576134e6836135ce565b816002600381106134f357fe5b602002019060ff16908160ff168152505061347b565b80915050919050565b6000838383604051602001808473ffffffffffffffffffffffffffffffffffffffff1673ffffffffffffffffffffffffffffffffffffffff1660601b815260140183805190602001908083835b60208310613582578051825260208201915060208101905060208303925061355f565b6001836020036101000a03801982511681845116808217855250505050505090500182815260200193505050506040516020818303038152906040528051906020012090509392505050565b600080600a905060008160ff166004600081819054906101000a900460ff168092919060010191906101000a81548160ff021916908360ff16021790555060ff1643034085604051602001808381526020018273ffffffffffffffffffffffffffffffffffffffff1673ffffffffffffffffffffffffffffffffffffffff1660601b8152601401925050506040516020818303038152906040528051906020012060001c8161367957fe5b06905060fa600460009054906101000a900460ff1660ff1611156136b4576000600460006101000a81548160ff021916908360ff1602179055505b8092505050919050565b600061370083836040518060400160405280601a81526020017f536166654d6174683a206469766973696f6e206279207a65726f000000000000815250613790565b905092915050565b600080828401905083811015613786576040517f08c379a000000000000000000000000000000000000000000000000000000000815260040180806020018281038252601b8152602001807f536166654d6174683a206164646974696f6e206f766572666c6f77000000000081525060200191505060405180910390fd5b8091505092915050565b6000808311829061383c576040517f08c379a00000000000000000000000000000000000000000000000000000000081526004018080602001828103825283818151815260200191508051906020019080838360005b838110156138015780820151818401526020810190506137e6565b50505050905090810190601f16801561382e5780820380516001836020036101000a031916815260200191505b509250505060405180910390fd5b50600083858161384857fe5b049050809150509392505050565b6040518060600160405280600390602082028038833980820191505090505090565b826003601f016020900481019282156139015791602002820160005b838211156138d257835183826101000a81548160ff021916908360ff1602179055509260200192600101602081600001049283019260010302613894565b80156138ff5782816101000a81549060ff02191690556001016020816000010492830192600103026138d2565b505b50905061390e9190613912565b5090565b61393f91905b8082111561393b57600081816101000a81549060ff021916905550600101613918565b5090565b9056fe466c69676874206f722074696d657374616d7020646f206e6f74206d61746368206f7261636c652072657175657374496e76616c69642066756e6473207375626d69747465642e20506c656173652061646865726520746f20696e737572616e63652066656520726571756972656d656e74732e496e76616c69642066756e6473207375626d69747465642e20506c65617365207375626d6974207265717569726564206169726c696e6520726567697374726174696f6e206665652e466c696768742053746174757320556e6b6e6f776e2e20506c65617365207761697420616e64207265717565737420666f7220616e6f74686572207570646174652e436f6e74726163742069732063757272656e746c79206e6f74206f7065726174696f6e616c496e64657820646f6573206e6f74206d61746368206f7261636c652072657175657374a264697066735822122091d4002d22f4a316cd1446f91d7c2d5c025c59f2332773b45e74aaca800050de64736f6c63430006020033",
  "source": "pragma solidity ^0.6;\n\nimport \"../node_modules/openzeppelin-solidity/contracts/math/SafeMath.sol\";\n\ncontract FlightSuretyApp {\n    using SafeMath for uint256;\n\n    /********************************************************************************************/\n    /*                                       DATA VARIABLES                                     */\n    /********************************************************************************************/\n\n    // MSJ: State variable to interface with FlightSuretyData contract\n    FlightSuretyData flightSuretyData;\n    \n    // MSJ: Account used to deploy contract\n    address private contractOwner;\n    \n     // MSJ: Constants\n    uint256 constant AIRLINE_REG_FEE = 10 ether;\n    uint256 constant MAX_FLIGHT_INSURANCE_PAY = 1 ether;\n    uint8 private constant STATUS_CODE_UNKNOWN = 0;\n    uint8 private constant STATUS_CODE_ON_TIME = 10;\n    uint8 private constant STATUS_CODE_LATE_AIRLINE = 20;\n    uint8 private constant STATUS_CODE_LATE_WEATHER = 30;\n    uint8 private constant STATUS_CODE_LATE_TECHNICAL = 40;\n    uint8 private constant STATUS_CODE_LATE_OTHER = 50;\n\n    // MSJ: Airlines Registration Queue\n    struct AirlineRegistrationQueue {\n        address registerer;\n        uint256 votes;\n        bool isQueued;\n    }\n\n    // MSJ: Mapping the address of the airline's address with registration status\n    mapping(address => AirlineRegistrationQueue) private registrationQueue;\n    \n    // MSJ: Array to keep track of airline registration queue\n    address[] airlineRegQueue;\n    \n    /********************************************************************************************/\n    /*                                       EVENT DEFINITIONS                                  */\n    /********************************************************************************************/\n\n    // MSJ: Events\n    event AirlineRegistrationQueued(address queued, address registerer);\n    event VotedForAirline(address voted, address voter);\n    event FlightRegistered(string flight, uint256 timestamp, address airline);\n    event FlightStatusUpdated(address airline, string flight, uint256 timestamp, uint8 statusCode);\n\n    /********************************************************************************************/\n    /*                                       CONSTRUCTOR                                        */\n    /********************************************************************************************/\n\n    // MSJ: Constructor\n    constructor(address payable dataContract) public\n    {\n        contractOwner = msg.sender;\n        flightSuretyData = FlightSuretyData(dataContract);\n    }\n    \n    /********************************************************************************************/\n    /*                                       FUNCTION MODIFIERS                                 */\n    /********************************************************************************************/\n\n    // MSJ: Modifier to verify address is registered\n    modifier requireIsOperational() \n    {\n        // Modify to call data contract's status\n        require(flightSuretyData.isOperational(), \"Contract is currently not operational\");  \n        _;  // All modifiers require an \"_\" which indicates where the function body will be added\n    }\n\n    // MSJ: Modifier to verify contract owner\n    modifier requireContractOwner() {\n        require(msg.sender == contractOwner, \"Caller is not contract owner\");\n        _;\n    }\n\n    // MSJ: Modifier to verify address is registered\n    modifier requireIsAirlineRegistered(address airline) {\n        require(flightSuretyData.isAirlineRegistered(airline) == true, 'Caller is not the authorized app contract');\n        _;\n    }\n\n    // MSJ: Modifier to verify address is Funded\n    modifier requireIsAirlineFunded(address airline) {\n        require(flightSuretyData.isAirlineFunded(airline) == true, 'Caller is not the authorized app contract');\n        _;\n    }\n    \n    /********************************************************************************************/\n    /*                                       UTILITY FUNCTIONS                                  */\n    /********************************************************************************************/\n\n    // MSJ: To check if contract isOperational()\n    function isOperational() external view returns(bool) {\n        return flightSuretyData.isOperational();\n    }\n\n    // MSJ: Get list of registered airlines\n    function getAirlinesRegistration() public view returns(address[] memory) \n    {\n        address[] memory airlinesRegistration = flightSuretyData.getAirlinesRegistration();\n\n        return airlinesRegistration;\n    }\n    \n    // MSJ: Get list of funded airlines\n    function getAirlinesFunded() public view returns(address[] memory) \n    {\n        address[] memory airlinesFunded = flightSuretyData.getAirlinesRegisteredFunded();\n\n        return airlinesFunded;\n    }\n    \n    // MSJ: Function to get airline registration queue\n    function getQueued() public view returns(address[] memory) \n    {\n        return airlineRegQueue;\n    }\n\n    // MSJ: Function to verify address is queue\n    function isAirlineQueued(address airline) external view returns(bool) \n    {     \n        return registrationQueue[airline].isQueued;\n    }\n\n    // MSJ: Get votes\n    function getVotes(address airline) external view returns(uint256) \n    {     \n        return registrationQueue[airline].votes;\n    }\n    \n    /********************************************************************************************/\n    /*                                     SMART CONTRACT FUNCTIONS                             */\n    /********************************************************************************************/\n\n    // MSJ: Register Airline\n    function registerAirline(address applicant) public\n    {\n        address[] memory airlinesRegisteredFunded = flightSuretyData.getAirlinesRegistration();\n\n        // MSJ: Register airline if there are less than 5 registered airlines altogether\n        if(airlinesRegisteredFunded.length < 5) \n        {\n            flightSuretyData.registerAirline(applicant, msg.sender);\n        }\n        // MSJ: Add airline registration to queue, to run through voting process\n        else \n        {\n            // add check that airline is not yet in queue\n            registrationQueue[applicant].registerer = msg.sender;\n            registrationQueue[applicant].votes = 0;\n            registrationQueue[applicant].isQueued = true;\n            \n            airlineRegQueue.push(applicant); \n\n            emit AirlineRegistrationQueued(applicant, msg.sender);\n        }\n    }\n    \n    // MSJ: Function to allow other registered airlines to vote\n    function voteForAirline(address applicant) public\n    {\n        // MSJ: Get total count of participating airlines\n        address[] memory participatingAirlines = flightSuretyData.getAirlinesRegisteredFunded();\n        uint256 currentRegistration = participatingAirlines.length;\n        \n        // MSJ: Get 50% if participating airlines\n        uint256 requiredConsensus = currentRegistration.div(2);\n\n        // MSJ: Get applicant's current votes\n        uint256 currentApplicantVotes = registrationQueue[applicant].votes;\n        \n        // MSJ: Increment votes\n        currentApplicantVotes = currentApplicantVotes.add(1);\n        registrationQueue[applicant].votes = currentApplicantVotes;\n\n        // MSJ: Check if there are enough votes\n        if(currentApplicantVotes >= requiredConsensus)\n        {\n            // MSJ: If required vote consensus is met, proceed with registration (but not yet funded)\n            flightSuretyData.registerAirline(applicant, msg.sender);\n            registrationQueue[applicant].isQueued = false;\n        }\n\n        emit VotedForAirline(applicant, msg.sender);\n    }\n\n    \n    // MSJ: For airline to submit registration funding so they can start participating\n    function submitFunding() payable external \n    {\n        require(msg.value == AIRLINE_REG_FEE, \"Invalid funds submitted. Please submit required airline registration fee.\");\n               \n        // MSJ: Submit funding\n        // address(uint160(address(flightSuretyData))).transfer(msg.value);\n        flightSuretyData.submitAirlineFunding{value: msg.value}(msg.sender);\n    }\n    \n    // MSJ: For Airline to register flight\n    function registerFlight(string memory flight, uint256 timestamp) public\n    {\n        // MSJ: Register flight (Flight No. and Timestamp)\n        flightSuretyData.registerFlight(flight, timestamp, msg.sender);\n\n        emit FlightRegistered(flight, timestamp, msg.sender);\n\n    }\n    \n    // MSJ: For passengers to purchase insurance\n    function purchaseFlightInsurance(string calldata flight, address airline, uint256 timestamp) payable external \n    {\n        require(msg.value > 0 && msg.value <= MAX_FLIGHT_INSURANCE_PAY, \"Invalid funds submitted. Please adhere to insurance fee requirements.\");\n        \n        // MSJ: Submit funding\n        flightSuretyData.buy{value: msg.value}(msg.sender, flight, airline, timestamp, msg.value);    \n    }\n\n    // Generate a request for oracles to fetch flight information\n    function fetchFlightStatus(address airline, string calldata flight, uint256 timestamp) external \n    {\n        uint8 index = getRandomIndex(msg.sender);\n\n        // Generate a unique key for storing the request\n        bytes32 key = keccak256(abi.encodePacked(index, airline, flight, timestamp));\n        oracleResponses[key] = ResponseInfo({requester: msg.sender, isOpen: true});\n\n        emit OracleRequest(index, airline, flight, timestamp);\n    }\n\n    // MSJ: For insured passenger to withdraw their eligible funds\n    event CreditsWithdrawn(address passenger, uint256 amount);\n    \n    function withdrawFunds() public requireIsOperational \n    {\n        require(flightSuretyData.getPendingPayment(msg.sender) > 0, \"Insufficient.\");\n        \n        uint256 withdrawAmount;\n        withdrawAmount = flightSuretyData.pay(msg.sender);\n                \n        msg.sender.transfer(withdrawAmount);\n        emit CreditsWithdrawn(msg.sender, withdrawAmount);\n    }\n    \n    // MSJ: Get Contract Balanve\n    function getContractBalance() public requireIsOperational returns(uint)\n    {\n        return flightSuretyData.getContractBalance();\n    }\n    \n    \n    // MSJ: For insured passenger to get their balance\n    function getPassengerFunds() public payable requireIsOperational returns(uint)\n    {\n        return flightSuretyData.getPassengerFunds(msg.sender);\n    }\n    \n    /********************************************************************************************/\n    /*                                     ORACLE MANAGEMENT                                    */\n    /********************************************************************************************/\n    \n    // Incremented to add pseudo-randomness at various points\n    uint8 private nonce = 0;    \n\n    // Fee to be paid when registering oracle\n    uint256 public constant REGISTRATION_FEE = 1 ether;\n\n    // Number of oracles that must respond for valid status\n    uint256 private constant MIN_RESPONSES = 3;\n\n    struct Oracle \n    {\n        bool isRegistered;\n        uint8[3] indexes;        \n    }\n\n    // Track all registered oracles\n    mapping(address => Oracle) private oracles;\n\n    // Model for responses from oracles\n    struct ResponseInfo \n    {\n        address requester;                          // Account that requested status\n        bool isOpen;                                // If open, oracle responses are accepted\n        mapping(uint8 => address[]) responses;      // Mapping key is the status code reported\n                                                    // This lets us group responses and identify\n                                                    // the response that majority of the oracles\n    }\n\n    // Track all oracle responses\n    // Key = hash(index, flight, timestamp)\n    mapping(bytes32 => ResponseInfo) private oracleResponses;\n\n    // Event fired each time an oracle submits a response\n    event FlightStatusInfo(address airline, string flight, uint256 timestamp, uint8 status);\n\n    event OracleReport(address airline, string flight, uint256 timestamp, uint8 status);\n\n    // Event fired when flight status request is submitted\n    // Oracles track this and if they have a matching index\n    // they fetch data and submit a response\n    event OracleRequest(uint8 index, address airline, string flight, uint256 timestamp);\n\n    // Register an oracle with the contract\n    function registerOracle() external payable requireIsOperational \n    {\n        // Require registration fee\n        require(msg.value >= REGISTRATION_FEE, \"Registration fee is required\");\n\n        uint8[3] memory indexes = generateIndexes(msg.sender);\n\n        oracles[msg.sender] = Oracle({isRegistered: true, indexes: indexes});\n    }\n    \n    function getMyIndexes() view external returns(uint8[3] memory)\n    {\n        require(oracles[msg.sender].isRegistered, \"Not registered as an oracle\");\n\n        return oracles[msg.sender].indexes;\n    }\n    \n    // Called by oracle when a response is available to an outstanding request\n    // For the response to be accepted, there must be a pending request that is open\n    // and matches one of the three Indexes randomly assigned to the oracle at the\n    // time of registration (i.e. uninvited oracles are not welcome)\n    function submitOracleResponse(uint8 index, address airline, string calldata flight, uint256 timestamp, uint8 statusCode) external\n    {\n        require((oracles[msg.sender].indexes[0] == index) || (oracles[msg.sender].indexes[1] == index) || (oracles[msg.sender].indexes[2] == index), \"Index does not match oracle request\");\n\n\n        bytes32 key = keccak256(abi.encodePacked(index, airline, flight, timestamp)); \n        require(oracleResponses[key].isOpen, \"Flight or timestamp do not match oracle request\");\n\n        oracleResponses[key].responses[statusCode].push(msg.sender);\n\n        // Information isn't considered verified until at least MIN_RESPONSES\n        // oracles respond with the *** same *** information\n        emit OracleReport(airline, flight, timestamp, statusCode);\n        if (oracleResponses[key].responses[statusCode].length >= MIN_RESPONSES) \n        {\n            // Handle flight status as appropriate\n            // processFlightStatus(airline, flight, timestamp, statusCode);\n            emit FlightStatusInfo(airline, flight, timestamp, statusCode);\n    \n                // MSJ: Get FlightKey so that we can update flight status code based on what Oracle has sent\n            bytes32 flightKey = getFlightKey(airline, flight, timestamp);  \n    \n            // MSJ: Pass Oracle's updated Flight Status Code\n            flightSuretyData.updateFlightStatusCode(flightKey, statusCode);\n    \n            // MSJ: If unknown status code, request for Oracle to get another update\n            uint8 currStatusCode = flightSuretyData.getFlightStatusCode(flightKey);\n            require(currStatusCode != STATUS_CODE_UNKNOWN, \"Flight Status Unknown. Please wait and request for another update.\");\n    \n            // MSJ: If flight is late due to airline\n            if(currStatusCode == STATUS_CODE_LATE_AIRLINE) \n            {\n                // MSJ: Credit all passengers who have purchased insurance for this flight\n                flightSuretyData.creditInsurees(airline, flight, timestamp);\n            }\n    \n            emit FlightStatusUpdated(airline, flight, timestamp, statusCode);\n        }\n    }\n    \n    // MSJ: Called after oracle has updated flight status info (leave here in case)\n    function processFlightStatus(address airline, string calldata flight, uint256 timestamp, uint8 statusCode) external \n    {    \n        // MSJ: Get FlightKey so that we can update flight status code based on what Oracle has sent\n        bytes32 flightKey = getFlightKey(airline, flight, timestamp);  \n\n        // MSJ: Pass Oracle's updated Flight Status Code\n        flightSuretyData.updateFlightStatusCode(flightKey, statusCode);\n\n        // MSJ: If unknown status code, request for Oracle to get another update\n        uint8 currStatusCode = flightSuretyData.getFlightStatusCode(flightKey);\n        require(currStatusCode != STATUS_CODE_UNKNOWN, \"Flight Status Unknown. Please wait and request for another update.\");\n\n        // MSJ: If flight is late due to airline\n        if(currStatusCode == STATUS_CODE_LATE_AIRLINE) \n        {\n            // MSJ: Credit all passengers who have purchased insurance for this flight\n            flightSuretyData.creditInsurees(airline, flight, timestamp);\n        }\n\n        emit FlightStatusUpdated(airline, flight, timestamp, statusCode);\n    }\n    \n    function getFlightKey(address airline, string memory flight, uint256 timestamp) pure internal returns(bytes32) \n    {\n        return keccak256(abi.encodePacked(airline, flight, timestamp));\n    }\n    \n    // Returns array of three non-duplicating integers from 0-9\n    function generateIndexes(address account) internal returns(uint8[3] memory) \n    {\n        uint8[3] memory indexes;\n        indexes[0] = getRandomIndex(account);\n    \n        indexes[1] = indexes[0];\n        while(indexes[1] == indexes[0]) \n        {\n            indexes[1] = getRandomIndex(account);\n        }\n\n        indexes[2] = indexes[1];\n        while((indexes[2] == indexes[0]) || (indexes[2] == indexes[1])) \n        {\n            indexes[2] = getRandomIndex(account);\n        }\n\n        return indexes;\n    }\n    \n    // Returns array of three non-duplicating integers from 0-9\n    function getRandomIndex(address account) internal returns (uint8) \n    {\n        uint8 maxValue = 10;\n\n        // Pseudo random number...the incrementing nonce adds variation\n        uint8 random = uint8(uint256(keccak256(abi.encodePacked(blockhash(block.number - nonce++), account))) % maxValue);\n\n        if (nonce > 250) \n        {\n            nonce = 0;  // Can only fetch blockhashes for last 256 blocks so we adapt\n        }\n\n        return random;\n    }\n\n}\n\n// MSJ: FlightSurety data contract interface\nabstract contract FlightSuretyData {\n    function isOperational() public virtual view returns(bool);\n    function registerAirline(address applicant, address registerer) external virtual;\n    function getAirlinesRegistration() external virtual view returns(address[] memory);\n    function getAirlinesFunded() external virtual view returns(address[] memory);\n    function getAirlinesRegisteredFunded() external virtual view returns(address[] memory);\n    function submitAirlineFunding(address airline) external virtual payable returns(bool);\n    function isAirlineRegistered(address airline) external virtual view returns(bool);\n    function isAirlineFunded(address airline) external virtual view returns(bool);\n    function registerFlight(string calldata flight, uint256 timestamp, address registerer) external virtual;\n    function getRegisteredFlights() external virtual view returns(bytes32[] memory);\n    function buy(address passenger, string calldata flight, address airline, uint256 timestamp, uint256 amount) external virtual payable returns(bool);\n    function getPassengerFunds(address passenger) external virtual returns(uint);\n    function getContractBalance() external virtual returns(uint);\n    function getPendingPayment(address passenger) external view virtual returns (uint256);\n    function pay(address passenger) external payable virtual returns(uint256);\n    function getFlightStatusCode(bytes32 flightkey) external virtual view returns(uint8);\n    function updateFlightStatusCode(bytes32 flightkey, uint8 statusCode) external virtual;\n    function creditInsurees(address airline, string calldata flight, uint256 timestamp) external virtual; \n\n}",
  "sourcePath": "C:\\Users\\marco\\Documents\\bc_proj\\bcnd-p4-master\\contracts\\FlightSuretyApp.sol",
  "compiler": {
    "name": "solc",
    "version": "0.6.2+commit.bacdbe57.Emscripten.clang"
  },
  "schemaVersion": "3.0.23",
  "updatedAt": "2020-07-11T16:15:16.853Z",
  "networkType": "ethereum",
  "devdoc": {
    "methods": {}
  },
  "userdoc": {
    "methods": {
      "constructor": "*****************************************************************************************",
      "isOperational()": {
        "notice": "*****************************************************************************************"
      },
      "registerAirline(address)": {
        "notice": "*****************************************************************************************"
      }
    }
  }
}