{
  "contractName": "FlightSuretyData",
  "abi": [
    {
      "inputs": [],
      "stateMutability": "nonpayable",
      "type": "constructor"
    },
    {
      "anonymous": false,
      "inputs": [
        {
          "indexed": false,
          "internalType": "address",
          "name": "funded",
          "type": "address"
        }
      ],
      "name": "AirlineFunded",
      "type": "event"
    },
    {
      "anonymous": false,
      "inputs": [
        {
          "indexed": false,
          "internalType": "address",
          "name": "registered",
          "type": "address"
        },
        {
          "indexed": false,
          "internalType": "address",
          "name": "registerer",
          "type": "address"
        }
      ],
      "name": "AirlineRegistered",
      "type": "event"
    },
    {
      "anonymous": false,
      "inputs": [
        {
          "indexed": false,
          "internalType": "bytes32",
          "name": "flightKey",
          "type": "bytes32"
        },
        {
          "indexed": false,
          "internalType": "string",
          "name": "flight",
          "type": "string"
        },
        {
          "indexed": false,
          "internalType": "uint256",
          "name": "timestamp",
          "type": "uint256"
        },
        {
          "indexed": false,
          "internalType": "address",
          "name": "registerer",
          "type": "address"
        }
      ],
      "name": "FlightRegistered",
      "type": "event"
    },
    {
      "anonymous": false,
      "inputs": [
        {
          "indexed": false,
          "internalType": "address",
          "name": "passenger",
          "type": "address"
        },
        {
          "indexed": false,
          "internalType": "bytes32",
          "name": "flightKey",
          "type": "bytes32"
        },
        {
          "indexed": false,
          "internalType": "string",
          "name": "flight",
          "type": "string"
        },
        {
          "indexed": false,
          "internalType": "address",
          "name": "airline",
          "type": "address"
        },
        {
          "indexed": false,
          "internalType": "uint256",
          "name": "timestamp",
          "type": "uint256"
        }
      ],
      "name": "InsurancePurchased",
      "type": "event"
    },
    {
      "anonymous": false,
      "inputs": [
        {
          "indexed": false,
          "internalType": "address",
          "name": "passenger",
          "type": "address"
        },
        {
          "indexed": false,
          "internalType": "uint256",
          "name": "amount",
          "type": "uint256"
        }
      ],
      "name": "InsureeCredited",
      "type": "event"
    },
    {
      "stateMutability": "payable",
      "type": "fallback",
      "payable": true
    },
    {
      "stateMutability": "payable",
      "type": "receive",
      "payable": true
    },
    {
      "inputs": [],
      "name": "isOperational",
      "outputs": [
        {
          "internalType": "bool",
          "name": "",
          "type": "bool"
        }
      ],
      "stateMutability": "view",
      "type": "function",
      "constant": true
    },
    {
      "inputs": [
        {
          "internalType": "bool",
          "name": "mode",
          "type": "bool"
        }
      ],
      "name": "setOperatingStatus",
      "outputs": [],
      "stateMutability": "nonpayable",
      "type": "function"
    },
    {
      "inputs": [
        {
          "internalType": "address",
          "name": "appContract",
          "type": "address"
        }
      ],
      "name": "authorizeCaller",
      "outputs": [],
      "stateMutability": "nonpayable",
      "type": "function"
    },
    {
      "inputs": [
        {
          "internalType": "address",
          "name": "appContract",
          "type": "address"
        }
      ],
      "name": "deauthorizeCaller",
      "outputs": [],
      "stateMutability": "nonpayable",
      "type": "function"
    },
    {
      "inputs": [
        {
          "internalType": "address",
          "name": "airline",
          "type": "address"
        }
      ],
      "name": "isAirlineRegistered",
      "outputs": [
        {
          "internalType": "bool",
          "name": "",
          "type": "bool"
        }
      ],
      "stateMutability": "view",
      "type": "function",
      "constant": true
    },
    {
      "inputs": [
        {
          "internalType": "address",
          "name": "airline",
          "type": "address"
        }
      ],
      "name": "isAirlineFunded",
      "outputs": [
        {
          "internalType": "bool",
          "name": "",
          "type": "bool"
        }
      ],
      "stateMutability": "view",
      "type": "function",
      "constant": true
    },
    {
      "inputs": [],
      "name": "getAirlinesRegistration",
      "outputs": [
        {
          "internalType": "address[]",
          "name": "",
          "type": "address[]"
        }
      ],
      "stateMutability": "view",
      "type": "function",
      "constant": true
    },
    {
      "inputs": [],
      "name": "getAirlinesRegisteredFunded",
      "outputs": [
        {
          "internalType": "address[]",
          "name": "",
          "type": "address[]"
        }
      ],
      "stateMutability": "view",
      "type": "function",
      "constant": true
    },
    {
      "inputs": [],
      "name": "getRegisteredFlights",
      "outputs": [
        {
          "internalType": "bytes32[]",
          "name": "",
          "type": "bytes32[]"
        }
      ],
      "stateMutability": "view",
      "type": "function",
      "constant": true
    },
    {
      "inputs": [
        {
          "internalType": "bytes32",
          "name": "flightkey",
          "type": "bytes32"
        }
      ],
      "name": "isFlightRegistered",
      "outputs": [
        {
          "internalType": "bool",
          "name": "",
          "type": "bool"
        }
      ],
      "stateMutability": "view",
      "type": "function",
      "constant": true
    },
    {
      "inputs": [
        {
          "internalType": "address",
          "name": "airline",
          "type": "address"
        },
        {
          "internalType": "string",
          "name": "flight",
          "type": "string"
        },
        {
          "internalType": "uint256",
          "name": "timestamp",
          "type": "uint256"
        }
      ],
      "name": "_getFlightKey",
      "outputs": [
        {
          "internalType": "bytes32",
          "name": "",
          "type": "bytes32"
        }
      ],
      "stateMutability": "pure",
      "type": "function",
      "constant": true
    },
    {
      "inputs": [
        {
          "internalType": "bytes32",
          "name": "flightkey",
          "type": "bytes32"
        },
        {
          "internalType": "uint8",
          "name": "statusCode",
          "type": "uint8"
        }
      ],
      "name": "updateFlightStatusCode",
      "outputs": [],
      "stateMutability": "nonpayable",
      "type": "function"
    },
    {
      "inputs": [
        {
          "internalType": "bytes32",
          "name": "flightkey",
          "type": "bytes32"
        }
      ],
      "name": "getFlightStatusCode",
      "outputs": [
        {
          "internalType": "uint8",
          "name": "",
          "type": "uint8"
        }
      ],
      "stateMutability": "view",
      "type": "function",
      "constant": true
    },
    {
      "inputs": [
        {
          "internalType": "address",
          "name": "passenger",
          "type": "address"
        },
        {
          "internalType": "address",
          "name": "airline",
          "type": "address"
        },
        {
          "internalType": "string",
          "name": "flight",
          "type": "string"
        },
        {
          "internalType": "uint256",
          "name": "timestamp",
          "type": "uint256"
        }
      ],
      "name": "isInsured",
      "outputs": [
        {
          "internalType": "bool",
          "name": "",
          "type": "bool"
        }
      ],
      "stateMutability": "view",
      "type": "function",
      "constant": true
    },
    {
      "inputs": [
        {
          "internalType": "address",
          "name": "passenger",
          "type": "address"
        }
      ],
      "name": "getPendingPayment",
      "outputs": [
        {
          "internalType": "uint256",
          "name": "",
          "type": "uint256"
        }
      ],
      "stateMutability": "view",
      "type": "function",
      "constant": true
    },
    {
      "inputs": [
        {
          "internalType": "address",
          "name": "applicant",
          "type": "address"
        },
        {
          "internalType": "address",
          "name": "registerer",
          "type": "address"
        }
      ],
      "name": "registerAirline",
      "outputs": [
        {
          "internalType": "bool",
          "name": "",
          "type": "bool"
        }
      ],
      "stateMutability": "nonpayable",
      "type": "function"
    },
    {
      "inputs": [
        {
          "internalType": "address",
          "name": "airline",
          "type": "address"
        }
      ],
      "name": "submitAirlineFunding",
      "outputs": [
        {
          "internalType": "bool",
          "name": "",
          "type": "bool"
        }
      ],
      "stateMutability": "payable",
      "type": "function",
      "payable": true
    },
    {
      "inputs": [
        {
          "internalType": "string",
          "name": "flight",
          "type": "string"
        },
        {
          "internalType": "uint256",
          "name": "timestamp",
          "type": "uint256"
        },
        {
          "internalType": "address",
          "name": "registerer",
          "type": "address"
        }
      ],
      "name": "registerFlight",
      "outputs": [],
      "stateMutability": "nonpayable",
      "type": "function"
    },
    {
      "inputs": [
        {
          "internalType": "address",
          "name": "airline",
          "type": "address"
        },
        {
          "internalType": "string",
          "name": "flight",
          "type": "string"
        },
        {
          "internalType": "uint256",
          "name": "timestamp",
          "type": "uint256"
        }
      ],
      "name": "creditInsurees",
      "outputs": [],
      "stateMutability": "nonpayable",
      "type": "function"
    },
    {
      "inputs": [
        {
          "internalType": "address",
          "name": "passenger",
          "type": "address"
        },
        {
          "internalType": "string",
          "name": "flight",
          "type": "string"
        },
        {
          "internalType": "address",
          "name": "airline",
          "type": "address"
        },
        {
          "internalType": "uint256",
          "name": "timestamp",
          "type": "uint256"
        },
        {
          "internalType": "uint256",
          "name": "amount",
          "type": "uint256"
        }
      ],
      "name": "buy",
      "outputs": [
        {
          "internalType": "bool",
          "name": "",
          "type": "bool"
        }
      ],
      "stateMutability": "payable",
      "type": "function",
      "payable": true
    },
    {
      "inputs": [
        {
          "internalType": "address",
          "name": "passenger",
          "type": "address"
        }
      ],
      "name": "pay",
      "outputs": [
        {
          "internalType": "uint256",
          "name": "",
          "type": "uint256"
        }
      ],
      "stateMutability": "payable",
      "type": "function",
      "payable": true
    },
    {
      "inputs": [
        {
          "internalType": "address",
          "name": "passenger",
          "type": "address"
        }
      ],
      "name": "getPassengerFunds",
      "outputs": [
        {
          "internalType": "uint256",
          "name": "",
          "type": "uint256"
        }
      ],
      "stateMutability": "view",
      "type": "function",
      "constant": true
    },
    {
      "inputs": [],
      "name": "getContractBalance",
      "outputs": [
        {
          "internalType": "uint256",
          "name": "",
          "type": "uint256"
        }
      ],
      "stateMutability": "view",
      "type": "function",
      "constant": true
    }
  ],
  "bytecode": "0x60806040526001600060146101000a81548160ff0219169083151502179055503480156200002c57600080fd5b50336000806101000a81548173ffffffffffffffffffffffffffffffffffffffff021916908373ffffffffffffffffffffffffffffffffffffffff1602179055506200009f6000809054906101000a900473ffffffffffffffffffffffffffffffffffffffff16620000a560201b60201c565b620002e7565b6000809054906101000a900473ffffffffffffffffffffffffffffffffffffffff1673ffffffffffffffffffffffffffffffffffffffff163373ffffffffffffffffffffffffffffffffffffffff161462000168576040517f08c379a000000000000000000000000000000000000000000000000000000000815260040180806020018281038252601c8152602001807f43616c6c6572206973206e6f7420636f6e7472616374206f776e65720000000081525060200191505060405180910390fd5b6001600360008373ffffffffffffffffffffffffffffffffffffffff1673ffffffffffffffffffffffffffffffffffffffff16815260200190815260200160002060000160006101000a81548160ff0219169083151502179055506001600360008373ffffffffffffffffffffffffffffffffffffffff1673ffffffffffffffffffffffffffffffffffffffff16815260200190815260200160002060000160016101000a81548160ff0219169083151502179055506004819080600181540180825580915050600190039060005260206000200160009091909190916101000a81548173ffffffffffffffffffffffffffffffffffffffff021916908373ffffffffffffffffffffffffffffffffffffffff1602179055506005819080600181540180825580915050600190039060005260206000200160009091909190916101000a81548173ffffffffffffffffffffffffffffffffffffffff021916908373ffffffffffffffffffffffffffffffffffffffff16021790555050565b61395a80620002f76000396000f3fe6080604052600436106101445760003560e01c80636f9fb98a116100b6578063c19b4fae1161006f578063c19b4fae14610878578063c7ba501814610960578063c8820a70146109e9578063cd905dff14610a99578063f53b6d6514610ac8578063fd59025e14610b3157610154565b80636f9fb98a146105f3578063707153381461061e5780637a6002421461068a5780638c9f1afe146106f6578063b881c41f146107db578063bf4a7b871461083057610154565b806339c675e11161010857806339c675e11461031a57806345d29b92146103de57806358ac36a3146104435780635ac3b4f41461049657806365c152f7146104f25780636873c21d146105a257610154565b8063010c5c971461015f5780630c11dedd146101c8578063110466ed146102205780631cebb54d1461025d5780632c388d5d146102c957610154565b366101545761015234610b96565b005b61015d34610b96565b005b34801561016b57600080fd5b506101ae6004803603602081101561018257600080fd5b81019080803573ffffffffffffffffffffffffffffffffffffffff169060200190929190505050610bb4565b604051808215151515815260200191505060405180910390f35b61020a600480360360208110156101de57600080fd5b81019080803573ffffffffffffffffffffffffffffffffffffffff169060200190929190505050610c0d565b6040518082815260200191505060405180910390f35b34801561022c57600080fd5b5061025b6004803603602081101561024357600080fd5b81019080803515159060200190929190505050610f44565b005b34801561026957600080fd5b50610272611023565b6040518080602001828103825283818151815260200191508051906020019060200280838360005b838110156102b557808201518184015260208101905061029a565b505050509050019250505060405180910390f35b3480156102d557600080fd5b50610318600480360360208110156102ec57600080fd5b81019080803573ffffffffffffffffffffffffffffffffffffffff1690602001909291905050506110b1565b005b34801561032657600080fd5b506103c86004803603606081101561033d57600080fd5b81019080803573ffffffffffffffffffffffffffffffffffffffff1690602001909291908035906020019064010000000081111561037a57600080fd5b82018360208201111561038c57600080fd5b803590602001918460018302840111640100000000831117156103ae57600080fd5b9091929391929390803590602001909291905050506111ce565b6040518082815260200191505060405180910390f35b3480156103ea57600080fd5b5061042d6004803603602081101561040157600080fd5b81019080803573ffffffffffffffffffffffffffffffffffffffff169060200190929190505050611249565b6040518082815260200191505060405180910390f35b34801561044f57600080fd5b5061047c6004803603602081101561046657600080fd5b810190808035906020019092919050505061126a565b604051808215151515815260200191505060405180910390f35b6104d8600480360360208110156104ac57600080fd5b81019080803573ffffffffffffffffffffffffffffffffffffffff169060200190929190505050611297565b604051808215151515815260200191505060405180910390f35b3480156104fe57600080fd5b506105a06004803603606081101561051557600080fd5b810190808035906020019064010000000081111561053257600080fd5b82018360208201111561054457600080fd5b8035906020019184600183028401116401000000008311171561056657600080fd5b909192939192939080359060200190929190803573ffffffffffffffffffffffffffffffffffffffff169060200190929190505050611599565b005b3480156105ae57600080fd5b506105f1600480360360208110156105c557600080fd5b81019080803573ffffffffffffffffffffffffffffffffffffffff169060200190929190505050611c4f565b005b3480156105ff57600080fd5b50610608611d6c565b6040518082815260200191505060405180910390f35b34801561062a57600080fd5b50610633611d74565b6040518080602001828103825283818151815260200191508051906020019060200280838360005b8381101561067657808201518184015260208101905061065b565b505050509050019250505060405180910390f35b34801561069657600080fd5b5061069f611dcc565b6040518080602001828103825283818151815260200191508051906020019060200280838360005b838110156106e25780820151818401526020810190506106c7565b505050509050019250505060405180910390f35b6107c1600480360360a081101561070c57600080fd5b81019080803573ffffffffffffffffffffffffffffffffffffffff1690602001909291908035906020019064010000000081111561074957600080fd5b82018360208201111561075b57600080fd5b8035906020019184600183028401116401000000008311171561077d57600080fd5b9091929391929390803573ffffffffffffffffffffffffffffffffffffffff1690602001909291908035906020019092919080359060200190929190505050611e5a565b604051808215151515815260200191505060405180910390f35b3480156107e757600080fd5b50610814600480360360208110156107fe57600080fd5b8101908080359060200190929190505050612491565b604051808260ff1660ff16815260200191505060405180910390f35b34801561083c57600080fd5b506108766004803603604081101561085357600080fd5b8101908080359060200190929190803560ff1690602001909291905050506124be565b005b34801561088457600080fd5b506109466004803603608081101561089b57600080fd5b81019080803573ffffffffffffffffffffffffffffffffffffffff169060200190929190803573ffffffffffffffffffffffffffffffffffffffff169060200190929190803590602001906401000000008111156108f857600080fd5b82018360208201111561090a57600080fd5b8035906020019184600183028401116401000000008311171561092c57600080fd5b9091929391929390803590602001909291905050506124f1565b604051808215151515815260200191505060405180910390f35b34801561096c57600080fd5b506109cf6004803603604081101561098357600080fd5b81019080803573ffffffffffffffffffffffffffffffffffffffff169060200190929190803573ffffffffffffffffffffffffffffffffffffffff1690602001909291905050506125e3565b604051808215151515815260200191505060405180910390f35b3480156109f557600080fd5b50610a9760048036036060811015610a0c57600080fd5b81019080803573ffffffffffffffffffffffffffffffffffffffff16906020019092919080359060200190640100000000811115610a4957600080fd5b820183602082011115610a5b57600080fd5b80359060200191846001830284011164010000000083111715610a7d57600080fd5b909192939192939080359060200190929190505050612acf565b005b348015610aa557600080fd5b50610aae61339a565b604051808215151515815260200191505060405180910390f35b348015610ad457600080fd5b50610b1760048036036020811015610aeb57600080fd5b81019080803573ffffffffffffffffffffffffffffffffffffffff1690602001909291905050506133b0565b604051808215151515815260200191505060405180910390f35b348015610b3d57600080fd5b50610b8060048036036020811015610b5457600080fd5b81019080803573ffffffffffffffffffffffffffffffffffffffff169060200190929190505050613409565b6040518082815260200191505060405180910390f35b610bab8160015461347090919063ffffffff16565b60018190555050565b6000600360008373ffffffffffffffffffffffffffffffffffffffff1673ffffffffffffffffffffffffffffffffffffffff16815260200190815260200160002060000160009054906101000a900460ff169050919050565b60008060149054906101000a900460ff16610c73576040517f08c379a00000000000000000000000000000000000000000000000000000000081526004018080602001828103825260258152602001806139006025913960400191505060405180910390fd5b60011515600260003373ffffffffffffffffffffffffffffffffffffffff1673ffffffffffffffffffffffffffffffffffffffff16815260200190815260200160002060009054906101000a900460ff16151514610d1c576040517f08c379a00000000000000000000000000000000000000000000000000000000081526004018080602001828103825260298152602001806138926029913960400191505060405180910390fd5b60001515600d600c60008573ffffffffffffffffffffffffffffffffffffffff1673ffffffffffffffffffffffffffffffffffffffff1681526020019081526020016000205481548110610d6c57fe5b906000526020600020906007020160060160009054906101000a900460ff16151514610e00576040517f08c379a00000000000000000000000000000000000000000000000000000000081526004018080602001828103825260168152602001807f4e6f20656c696769626c6520666f72206372656469740000000000000000000081525060200191505060405180910390fd5b6000600d600c60008573ffffffffffffffffffffffffffffffffffffffff1673ffffffffffffffffffffffffffffffffffffffff1681526020019081526020016000205481548110610e4e57fe5b90600052602060002090600702016005015490506001600d600c60008673ffffffffffffffffffffffffffffffffffffffff1673ffffffffffffffffffffffffffffffffffffffff1681526020019081526020016000205481548110610eb057fe5b906000526020600020906007020160060160006101000a81548160ff0219169083151502179055506000600d600c60008673ffffffffffffffffffffffffffffffffffffffff1673ffffffffffffffffffffffffffffffffffffffff1681526020019081526020016000205481548110610f2657fe5b90600052602060002090600702016005018190555080915050919050565b6000809054906101000a900473ffffffffffffffffffffffffffffffffffffffff1673ffffffffffffffffffffffffffffffffffffffff163373ffffffffffffffffffffffffffffffffffffffff1614611006576040517f08c379a000000000000000000000000000000000000000000000000000000000815260040180806020018281038252601c8152602001807f43616c6c6572206973206e6f7420636f6e7472616374206f776e65720000000081525060200191505060405180910390fd5b80600060146101000a81548160ff02191690831515021790555050565b606060058054806020026020016040519081016040528092919081815260200182805480156110a757602002820191906000526020600020905b8160009054906101000a900473ffffffffffffffffffffffffffffffffffffffff1673ffffffffffffffffffffffffffffffffffffffff168152602001906001019080831161105d575b5050505050905090565b6000809054906101000a900473ffffffffffffffffffffffffffffffffffffffff1673ffffffffffffffffffffffffffffffffffffffff163373ffffffffffffffffffffffffffffffffffffffff1614611173576040517f08c379a000000000000000000000000000000000000000000000000000000000815260040180806020018281038252601c8152602001807f43616c6c6572206973206e6f7420636f6e7472616374206f776e65720000000081525060200191505060405180910390fd5b6001600260008373ffffffffffffffffffffffffffffffffffffffff1673ffffffffffffffffffffffffffffffffffffffff16815260200190815260200160002060006101000a81548160ff02191690831515021790555050565b600084848484604051602001808573ffffffffffffffffffffffffffffffffffffffff1673ffffffffffffffffffffffffffffffffffffffff1660601b815260140184848082843780830192505050828152602001945050505050604051602081830303815290604052805190602001209050949350505050565b60008173ffffffffffffffffffffffffffffffffffffffff16319050919050565b60006006600083815260200190815260200160002060000160009054906101000a900460ff169050919050565b60008060149054906101000a900460ff166112fd576040517f08c379a00000000000000000000000000000000000000000000000000000000081526004018080602001828103825260258152602001806139006025913960400191505060405180910390fd5b60011515600260003373ffffffffffffffffffffffffffffffffffffffff1673ffffffffffffffffffffffffffffffffffffffff16815260200190815260200160002060009054906101000a900460ff161515146113a6576040517f08c379a00000000000000000000000000000000000000000000000000000000081526004018080602001828103825260298152602001806138926029913960400191505060405180910390fd5b60011515600360008473ffffffffffffffffffffffffffffffffffffffff1673ffffffffffffffffffffffffffffffffffffffff16815260200190815260200160002060000160009054906101000a900460ff1615151461146f576040517f08c379a00000000000000000000000000000000000000000000000000000000081526004018080602001828103825260168152602001807f4169726c696e65206e6f7420726567697374657265640000000000000000000081525060200191505060405180910390fd5b6001600360008473ffffffffffffffffffffffffffffffffffffffff1673ffffffffffffffffffffffffffffffffffffffff16815260200190815260200160002060000160016101000a81548160ff0219169083151502179055506005829080600181540180825580915050600190039060005260206000200160009091909190916101000a81548173ffffffffffffffffffffffffffffffffffffffff021916908373ffffffffffffffffffffffffffffffffffffffff1602179055507f3c348ba34685212d5d04f432a9e569b642b180df0227a6b0c899050c4acb7af882604051808273ffffffffffffffffffffffffffffffffffffffff1673ffffffffffffffffffffffffffffffffffffffff16815260200191505060405180910390a160019050919050565b600060149054906101000a900460ff166115fe576040517f08c379a00000000000000000000000000000000000000000000000000000000081526004018080602001828103825260258152602001806139006025913960400191505060405180910390fd5b60011515600260003373ffffffffffffffffffffffffffffffffffffffff1673ffffffffffffffffffffffffffffffffffffffff16815260200190815260200160002060009054906101000a900460ff161515146116a7576040517f08c379a00000000000000000000000000000000000000000000000000000000081526004018080602001828103825260298152602001806138926029913960400191505060405180910390fd5b8060011515600360008373ffffffffffffffffffffffffffffffffffffffff1673ffffffffffffffffffffffffffffffffffffffff16815260200190815260200160002060000160009054906101000a900460ff16151514611754576040517f08c379a00000000000000000000000000000000000000000000000000000000081526004018080602001828103825260248152602001806138bb6024913960400191505060405180910390fd5b60011515600360008373ffffffffffffffffffffffffffffffffffffffff1673ffffffffffffffffffffffffffffffffffffffff16815260200190815260200160002060000160019054906101000a900460ff1615151461181d576040517f08c379a00000000000000000000000000000000000000000000000000000000081526004018080602001828103825260208152602001807f4169726c696e652052656769737465726572206973206e6f742066756e64656481525060200191505060405180910390fd5b60011515600360008473ffffffffffffffffffffffffffffffffffffffff1673ffffffffffffffffffffffffffffffffffffffff16815260200190815260200160002060000160009054906101000a900460ff161515146118e6576040517f08c379a00000000000000000000000000000000000000000000000000000000081526004018080602001828103825260168152602001807f4169726c696e65206e6f7420726567697374657265640000000000000000000081525060200191505060405180910390fd5b60011515600360008473ffffffffffffffffffffffffffffffffffffffff1673ffffffffffffffffffffffffffffffffffffffff16815260200190815260200160002060000160019054906101000a900460ff161515146119af576040517f08c379a00000000000000000000000000000000000000000000000000000000081526004018080602001828103825260128152602001807f4169726c696e65206e6f742066756e646564000000000000000000000000000081525060200191505060405180910390fd5b6000611a008387878080601f016020809104026020016040519081016040528093929190818152602001838380828437600081840152601f19601f82011690508083019250505050505050866134f8565b9050600015156006600083815260200190815260200160002060000160009054906101000a900460ff16151514611a82576040517f08c379a00000000000000000000000000000000000000000000000000000000081526004018080602001828103825260228152602001806138706022913960400191505060405180910390fd5b8585600660008481526020019081526020016000206003019190611aa792919061374a565b50836006600083815260200190815260200160002060010181905550826006600083815260200190815260200160002060020160006101000a81548173ffffffffffffffffffffffffffffffffffffffff021916908373ffffffffffffffffffffffffffffffffffffffff16021790555060016006600083815260200190815260200160002060000160006101000a81548160ff02191690831515021790555060006006600083815260200190815260200160002060000160016101000a81548160ff021916908360ff16021790555060078190806001815401808255809150506001900390600052602060002001600090919091909150557f14122ef803a27c9e5daf90c64604def1b58b088d7f0fc0d4770488c6bcf55d8c818787878760405180868152602001806020018481526020018373ffffffffffffffffffffffffffffffffffffffff1673ffffffffffffffffffffffffffffffffffffffff1681526020018281038252868682818152602001925080828437600081840152601f19601f820116905080830192505050965050505050505060405180910390a1505050505050565b6000809054906101000a900473ffffffffffffffffffffffffffffffffffffffff1673ffffffffffffffffffffffffffffffffffffffff163373ffffffffffffffffffffffffffffffffffffffff1614611d11576040517f08c379a000000000000000000000000000000000000000000000000000000000815260040180806020018281038252601c8152602001807f43616c6c6572206973206e6f7420636f6e7472616374206f776e65720000000081525060200191505060405180910390fd5b6000600260008373ffffffffffffffffffffffffffffffffffffffff1673ffffffffffffffffffffffffffffffffffffffff16815260200190815260200160002060006101000a81548160ff02191690831515021790555050565b600047905090565b60606007805480602002602001604051908101604052809291908181526020018280548015611dc257602002820191906000526020600020905b815481526020019060010190808311611dae575b5050505050905090565b60606004805480602002602001604051908101604052809291908181526020018280548015611e5057602002820191906000526020600020905b8160009054906101000a900473ffffffffffffffffffffffffffffffffffffffff1673ffffffffffffffffffffffffffffffffffffffff1681526020019060010190808311611e06575b5050505050905090565b60008060149054906101000a900460ff16611ec0576040517f08c379a00000000000000000000000000000000000000000000000000000000081526004018080602001828103825260258152602001806139006025913960400191505060405180910390fd5b60011515600260003373ffffffffffffffffffffffffffffffffffffffff1673ffffffffffffffffffffffffffffffffffffffff16815260200190815260200160002060009054906101000a900460ff16151514611f69576040517f08c379a00000000000000000000000000000000000000000000000000000000081526004018080602001828103825260298152602001806138926029913960400191505060405180910390fd5b60011515600360008673ffffffffffffffffffffffffffffffffffffffff1673ffffffffffffffffffffffffffffffffffffffff16815260200190815260200160002060000160009054906101000a900460ff16151514612032576040517f08c379a00000000000000000000000000000000000000000000000000000000081526004018080602001828103825260168152602001807f4169726c696e65206e6f7420726567697374657265640000000000000000000081525060200191505060405180910390fd5b60011515600360008673ffffffffffffffffffffffffffffffffffffffff1673ffffffffffffffffffffffffffffffffffffffff16815260200190815260200160002060000160019054906101000a900460ff161515146120fb576040517f08c379a00000000000000000000000000000000000000000000000000000000081526004018080602001828103825260128152602001807f4169726c696e65206e6f742066756e646564000000000000000000000000000081525060200191505060405180910390fd5b600061214c8588888080601f016020809104026020016040519081016040528093929190818152602001838380828437600081840152601f19601f82011690508083019250505050505050866134f8565b9050600115156006600083815260200190815260200160002060000160009054906101000a900460ff161515146121eb576040517f08c379a00000000000000000000000000000000000000000000000000000000081526004018080602001828103825260158152602001807f466c69676874206e6f742072656769737465726564000000000000000000000081525060200191505060405180910390fd5b600a6040518060e001604052808a73ffffffffffffffffffffffffffffffffffffffff16815260200183815260200189898080601f016020809104026020016040519081016040528093929190818152602001838380828437600081840152601f19601f8201169050808301925050505050505081526020018773ffffffffffffffffffffffffffffffffffffffff16815260200186815260200185815260200160001515815250908060018154018082558091505060019003906000526020600020906007020160009091909190915060008201518160000160006101000a81548173ffffffffffffffffffffffffffffffffffffffff021916908373ffffffffffffffffffffffffffffffffffffffff1602179055506020820151816001015560408201518160020190805190602001906123299291906137ca565b5060608201518160030160006101000a81548173ffffffffffffffffffffffffffffffffffffffff021916908373ffffffffffffffffffffffffffffffffffffffff1602179055506080820151816004015560a0820151816005015560c08201518160060160006101000a81548160ff02191690831515021790555050507f76af1febb672628ef56e3ad59f33ff5eefab4e6f9d64580b91ab5b323344f077888289898989604051808773ffffffffffffffffffffffffffffffffffffffff1673ffffffffffffffffffffffffffffffffffffffff168152602001868152602001806020018473ffffffffffffffffffffffffffffffffffffffff1673ffffffffffffffffffffffffffffffffffffffff1681526020018381526020018281038252868682818152602001925080828437600081840152601f19601f82011690508083019250505097505050505050505060405180910390a160019150509695505050505050565b60006006600083815260200190815260200160002060000160019054906101000a900460ff169050919050565b806006600084815260200190815260200160002060000160016101000a81548160ff021916908360ff1602179055505050565b6000806125438686868080601f016020809104026020016040519081016040528093929190818152602001838380828437600081840152601f19601f82011690508083019250505050505050856134f8565b90508673ffffffffffffffffffffffffffffffffffffffff16600a60086000848152602001908152602001600020548154811061257c57fe5b906000526020600020906007020160000160009054906101000a900473ffffffffffffffffffffffffffffffffffffffff1673ffffffffffffffffffffffffffffffffffffffff1614156125d45760019150506125da565b60009150505b95945050505050565b60008060149054906101000a900460ff16612649576040517f08c379a00000000000000000000000000000000000000000000000000000000081526004018080602001828103825260258152602001806139006025913960400191505060405180910390fd5b60011515600260003373ffffffffffffffffffffffffffffffffffffffff1673ffffffffffffffffffffffffffffffffffffffff16815260200190815260200160002060009054906101000a900460ff161515146126f2576040517f08c379a00000000000000000000000000000000000000000000000000000000081526004018080602001828103825260298152602001806138926029913960400191505060405180910390fd5b8160011515600360008373ffffffffffffffffffffffffffffffffffffffff1673ffffffffffffffffffffffffffffffffffffffff16815260200190815260200160002060000160009054906101000a900460ff1615151461279f576040517f08c379a00000000000000000000000000000000000000000000000000000000081526004018080602001828103825260248152602001806138bb6024913960400191505060405180910390fd5b60011515600360008373ffffffffffffffffffffffffffffffffffffffff1673ffffffffffffffffffffffffffffffffffffffff16815260200190815260200160002060000160019054906101000a900460ff16151514612868576040517f08c379a00000000000000000000000000000000000000000000000000000000081526004018080602001828103825260208152602001807f4169726c696e652052656769737465726572206973206e6f742066756e64656481525060200191505060405180910390fd5b60001515600360008673ffffffffffffffffffffffffffffffffffffffff1673ffffffffffffffffffffffffffffffffffffffff16815260200190815260200160002060000160009054906101000a900460ff16151514612931576040517f08c379a000000000000000000000000000000000000000000000000000000000815260040180806020018281038252601d8152602001807f4169726c696e6520697320616c7265616479207265676973746572656400000081525060200191505060405180910390fd5b604051806040016040528060011515815260200160001515815250600360008673ffffffffffffffffffffffffffffffffffffffff1673ffffffffffffffffffffffffffffffffffffffff16815260200190815260200160002060008201518160000160006101000a81548160ff02191690831515021790555060208201518160000160016101000a81548160ff0219169083151502179055509050506004849080600181540180825580915050600190039060005260206000200160009091909190916101000a81548173ffffffffffffffffffffffffffffffffffffffff021916908373ffffffffffffffffffffffffffffffffffffffff1602179055507f3bfdb99fbcef24ea247a0804fbb61674b13e92dafc59610dfcac7321d700796a8484604051808373ffffffffffffffffffffffffffffffffffffffff1673ffffffffffffffffffffffffffffffffffffffff1681526020018273ffffffffffffffffffffffffffffffffffffffff1673ffffffffffffffffffffffffffffffffffffffff1681526020019250505060405180910390a15092915050565b600060149054906101000a900460ff16612b34576040517f08c379a00000000000000000000000000000000000000000000000000000000081526004018080602001828103825260258152602001806139006025913960400191505060405180910390fd5b60011515600260003373ffffffffffffffffffffffffffffffffffffffff1673ffffffffffffffffffffffffffffffffffffffff16815260200190815260200160002060009054906101000a900460ff16151514612bdd576040517f08c379a00000000000000000000000000000000000000000000000000000000081526004018080602001828103825260298152602001806138926029913960400191505060405180910390fd5b60011515600360008673ffffffffffffffffffffffffffffffffffffffff1673ffffffffffffffffffffffffffffffffffffffff16815260200190815260200160002060000160009054906101000a900460ff16151514612ca6576040517f08c379a00000000000000000000000000000000000000000000000000000000081526004018080602001828103825260168152602001807f4169726c696e65206e6f7420726567697374657265640000000000000000000081525060200191505060405180910390fd5b60011515600360008673ffffffffffffffffffffffffffffffffffffffff1673ffffffffffffffffffffffffffffffffffffffff16815260200190815260200160002060000160019054906101000a900460ff16151514612d6f576040517f08c379a00000000000000000000000000000000000000000000000000000000081526004018080602001828103825260128152602001807f4169726c696e65206e6f742066756e646564000000000000000000000000000081525060200191505060405180910390fd5b6000612dc08585858080601f016020809104026020016040519081016040528093929190818152602001838380828437600081840152601f19601f82011690508083019250505050505050846134f8565b9050600115156006600083815260200190815260200160002060000160009054906101000a900460ff16151514612e5f576040517f08c379a00000000000000000000000000000000000000000000000000000000081526004018080602001828103825260158152602001807f466c69676874206e6f742072656769737465726564000000000000000000000081525060200191505060405180910390fd5b60008090505b600a805490508110156133925781600a600860008581526020019081526020016000205481548110612e9357fe5b9060005260206000209060070201600101541415613385576000612f056064612ef76096600a600860008981526020019081526020016000205481548110612ed757fe5b9060005260206000209060070201600501546135b490919063ffffffff16565b61363a90919063ffffffff16565b9050600d6040518060e00160405280600a600860008881526020019081526020016000205481548110612f3457fe5b906000526020600020906007020160000160009054906101000a900473ffffffffffffffffffffffffffffffffffffffff1673ffffffffffffffffffffffffffffffffffffffff168152602001600a600860008881526020019081526020016000205481548110612fa157fe5b9060005260206000209060070201600101548152602001600a600860008881526020019081526020016000205481548110612fd857fe5b90600052602060002090600702016002018054600181600116156101000203166002900480601f01602080910402602001604051908101604052809291908181526020018280546001816001161561010002031660029004801561307d5780601f106130525761010080835404028352916020019161307d565b820191906000526020600020905b81548152906001019060200180831161306057829003601f168201915b50505050508152602001600a6008600088815260200190815260200160002054815481106130a757fe5b906000526020600020906007020160030160009054906101000a900473ffffffffffffffffffffffffffffffffffffffff1673ffffffffffffffffffffffffffffffffffffffff168152602001600a60086000888152602001908152602001600020548154811061311457fe5b906000526020600020906007020160040154815260200183815260200160001515815250908060018154018082558091505060019003906000526020600020906007020160009091909190915060008201518160000160006101000a81548173ffffffffffffffffffffffffffffffffffffffff021916908373ffffffffffffffffffffffffffffffffffffffff1602179055506020820151816001015560408201518160020190805190602001906131ce9291906137ca565b5060608201518160030160006101000a81548173ffffffffffffffffffffffffffffffffffffffff021916908373ffffffffffffffffffffffffffffffffffffffff1602179055506080820151816004015560a0820151816005015560c08201518160060160006101000a81548160ff02191690831515021790555050506001600a60086000868152602001908152602001600020548154811061326e57fe5b906000526020600020906007020160060160006101000a81548160ff0219169083151502179055507f868591bb2b953c2ab9230c3d982fc24b5b255e5d8d9bcd0c1a5e6ad5cddccab6600a6008600086815260200190815260200160002054815481106132d757fe5b906000526020600020906007020160000160009054906101000a900473ffffffffffffffffffffffffffffffffffffffff16600a60086000878152602001908152602001600020548154811061332957fe5b906000526020600020906007020160050154604051808373ffffffffffffffffffffffffffffffffffffffff1673ffffffffffffffffffffffffffffffffffffffff1681526020018281526020019250505060405180910390a1505b8080600101915050612e65565b505050505050565b60008060149054906101000a900460ff16905090565b6000600360008373ffffffffffffffffffffffffffffffffffffffff1673ffffffffffffffffffffffffffffffffffffffff16815260200190815260200160002060000160019054906101000a900460ff169050919050565b6000600d600c60008473ffffffffffffffffffffffffffffffffffffffff1673ffffffffffffffffffffffffffffffffffffffff168152602001908152602001600020548154811061345757fe5b9060005260206000209060070201600501549050919050565b6000808284019050838110156134ee576040517f08c379a000000000000000000000000000000000000000000000000000000000815260040180806020018281038252601b8152602001807f536166654d6174683a206164646974696f6e206f766572666c6f77000000000081525060200191505060405180910390fd5b8091505092915050565b6000838383604051602001808473ffffffffffffffffffffffffffffffffffffffff1673ffffffffffffffffffffffffffffffffffffffff1660601b815260140183805190602001908083835b602083106135685780518252602082019150602081019050602083039250613545565b6001836020036101000a03801982511681845116808217855250505050505090500182815260200193505050506040516020818303038152906040528051906020012090509392505050565b6000808314156135c75760009050613634565b60008284029050828482816135d857fe5b041461362f576040517f08c379a00000000000000000000000000000000000000000000000000000000081526004018080602001828103825260218152602001806138df6021913960400191505060405180910390fd5b809150505b92915050565b600061367c83836040518060400160405280601a81526020017f536166654d6174683a206469766973696f6e206279207a65726f000000000000815250613684565b905092915050565b60008083118290613730576040517f08c379a00000000000000000000000000000000000000000000000000000000081526004018080602001828103825283818151815260200191508051906020019080838360005b838110156136f55780820151818401526020810190506136da565b50505050905090810190601f1680156137225780820380516001836020036101000a031916815260200191505b509250505060405180910390fd5b50600083858161373c57fe5b049050809150509392505050565b828054600181600116156101000203166002900490600052602060002090601f016020900481019282601f1061378b57803560ff19168380011785556137b9565b828001600101855582156137b9579182015b828111156137b857823582559160200191906001019061379d565b5b5090506137c6919061384a565b5090565b828054600181600116156101000203166002900490600052602060002090601f016020900481019282601f1061380b57805160ff1916838001178555613839565b82800160010185558215613839579182015b8281111561383857825182559160200191906001019061381d565b5b509050613846919061384a565b5090565b61386c91905b80821115613868576000816000905550600101613850565b5090565b9056fe466c696768742068617320616c7265616479206265656e207265676973746572656443616c6c6572206973206e6f742074686520617574686f72697a65642061707020636f6e74726163744169726c696e652052656769737465726572206973206e6f742072656769737465726564536166654d6174683a206d756c7469706c69636174696f6e206f766572666c6f77436f6e74726163742069732063757272656e746c79206e6f74206f7065726174696f6e616ca26469706673582212203f58e860daae54b9fb1136d38ab03410129e285bef54784da18bb4582542f39e64736f6c63430006020033",
  "source": "pragma solidity ^0.6;\n\nimport \"../node_modules/openzeppelin-solidity/contracts/math/SafeMath.sol\";\n\ncontract FlightSuretyData {\n    using SafeMath for uint256;\n\n    /********************************************************************************************/\n    /*                                       DATA VARIABLES                                     */\n    /********************************************************************************************/\n\n    address private contractOwner;\n    bool private operational = true;\n    uint private balance;\n    \n    // MSJ: Mapping contract address to authorizedContracts\n    mapping(address => bool) private authorizedContracts;\n\n    // MSJ: Airlines struct\n    struct Airline {\n        bool isRegistered;\n        bool isFunded;\n    }\n\n    // MSJ: Mapping the address of the airline with the airline's struct record\n    mapping(address => Airline) private airlines;\n\n    // MSJ: Array to keep track of registered + funded airlines\n    address[] airlinesRegistration;\n    address[] airlinesRegisteredFunded;\n\n    // MSJ: Flight status codees\n    uint8 private constant STATUS_CODE_UNKNOWN = 0;\n    uint8 private constant STATUS_CODE_ON_TIME = 10;\n    uint8 private constant STATUS_CODE_LATE_AIRLINE = 20;\n    uint8 private constant STATUS_CODE_LATE_WEATHER = 30;\n    uint8 private constant STATUS_CODE_LATE_TECHNICAL = 40;\n    uint8 private constant STATUS_CODE_LATE_OTHER = 50;\n\n    // MSJ: Flights struct\n    struct Flight {\n        bool isRegistered;\n        uint8 statusCode;\n        uint256 timestamp;   \n        address airline;\n        string flight;\n    }\n    \n    // MSJ: Mapping bytes32 to flights\n    mapping(bytes32 => Flight) private flights;\n    \n    // MSJ: Bytes32 data to keep track of registered flights\n    bytes32[] registeredFlights;\n\n    // MSJ: Insurance struct\n    struct Insurance {\n        address passenger;\n        bytes32 flightKey;\n        string flight;\n        address airline;\n        uint256 timestamp;        \n        uint256 amount;\n        bool isCredited;\n    }\n\n    // MSJ: Mappings\n    mapping (bytes32 => uint) private insuredFlightKey;\n    mapping (address => uint) private insuredPassenger;\n    Insurance[] insuredFlightKeyPassengers;\n\n    // MSJ: Pending Payments struct\n    struct PendingPayments {\n        address passenger;\n        bytes32 flightKey;\n        string flight;\n        address airline;\n        uint256 timestamp;        \n        uint256 amount;\n        bool isPaid;\n    }\n\n    // MSJ: Mappings\n    mapping (bytes32 => uint) private pendingPaymentFlightKey;\n    mapping (address => uint) private pendingPaymentPassenger;\n    PendingPayments[] pendingPaymentsFlightKeyPassengers;\n\n    /********************************************************************************************/\n    /*                                       EVENT DEFINITIONS                                  */\n    /********************************************************************************************/\n\n    // MSJ: Events\n    event AirlineRegistered(address registered, address registerer);\n    event AirlineFunded(address funded);\n    event FlightRegistered(bytes32 flightKey, string flight, uint256 timestamp, address registerer);\n    event InsurancePurchased(address passenger, bytes32 flightKey, string flight, address airline, uint256 timestamp);\n    event InsureeCredited(address passenger, uint256 amount);\n\n    /********************************************************************************************/\n    /*                                       CONSTRUCTOR                                        */\n    /********************************************************************************************/\n    \n    // MSJ: Constructor to set contract owner and first airline\n    constructor() public \n    {\n        contractOwner = msg.sender;\n\n        // MSJ: For first airline registration\n        registerFirstAirline(contractOwner);\n    }\n\n    /********************************************************************************************/\n    /*                                       FUNCTION MODIFIERS                                 */\n    /********************************************************************************************/\n\n    // MSJ: Modifier to check operating status\n    modifier requireIsOperational() \n    {\n        require(operational, \"Contract is currently not operational\");\n        _;\n    }\n\n    // MSJ: Modifier to check for contract owner\n    modifier requireContractOwner()\n    {\n        require(msg.sender == contractOwner, \"Caller is not contract owner\");\n        _;\n    }\n    \n    // MSJ: Modifier to only allow authorized contracts to call this contract\n    modifier requireIsCallerAuthorized() {\n        require(authorizedContracts[msg.sender] == true, 'Caller is not the authorized app contract');\n        _;\n    }\n    \n    // MSJ: Modifier to only allow registered + funded airlines to register other airlines\n    modifier requireAirlineRegisteredFunded(address registerer) {\n        require(airlines[registerer].isRegistered == true, 'Airline Registerer is not registered');\n        require(airlines[registerer].isFunded == true, 'Airline Registerer is not funded');\n        _;\n    }\n\n    /********************************************************************************************/\n    /*                                       UTILITY FUNCTIONS                                  */\n    /********************************************************************************************/\n    \n    function isOperational() public view returns(bool) \n    {\n        return operational;\n    }\n  \n    function setOperatingStatus(bool mode) external requireContractOwner \n    {\n        operational = mode;\n    }\n\n    // MSJ: Function to authorize contract(s) that can access this contract\n    function authorizeCaller(address appContract) external requireContractOwner \n    {\n        authorizedContracts[appContract] = true;\n    }\n\n    // MSJ: Function to authorize contract(s) that can access this contract\n    function deauthorizeCaller(address appContract) external requireContractOwner \n    {\n        authorizedContracts[appContract] = false;\n    }\n\n    // MSJ: Function to register first airline\n    function registerFirstAirline(address firstAirline) internal requireContractOwner\n    {\n        airlines[firstAirline].isRegistered = true;\n        airlines[firstAirline].isFunded = true; \n        airlinesRegistration.push(firstAirline); \n        airlinesRegisteredFunded.push(firstAirline); \n    }\n\n    // MSJ: Function to verify address is registered\n    function isAirlineRegistered(address airline) external view returns(bool) \n    {     \n        return airlines[airline].isRegistered;\n    }\n\n    // MSJ: Function to verify address is Funded\n    function isAirlineFunded(address airline) external view returns(bool) \n    {     \n        return airlines[airline].isFunded;\n    }\n\n    // MSJ: Get list of registered airlines\n    function getAirlinesRegistration() external view returns(address[] memory) \n    {\n        return airlinesRegistration;\n    }\n\n    // MSJ: Get list of funded airlines\n    function getAirlinesRegisteredFunded() external view returns(address[] memory) \n    {\n        return airlinesRegisteredFunded;\n    }\n\n    // MSJ: Get list of registered flights\n    function getRegisteredFlights() external view returns(bytes32[] memory)\n    {\n        return registeredFlights;\n    }\n    \n    // MSJ: Function to verify flight is registered\n    function isFlightRegistered(bytes32 flightkey) external view returns(bool) \n    {     \n        return flights[flightkey].isRegistered;\n    }\n\n    function _getFlightKey(address airline, string calldata flight, uint256 timestamp) external pure returns(bytes32) \n    {\n        return keccak256(abi.encodePacked(airline, flight, timestamp));\n    }\n\n    // MSJ: Update flight status code\n    function updateFlightStatusCode(bytes32 flightkey, uint8 statusCode) external \n    {     \n       flights[flightkey].statusCode = statusCode;\n       \n       //return flights[flightkey].statusCode;\n    }\n\n    // MSJ: Get flight status code\n    function getFlightStatusCode(bytes32 flightkey) external view returns(uint8) \n    {     \n        return flights[flightkey].statusCode;\n    }\n    \n    // MSJ: Function to check if passenger is insured\n    function isInsured(address passenger, address airline, string calldata flight, uint256 timestamp) external view returns (bool) \n    {\n        bytes32 flightKey = getFlightKey(airline, flight, timestamp);\n        \n        if(insuredFlightKeyPassengers[insuredFlightKey[flightKey]].passenger == passenger)\n        {\n            return true;\n        }\n        \n        return false;\n    }\n    \n    // MSJ: Function to get pending payment\n    function getPendingPayment(address passenger) external view returns (uint256)\n    {\n        return pendingPaymentsFlightKeyPassengers[pendingPaymentPassenger[passenger]].amount;\n    }\n    \n    /********************************************************************************************/\n    /*                                     SMART CONTRACT FUNCTIONS                             */\n    /********************************************************************************************/\n\n    // MSJ: Register Airline\n    function registerAirline(address applicant, address registerer) external \n             requireIsOperational\n             requireIsCallerAuthorized\n             requireAirlineRegisteredFunded(registerer) \n             returns(bool)\n    {\n        //bool status = true;\n\n        require(airlines[applicant].isRegistered == false, 'Airline is already registered');\n\n        airlines[applicant] = Airline({\n            isRegistered: true, \n            isFunded: false\n        });\n\n        airlinesRegistration.push(applicant); \n\n        emit AirlineRegistered(applicant, registerer);\n\n        // return status;\n    }\n\n    // MSJ: Fund Airline\n    function submitAirlineFunding(address airline) external payable\n             requireIsOperational\n             requireIsCallerAuthorized\n             returns(bool)\n    {\n        // MSJ: Airline has to be registered\n        require(airlines[airline].isRegistered == true, 'Airline not registered');\n \n        airlines[airline].isFunded = true;\n        airlinesRegisteredFunded.push(airline); \n        \n        emit AirlineFunded(airline);\n        return true;\n    }\n\n    // MSJ: Register Flight\n    function registerFlight(string calldata flight, uint256 timestamp, address registerer) external \n             requireIsOperational\n             requireIsCallerAuthorized\n             requireAirlineRegisteredFunded(registerer)\n    {\n        // MSJ: Only registered + funded airlines can register\n        require(airlines[registerer].isRegistered == true, 'Airline not registered');\n        require(airlines[registerer].isFunded == true, 'Airline not funded');\n\n        // MSJ: Check that flight has not been registered yet\n        bytes32 flightKey = getFlightKey(registerer, flight, timestamp);\n        require(flights[flightKey].isRegistered == false, \"Flight has already been registered\");\n        \n        flights[flightKey].flight = flight;\n        flights[flightKey].timestamp = timestamp;\n        flights[flightKey].airline = registerer;\n        flights[flightKey].isRegistered = true;\n        flights[flightKey].statusCode = STATUS_CODE_UNKNOWN;\n\n        registeredFlights.push(flightKey); \n\n        emit FlightRegistered(flightKey, flight, timestamp, registerer);\n\n    }\n\n    function getFlightKey(address airline, string memory flight, uint256 timestamp) pure internal returns(bytes32)\n    {\n        return keccak256(abi.encodePacked(airline, flight, timestamp));\n    }\n    \n    // MSJ: To credit all insurees for airline fault delay for applicable flight\n    function creditInsurees(address airline, string calldata flight, uint256 timestamp) external requireIsOperational requireIsCallerAuthorized \n    {\n        // MSJ: Check whether airlines is registered + funded\n        require(airlines[airline].isRegistered == true, 'Airline not registered');\n        require(airlines[airline].isFunded == true, 'Airline not funded');\n\n        // MSJ: Check whether flight is registered\n        bytes32 flightKey = getFlightKey(airline, flight, timestamp);\n        require(flights[flightKey].isRegistered == true, \"Flight not registered\");\n        \n        // MSJ: Loop through all insurees who purchased insurance for this flight\n        for (uint i = 0; i < insuredFlightKeyPassengers.length; i++)\n        {\n            if(insuredFlightKeyPassengers[insuredFlightKey[flightKey]].flightKey == flightKey)\n            {\n                // MSJ: Add record to PendingPayments\n                uint256 amount = insuredFlightKeyPassengers[insuredFlightKey[flightKey]].amount.mul(150).div(100);\n                \n                pendingPaymentsFlightKeyPassengers.push(PendingPayments(\n                                                            insuredFlightKeyPassengers[insuredFlightKey[flightKey]].passenger, \n                                                            insuredFlightKeyPassengers[insuredFlightKey[flightKey]].flightKey, \n                                                            insuredFlightKeyPassengers[insuredFlightKey[flightKey]].flight, \n                                                            insuredFlightKeyPassengers[insuredFlightKey[flightKey]].airline, \n                                                            insuredFlightKeyPassengers[insuredFlightKey[flightKey]].timestamp, \n                                                            amount,\n                                                            false));\n                \n                // MSJ: Update isCredited record\n                insuredFlightKeyPassengers[insuredFlightKey[flightKey]].isCredited = true;\n                emit InsureeCredited(insuredFlightKeyPassengers[insuredFlightKey[flightKey]].passenger, insuredFlightKeyPassengers[insuredFlightKey[flightKey]].amount);\n            }\n        }\n    }\n    \n    // MSJ: For passenger to buy insurance\n    function buy(address passenger, string calldata flight, address airline, uint256 timestamp, uint256 amount) external payable\n             requireIsOperational\n             requireIsCallerAuthorized\n             returns(bool)\n    {        \n        // MSJ: Check whether airlines is registered + funded\n        require(airlines[airline].isRegistered == true, 'Airline not registered');\n        require(airlines[airline].isFunded == true, 'Airline not funded');\n\n        // MSJ: Check whether flight is registered\n        bytes32 flightKey = getFlightKey(airline, flight, timestamp);\n        require(flights[flightKey].isRegistered == true, \"Flight not registered\");\n\n        // MSJ: Add insured flightKey record\n        insuredFlightKeyPassengers.push(Insurance(passenger, flightKey, flight, airline, timestamp, amount, false));\n\n        emit InsurancePurchased(passenger, flightKey, flight, airline, timestamp);\n        return true;\n    }\n\n    function pay(address passenger) external payable requireIsOperational requireIsCallerAuthorized returns(uint256)\n    {\n        require(pendingPaymentsFlightKeyPassengers[pendingPaymentPassenger[passenger]].isPaid == false, \"No eligible for credit\");\n\n        uint256 amount = pendingPaymentsFlightKeyPassengers[pendingPaymentPassenger[passenger]].amount;\n        \n        pendingPaymentsFlightKeyPassengers[pendingPaymentPassenger[passenger]].isPaid = true;\n        pendingPaymentsFlightKeyPassengers[pendingPaymentPassenger[passenger]].amount = 0;\n        \n        return amount;\n    }\n    \n    function getPassengerFunds(address passenger) external view returns(uint) \n    {\n        return passenger.balance;\n    }\n    \n    function getContractBalance() external view returns(uint) \n    {\n        return address(this).balance;\n    }\n    \n    // MSJ: Function to fund contract\n    function fund(uint256 amount) internal\n    {\n        balance = balance.add(amount);\n    }\n    \n    // MSJ: Fallback\n    fallback() external payable {\n        fund(msg.value);\n    }\n    \n    // MSJ: Fallback\n    receive() external payable {\n        fund(msg.value);\n    }\n\n}\n\n",
  "sourcePath": "C:\\Users\\marco\\Documents\\bc_proj\\bcnd-p4-master\\contracts\\FlightSuretyData.sol",
  "compiler": {
    "name": "solc",
    "version": "0.6.2+commit.bacdbe57.Emscripten.clang"
  },
  "schemaVersion": "3.0.23",
  "updatedAt": "2020-07-11T16:15:16.887Z",
  "networkType": "ethereum",
  "devdoc": {
    "methods": {}
  },
  "userdoc": {
    "methods": {
      "constructor": "*****************************************************************************************",
      "isOperational()": {
        "notice": "*****************************************************************************************"
      },
      "registerAirline(address,address)": {
        "notice": "*****************************************************************************************"
      }
    }
  }
}