{
  "contractName": "FlightSuretyData",
  "abi": [
    {
      "inputs": [],
      "stateMutability": "nonpayable",
      "type": "constructor"
    },
    {
      "anonymous": false,
      "inputs": [
        {
          "indexed": false,
          "internalType": "address",
          "name": "funded",
          "type": "address"
        }
      ],
      "name": "AirlineFunded",
      "type": "event"
    },
    {
      "anonymous": false,
      "inputs": [
        {
          "indexed": false,
          "internalType": "address",
          "name": "registered",
          "type": "address"
        },
        {
          "indexed": false,
          "internalType": "address",
          "name": "registerer",
          "type": "address"
        }
      ],
      "name": "AirlineRegistered",
      "type": "event"
    },
    {
      "stateMutability": "payable",
      "type": "fallback",
      "payable": true
    },
    {
      "stateMutability": "payable",
      "type": "receive",
      "payable": true
    },
    {
      "inputs": [],
      "name": "isOperational",
      "outputs": [
        {
          "internalType": "bool",
          "name": "",
          "type": "bool"
        }
      ],
      "stateMutability": "view",
      "type": "function",
      "constant": true
    },
    {
      "inputs": [
        {
          "internalType": "bool",
          "name": "mode",
          "type": "bool"
        }
      ],
      "name": "setOperatingStatus",
      "outputs": [],
      "stateMutability": "nonpayable",
      "type": "function"
    },
    {
      "inputs": [
        {
          "internalType": "address",
          "name": "appContract",
          "type": "address"
        }
      ],
      "name": "authorizeCaller",
      "outputs": [],
      "stateMutability": "nonpayable",
      "type": "function"
    },
    {
      "inputs": [
        {
          "internalType": "address",
          "name": "appContract",
          "type": "address"
        }
      ],
      "name": "deauthorizeCaller",
      "outputs": [],
      "stateMutability": "nonpayable",
      "type": "function"
    },
    {
      "inputs": [
        {
          "internalType": "address",
          "name": "airline",
          "type": "address"
        }
      ],
      "name": "isAirlineRegistered",
      "outputs": [
        {
          "internalType": "bool",
          "name": "",
          "type": "bool"
        }
      ],
      "stateMutability": "view",
      "type": "function",
      "constant": true
    },
    {
      "inputs": [
        {
          "internalType": "address",
          "name": "airline",
          "type": "address"
        }
      ],
      "name": "isAirlineFunded",
      "outputs": [
        {
          "internalType": "bool",
          "name": "",
          "type": "bool"
        }
      ],
      "stateMutability": "view",
      "type": "function",
      "constant": true
    },
    {
      "inputs": [],
      "name": "getAirlinesRegistration",
      "outputs": [
        {
          "internalType": "address[]",
          "name": "",
          "type": "address[]"
        }
      ],
      "stateMutability": "view",
      "type": "function",
      "constant": true
    },
    {
      "inputs": [],
      "name": "getAirlinesRegisteredFunded",
      "outputs": [
        {
          "internalType": "address[]",
          "name": "",
          "type": "address[]"
        }
      ],
      "stateMutability": "view",
      "type": "function",
      "constant": true
    },
    {
      "inputs": [
        {
          "internalType": "address",
          "name": "applicant",
          "type": "address"
        },
        {
          "internalType": "address",
          "name": "registerer",
          "type": "address"
        }
      ],
      "name": "registerAirline",
      "outputs": [
        {
          "internalType": "bool",
          "name": "",
          "type": "bool"
        }
      ],
      "stateMutability": "nonpayable",
      "type": "function"
    },
    {
      "inputs": [
        {
          "internalType": "address",
          "name": "airline",
          "type": "address"
        }
      ],
      "name": "fundAirline",
      "outputs": [
        {
          "internalType": "bool",
          "name": "",
          "type": "bool"
        }
      ],
      "stateMutability": "payable",
      "type": "function",
      "payable": true
    },
    {
      "inputs": [],
      "name": "buy",
      "outputs": [],
      "stateMutability": "payable",
      "type": "function",
      "payable": true
    },
    {
      "inputs": [],
      "name": "creditInsurees",
      "outputs": [],
      "stateMutability": "pure",
      "type": "function",
      "constant": true
    },
    {
      "inputs": [],
      "name": "pay",
      "outputs": [],
      "stateMutability": "pure",
      "type": "function",
      "constant": true
    }
  ],
  "bytecode": "0x60806040526001600060146101000a81548160ff0219169083151502179055506000604051908082528060200260200182016040528015620000505781602001602082028038833980820191505090505b5060049080519060200190620000689291906200037b565b5060006040519080825280602002602001820160405280156200009a5781602001602082028038833980820191505090505b5060059080519060200190620000b29291906200037b565b50348015620000c057600080fd5b50336000806101000a81548173ffffffffffffffffffffffffffffffffffffffff021916908373ffffffffffffffffffffffffffffffffffffffff160217905550620001336000809054906101000a900473ffffffffffffffffffffffffffffffffffffffff166200013960201b60201c565b62000450565b6000809054906101000a900473ffffffffffffffffffffffffffffffffffffffff1673ffffffffffffffffffffffffffffffffffffffff163373ffffffffffffffffffffffffffffffffffffffff1614620001fc576040517f08c379a000000000000000000000000000000000000000000000000000000000815260040180806020018281038252601c8152602001807f43616c6c6572206973206e6f7420636f6e7472616374206f776e65720000000081525060200191505060405180910390fd5b6001600360008373ffffffffffffffffffffffffffffffffffffffff1673ffffffffffffffffffffffffffffffffffffffff16815260200190815260200160002060000160006101000a81548160ff0219169083151502179055506001600360008373ffffffffffffffffffffffffffffffffffffffff1673ffffffffffffffffffffffffffffffffffffffff16815260200190815260200160002060000160016101000a81548160ff0219169083151502179055506004819080600181540180825580915050600190039060005260206000200160009091909190916101000a81548173ffffffffffffffffffffffffffffffffffffffff021916908373ffffffffffffffffffffffffffffffffffffffff1602179055506005819080600181540180825580915050600190039060005260206000200160009091909190916101000a81548173ffffffffffffffffffffffffffffffffffffffff021916908373ffffffffffffffffffffffffffffffffffffffff16021790555050565b828054828255906000526020600020908101928215620003f7579160200282015b82811115620003f65782518260006101000a81548173ffffffffffffffffffffffffffffffffffffffff021916908373ffffffffffffffffffffffffffffffffffffffff160217905550916020019190600101906200039c565b5b5090506200040691906200040a565b5090565b6200044d91905b808211156200044957600081816101000a81549073ffffffffffffffffffffffffffffffffffffffff02191690555060010162000411565b5090565b90565b61135680620004606000396000f3fe6080604052600436106100c65760003560e01c80636873c21d1161007f578063a6f2ae3a11610059578063a6f2ae3a1461038b578063c7ba501814610395578063cd905dff1461041e578063f53b6d651461044d576100d6565b80636873c21d146102725780636fbb8798146102c35780637a6002421461031f576100d6565b8063010c5c97146100e1578063110466ed1461014a5780631b9265b8146101875780631cebb54d1461019e5780632c388d5d1461020a57806336cee4841461025b576100d6565b366100d6576100d4346104b6565b005b6100df346104b6565b005b3480156100ed57600080fd5b506101306004803603602081101561010457600080fd5b81019080803573ffffffffffffffffffffffffffffffffffffffff1690602001909291905050506104d4565b604051808215151515815260200191505060405180910390f35b34801561015657600080fd5b506101856004803603602081101561016d57600080fd5b8101908080351515906020019092919050505061052d565b005b34801561019357600080fd5b5061019c61060c565b005b3480156101aa57600080fd5b506101b361060e565b6040518080602001828103825283818151815260200191508051906020019060200280838360005b838110156101f65780820151818401526020810190506101db565b505050509050019250505060405180910390f35b34801561021657600080fd5b506102596004803603602081101561022d57600080fd5b81019080803573ffffffffffffffffffffffffffffffffffffffff16906020019092919050505061069c565b005b34801561026757600080fd5b506102706107b9565b005b34801561027e57600080fd5b506102c16004803603602081101561029557600080fd5b81019080803573ffffffffffffffffffffffffffffffffffffffff1690602001909291905050506107bb565b005b610305600480360360208110156102d957600080fd5b81019080803573ffffffffffffffffffffffffffffffffffffffff1690602001909291905050506108d8565b604051808215151515815260200191505060405180910390f35b34801561032b57600080fd5b50610334610c2a565b6040518080602001828103825283818151815260200191508051906020019060200280838360005b8381101561037757808201518184015260208101905061035c565b505050509050019250505060405180910390f35b610393610cb8565b005b3480156103a157600080fd5b50610404600480360360408110156103b857600080fd5b81019080803573ffffffffffffffffffffffffffffffffffffffff169060200190929190803573ffffffffffffffffffffffffffffffffffffffff169060200190929190505050610cba565b604051808215151515815260200191505060405180910390f35b34801561042a57600080fd5b506104336111b7565b604051808215151515815260200191505060405180910390f35b34801561045957600080fd5b5061049c6004803603602081101561047057600080fd5b81019080803573ffffffffffffffffffffffffffffffffffffffff1690602001909291905050506111cd565b604051808215151515815260200191505060405180910390f35b6104cb8160015461122690919063ffffffff16565b60018190555050565b6000600360008373ffffffffffffffffffffffffffffffffffffffff1673ffffffffffffffffffffffffffffffffffffffff16815260200190815260200160002060000160009054906101000a900460ff169050919050565b6000809054906101000a900473ffffffffffffffffffffffffffffffffffffffff1673ffffffffffffffffffffffffffffffffffffffff163373ffffffffffffffffffffffffffffffffffffffff16146105ef576040517f08c379a000000000000000000000000000000000000000000000000000000000815260040180806020018281038252601c8152602001807f43616c6c6572206973206e6f7420636f6e7472616374206f776e65720000000081525060200191505060405180910390fd5b80600060146101000a81548160ff02191690831515021790555050565b565b6060600580548060200260200160405190810160405280929190818152602001828054801561069257602002820191906000526020600020905b8160009054906101000a900473ffffffffffffffffffffffffffffffffffffffff1673ffffffffffffffffffffffffffffffffffffffff1681526020019060010190808311610648575b5050505050905090565b6000809054906101000a900473ffffffffffffffffffffffffffffffffffffffff1673ffffffffffffffffffffffffffffffffffffffff163373ffffffffffffffffffffffffffffffffffffffff161461075e576040517f08c379a000000000000000000000000000000000000000000000000000000000815260040180806020018281038252601c8152602001807f43616c6c6572206973206e6f7420636f6e7472616374206f776e65720000000081525060200191505060405180910390fd5b6001600260008373ffffffffffffffffffffffffffffffffffffffff1673ffffffffffffffffffffffffffffffffffffffff16815260200190815260200160002060006101000a81548160ff02191690831515021790555050565b565b6000809054906101000a900473ffffffffffffffffffffffffffffffffffffffff1673ffffffffffffffffffffffffffffffffffffffff163373ffffffffffffffffffffffffffffffffffffffff161461087d576040517f08c379a000000000000000000000000000000000000000000000000000000000815260040180806020018281038252601c8152602001807f43616c6c6572206973206e6f7420636f6e7472616374206f776e65720000000081525060200191505060405180910390fd5b6000600260008373ffffffffffffffffffffffffffffffffffffffff1673ffffffffffffffffffffffffffffffffffffffff16815260200190815260200160002060006101000a81548160ff02191690831515021790555050565b60008060149054906101000a900460ff1661093e576040517f08c379a00000000000000000000000000000000000000000000000000000000081526004018080602001828103825260258152602001806112fc6025913960400191505060405180910390fd5b60011515600260003373ffffffffffffffffffffffffffffffffffffffff1673ffffffffffffffffffffffffffffffffffffffff16815260200190815260200160002060009054906101000a900460ff161515146109e7576040517f08c379a00000000000000000000000000000000000000000000000000000000081526004018080602001828103825260298152602001806112af6029913960400191505060405180910390fd5b60011515600360008473ffffffffffffffffffffffffffffffffffffffff1673ffffffffffffffffffffffffffffffffffffffff16815260200190815260200160002060000160009054906101000a900460ff16151514610ab0576040517f08c379a00000000000000000000000000000000000000000000000000000000081526004018080602001828103825260168152602001807f4169726c696e65206e6f7420726567697374657265640000000000000000000081525060200191505060405180910390fd5b6001600360008473ffffffffffffffffffffffffffffffffffffffff1673ffffffffffffffffffffffffffffffffffffffff16815260200190815260200160002060000160016101000a81548160ff02191690831515021790555034600360008473ffffffffffffffffffffffffffffffffffffffff1673ffffffffffffffffffffffffffffffffffffffff168152602001908152602001600020600101600082825401925050819055506005829080600181540180825580915050600190039060005260206000200160009091909190916101000a81548173ffffffffffffffffffffffffffffffffffffffff021916908373ffffffffffffffffffffffffffffffffffffffff1602179055507f3c348ba34685212d5d04f432a9e569b642b180df0227a6b0c899050c4acb7af882604051808273ffffffffffffffffffffffffffffffffffffffff1673ffffffffffffffffffffffffffffffffffffffff16815260200191505060405180910390a160019050919050565b60606004805480602002602001604051908101604052809291908181526020018280548015610cae57602002820191906000526020600020905b8160009054906101000a900473ffffffffffffffffffffffffffffffffffffffff1673ffffffffffffffffffffffffffffffffffffffff1681526020019060010190808311610c64575b5050505050905090565b565b60008060149054906101000a900460ff16610d20576040517f08c379a00000000000000000000000000000000000000000000000000000000081526004018080602001828103825260258152602001806112fc6025913960400191505060405180910390fd5b60011515600260003373ffffffffffffffffffffffffffffffffffffffff1673ffffffffffffffffffffffffffffffffffffffff16815260200190815260200160002060009054906101000a900460ff16151514610dc9576040517f08c379a00000000000000000000000000000000000000000000000000000000081526004018080602001828103825260298152602001806112af6029913960400191505060405180910390fd5b8160011515600360008373ffffffffffffffffffffffffffffffffffffffff1673ffffffffffffffffffffffffffffffffffffffff16815260200190815260200160002060000160009054906101000a900460ff16151514610e76576040517f08c379a00000000000000000000000000000000000000000000000000000000081526004018080602001828103825260248152602001806112d86024913960400191505060405180910390fd5b60011515600360008373ffffffffffffffffffffffffffffffffffffffff1673ffffffffffffffffffffffffffffffffffffffff16815260200190815260200160002060000160019054906101000a900460ff16151514610f3f576040517f08c379a00000000000000000000000000000000000000000000000000000000081526004018080602001828103825260208152602001807f4169726c696e652052656769737465726572206973206e6f742066756e64656481525060200191505060405180910390fd5b60001515600360008673ffffffffffffffffffffffffffffffffffffffff1673ffffffffffffffffffffffffffffffffffffffff16815260200190815260200160002060000160009054906101000a900460ff16151514611008576040517f08c379a000000000000000000000000000000000000000000000000000000000815260040180806020018281038252601d8152602001807f4169726c696e6520697320616c7265616479207265676973746572656400000081525060200191505060405180910390fd5b60405180606001604052806001151581526020016000151581526020016000815250600360008673ffffffffffffffffffffffffffffffffffffffff1673ffffffffffffffffffffffffffffffffffffffff16815260200190815260200160002060008201518160000160006101000a81548160ff02191690831515021790555060208201518160000160016101000a81548160ff021916908315150217905550604082015181600101559050506004849080600181540180825580915050600190039060005260206000200160009091909190916101000a81548173ffffffffffffffffffffffffffffffffffffffff021916908373ffffffffffffffffffffffffffffffffffffffff1602179055507f3bfdb99fbcef24ea247a0804fbb61674b13e92dafc59610dfcac7321d700796a8484604051808373ffffffffffffffffffffffffffffffffffffffff1673ffffffffffffffffffffffffffffffffffffffff1681526020018273ffffffffffffffffffffffffffffffffffffffff1673ffffffffffffffffffffffffffffffffffffffff1681526020019250505060405180910390a15092915050565b60008060149054906101000a900460ff16905090565b6000600360008373ffffffffffffffffffffffffffffffffffffffff1673ffffffffffffffffffffffffffffffffffffffff16815260200190815260200160002060000160019054906101000a900460ff169050919050565b6000808284019050838110156112a4576040517f08c379a000000000000000000000000000000000000000000000000000000000815260040180806020018281038252601b8152602001807f536166654d6174683a206164646974696f6e206f766572666c6f77000000000081525060200191505060405180910390fd5b809150509291505056fe43616c6c6572206973206e6f742074686520617574686f72697a65642061707020636f6e74726163744169726c696e652052656769737465726572206973206e6f742072656769737465726564436f6e74726163742069732063757272656e746c79206e6f74206f7065726174696f6e616ca26469706673582212208a42ef3f638f900ad506279f4988a07b32f84b7e520b99bdb1c160e57d1cea1e64736f6c63430006020033",
  "source": "pragma solidity ^0.6;\n\nimport \"../node_modules/openzeppelin-solidity/contracts/math/SafeMath.sol\";\n\ncontract FlightSuretyData {\n    using SafeMath for uint256;\n\n    /********************************************************************************************/\n    /*                                       DATA VARIABLES                                     */\n    /********************************************************************************************/\n\n    address private contractOwner; \n    bool private operational = true;\n    uint private balance;\n\n    // MSJ: Mapping contract address to authorizedContracts\n    mapping(address => bool) private authorizedContracts;\n\n    // MSJ: Airlines struct\n    struct Airline {\n        bool isRegistered;\n        bool isFunded;\n        uint256 deposit;\n    }\n\n    // MSJ: Mapping the address of the airline with the airline's struct record\n    mapping(address => Airline) private airlines;\n\n    // MSJ: Array to keep track of registered + funded airlines\n    address[] airlinesRegistration = new address[](0);\n    address[] airlinesRegisteredFunded = new address[](0);\n\n    /********************************************************************************************/\n    /*                                       EVENT DEFINITIONS                                  */\n    /********************************************************************************************/\n\n    event AirlineRegistered(address registered, address registerer);\n    event AirlineFunded(address funded);\n\n    /********************************************************************************************/\n    /*                                       CONSTRUCTOR                                        */\n    /********************************************************************************************/\n    \n    // MSJ: Constructor to set contract owner and first airline\n    constructor() public \n    {\n        contractOwner = msg.sender;\n\n        // MSJ: For first airline registration\n        registerFirstAirline(contractOwner);\n    }\n\n    /********************************************************************************************/\n    /*                                       FUNCTION MODIFIERS                                 */\n    /********************************************************************************************/\n\n    modifier requireIsOperational() \n    {\n        require(operational, \"Contract is currently not operational\");\n        _;\n    }\n\n    modifier requireContractOwner()\n    {\n        require(msg.sender == contractOwner, \"Caller is not contract owner\");\n        _;\n    }\n\n    // MSJ: Modifier to only allow authorized contracts to call this contract\n    modifier requireIsCallerAuthorized() {\n        require(authorizedContracts[msg.sender] == true, 'Caller is not the authorized app contract');\n        _;\n    }\n\n    // MSJ: Modifier to only allow registered + funded airlines to register other airlines\n    modifier requireAirlineRegisteredFunded(address airline) {\n        require(airlines[airline].isRegistered == true, 'Airline Registerer is not registered');\n        require(airlines[airline].isFunded == true, 'Airline Registerer is not funded');\n        _;\n    }\n\n    /********************************************************************************************/\n    /*                                       UTILITY FUNCTIONS                                  */\n    /********************************************************************************************/\n    \n    function isOperational() public view returns(bool) \n    {\n        return operational;\n    }\n  \n    function setOperatingStatus(bool mode) external requireContractOwner \n    {\n        operational = mode;\n    }\n\n    // MSJ: Function to authorize contract(s) that can access this contract\n    function authorizeCaller(address appContract) external requireContractOwner \n    {\n        authorizedContracts[appContract] = true;\n    }\n\n    // MSJ: Function to authorize contract(s) that can access this contract\n    function deauthorizeCaller(address appContract) external requireContractOwner \n    {\n        authorizedContracts[appContract] = false;\n    }\n\n    // MSJ: Function to register first airline\n    function registerFirstAirline(address firstAirline) internal requireContractOwner\n    {\n        airlines[firstAirline].isRegistered = true;\n        airlines[firstAirline].isFunded = true; \n        airlinesRegistration.push(firstAirline); \n        airlinesRegisteredFunded.push(firstAirline); \n    }\n\n    // MSJ: Function to verify address is registered\n    function isAirlineRegistered(address airline) external view returns(bool) \n    {     \n        return airlines[airline].isRegistered;\n    }\n\n    // MSJ: Function to verify address is Funded\n    function isAirlineFunded(address airline) external view returns(bool) \n    {     \n        return airlines[airline].isFunded;\n    }\n\n    // MSJ: Get list of registered airlines\n    function getAirlinesRegistration() external view returns(address[] memory) \n    {\n        return airlinesRegistration;\n    }\n\n    // MSJ: Get list of funded airlines\n    function getAirlinesRegisteredFunded() external view returns(address[] memory) \n    {\n        return airlinesRegisteredFunded;\n    }\n\n    /********************************************************************************************/\n    /*                                     SMART CONTRACT FUNCTIONS                             */\n    /********************************************************************************************/\n\n    // MSJ: Register Airline\n    function registerAirline(address applicant, address registerer) external \n             requireIsOperational\n             requireIsCallerAuthorized\n             requireAirlineRegisteredFunded(registerer) \n             returns(bool)\n    {\n        //bool status = true;\n\n        require(airlines[applicant].isRegistered == false, 'Airline is already registered');\n\n        airlines[applicant] = Airline({\n            isRegistered: true, \n            isFunded: false,\n            deposit: 0\n        });\n\n        airlinesRegistration.push(applicant); \n\n        emit AirlineRegistered(applicant, registerer);\n\n        // return status;\n    }\n\n    // MSJ: Fund Airline\n    function fundAirline(address airline) external payable\n             requireIsOperational\n             requireIsCallerAuthorized\n             returns(bool)\n    {\n        require(airlines[airline].isRegistered == true, 'Airline not registered');\n \n        airlines[airline].isFunded = true;\n        airlines[airline].deposit += msg.value;\n        airlinesRegisteredFunded.push(airline); \n        \n        emit AirlineFunded(airline);\n        return true;\n    }\n\n   /**\n    * @dev Buy insurance for a flight\n    *\n    */   \n    function buy() external payable\n    {\n\n    }\n\n    /**\n     *  @dev Credits payouts to insurees\n    */\n    function creditInsurees() external pure\n    {\n    }\n    \n\n    /**\n     *  @dev Transfers eligible payout funds to insuree\n     *\n    */\n    function pay() external pure\n    {\n    }\n\n    // MSJ: Function to fund contract\n    function fund(uint256 amount) internal\n    {\n        balance = balance.add(amount);\n    }\n    \n    // MSJ: Fallback\n    fallback() external payable {\n        fund(msg.value);\n    }\n    \n    // MSJ: Fallback\n    receive() external payable {\n        fund(msg.value);\n    }\n\n    function getFlightKey(address airline, string memory flight, uint256 timestamp) pure internal returns(bytes32) \n    {\n        return keccak256(abi.encodePacked(airline, flight, timestamp));\n    }\n\n}\n\n",
  "sourcePath": "C:\\Users\\marco\\Documents\\bc_proj\\ud-bcnd-project-4\\contracts\\FlightSuretyData.sol",
  "compiler": {
    "name": "solc",
    "version": "0.6.2+commit.bacdbe57.Emscripten.clang"
  },
  "schemaVersion": "3.0.23",
  "updatedAt": "2020-07-02T02:00:56.158Z",
  "networkType": "ethereum",
  "devdoc": {
    "methods": {
      "buy()": {
        "details": "Buy insurance for a flight    "
      },
      "creditInsurees()": {
        "details": "Credits payouts to insurees"
      },
      "pay()": {
        "details": "Transfers eligible payout funds to insuree    "
      }
    }
  },
  "userdoc": {
    "methods": {
      "constructor": "*****************************************************************************************",
      "isOperational()": {
        "notice": "*****************************************************************************************"
      },
      "registerAirline(address,address)": {
        "notice": "*****************************************************************************************"
      }
    }
  }
}