{
  "contractName": "FlightSuretyApp",
  "abi": [
    {
      "inputs": [
        {
          "internalType": "address payable",
          "name": "dataContract",
          "type": "address"
        }
      ],
      "stateMutability": "nonpayable",
      "type": "constructor"
    },
    {
      "anonymous": false,
      "inputs": [
        {
          "indexed": false,
          "internalType": "address",
          "name": "queued",
          "type": "address"
        },
        {
          "indexed": false,
          "internalType": "address",
          "name": "registerer",
          "type": "address"
        }
      ],
      "name": "AirlineRegistrationQueued",
      "type": "event"
    },
    {
      "anonymous": false,
      "inputs": [
        {
          "indexed": false,
          "internalType": "string",
          "name": "flight",
          "type": "string"
        },
        {
          "indexed": false,
          "internalType": "uint256",
          "name": "timestamp",
          "type": "uint256"
        },
        {
          "indexed": false,
          "internalType": "address",
          "name": "airline",
          "type": "address"
        }
      ],
      "name": "FlightRegistered",
      "type": "event"
    },
    {
      "anonymous": false,
      "inputs": [
        {
          "indexed": false,
          "internalType": "address",
          "name": "airline",
          "type": "address"
        },
        {
          "indexed": false,
          "internalType": "string",
          "name": "flight",
          "type": "string"
        },
        {
          "indexed": false,
          "internalType": "uint256",
          "name": "timestamp",
          "type": "uint256"
        },
        {
          "indexed": false,
          "internalType": "uint8",
          "name": "status",
          "type": "uint8"
        }
      ],
      "name": "FlightStatusInfo",
      "type": "event"
    },
    {
      "anonymous": false,
      "inputs": [
        {
          "indexed": false,
          "internalType": "address",
          "name": "airline",
          "type": "address"
        },
        {
          "indexed": false,
          "internalType": "string",
          "name": "flight",
          "type": "string"
        },
        {
          "indexed": false,
          "internalType": "uint256",
          "name": "timestamp",
          "type": "uint256"
        },
        {
          "indexed": false,
          "internalType": "uint8",
          "name": "status",
          "type": "uint8"
        }
      ],
      "name": "OracleReport",
      "type": "event"
    },
    {
      "anonymous": false,
      "inputs": [
        {
          "indexed": false,
          "internalType": "uint8",
          "name": "index",
          "type": "uint8"
        },
        {
          "indexed": false,
          "internalType": "address",
          "name": "airline",
          "type": "address"
        },
        {
          "indexed": false,
          "internalType": "string",
          "name": "flight",
          "type": "string"
        },
        {
          "indexed": false,
          "internalType": "uint256",
          "name": "timestamp",
          "type": "uint256"
        }
      ],
      "name": "OracleRequest",
      "type": "event"
    },
    {
      "anonymous": false,
      "inputs": [
        {
          "indexed": false,
          "internalType": "address",
          "name": "voted",
          "type": "address"
        },
        {
          "indexed": false,
          "internalType": "address",
          "name": "voter",
          "type": "address"
        }
      ],
      "name": "VotedForAirline",
      "type": "event"
    },
    {
      "inputs": [],
      "name": "REGISTRATION_FEE",
      "outputs": [
        {
          "internalType": "uint256",
          "name": "",
          "type": "uint256"
        }
      ],
      "stateMutability": "view",
      "type": "function",
      "constant": true
    },
    {
      "inputs": [],
      "name": "isOperational",
      "outputs": [
        {
          "internalType": "bool",
          "name": "",
          "type": "bool"
        }
      ],
      "stateMutability": "view",
      "type": "function",
      "constant": true
    },
    {
      "inputs": [],
      "name": "getAirlinesRegistration",
      "outputs": [
        {
          "internalType": "address[]",
          "name": "",
          "type": "address[]"
        }
      ],
      "stateMutability": "view",
      "type": "function",
      "constant": true
    },
    {
      "inputs": [],
      "name": "getAirlinesFunded",
      "outputs": [
        {
          "internalType": "address[]",
          "name": "",
          "type": "address[]"
        }
      ],
      "stateMutability": "view",
      "type": "function",
      "constant": true
    },
    {
      "inputs": [],
      "name": "getQueued",
      "outputs": [
        {
          "internalType": "address[]",
          "name": "",
          "type": "address[]"
        }
      ],
      "stateMutability": "view",
      "type": "function",
      "constant": true
    },
    {
      "inputs": [
        {
          "internalType": "address",
          "name": "airline",
          "type": "address"
        }
      ],
      "name": "isAirlineQueued",
      "outputs": [
        {
          "internalType": "bool",
          "name": "",
          "type": "bool"
        }
      ],
      "stateMutability": "view",
      "type": "function",
      "constant": true
    },
    {
      "inputs": [
        {
          "internalType": "address",
          "name": "airline",
          "type": "address"
        }
      ],
      "name": "getVotes",
      "outputs": [
        {
          "internalType": "uint256",
          "name": "",
          "type": "uint256"
        }
      ],
      "stateMutability": "view",
      "type": "function",
      "constant": true
    },
    {
      "inputs": [
        {
          "internalType": "address",
          "name": "applicant",
          "type": "address"
        }
      ],
      "name": "registerAirline",
      "outputs": [],
      "stateMutability": "nonpayable",
      "type": "function"
    },
    {
      "inputs": [
        {
          "internalType": "address",
          "name": "applicant",
          "type": "address"
        }
      ],
      "name": "voteForAirline",
      "outputs": [],
      "stateMutability": "nonpayable",
      "type": "function"
    },
    {
      "inputs": [],
      "name": "submitFunding",
      "outputs": [],
      "stateMutability": "payable",
      "type": "function",
      "payable": true
    },
    {
      "inputs": [
        {
          "internalType": "string",
          "name": "flight",
          "type": "string"
        },
        {
          "internalType": "uint256",
          "name": "timestamp",
          "type": "uint256"
        }
      ],
      "name": "registerFlight",
      "outputs": [],
      "stateMutability": "nonpayable",
      "type": "function"
    },
    {
      "inputs": [
        {
          "internalType": "string",
          "name": "flight",
          "type": "string"
        },
        {
          "internalType": "address",
          "name": "airline",
          "type": "address"
        },
        {
          "internalType": "uint256",
          "name": "timestamp",
          "type": "uint256"
        }
      ],
      "name": "buyInsurance",
      "outputs": [],
      "stateMutability": "payable",
      "type": "function",
      "payable": true
    },
    {
      "inputs": [
        {
          "internalType": "address",
          "name": "airline",
          "type": "address"
        },
        {
          "internalType": "string",
          "name": "flight",
          "type": "string"
        },
        {
          "internalType": "uint256",
          "name": "timestamp",
          "type": "uint256"
        }
      ],
      "name": "fetchFlightStatus",
      "outputs": [],
      "stateMutability": "nonpayable",
      "type": "function"
    },
    {
      "inputs": [],
      "name": "pay",
      "outputs": [],
      "stateMutability": "nonpayable",
      "type": "function"
    },
    {
      "inputs": [],
      "name": "registerOracle",
      "outputs": [],
      "stateMutability": "payable",
      "type": "function",
      "payable": true
    },
    {
      "inputs": [],
      "name": "getMyIndexes",
      "outputs": [
        {
          "internalType": "uint8[3]",
          "name": "",
          "type": "uint8[3]"
        }
      ],
      "stateMutability": "view",
      "type": "function",
      "constant": true
    },
    {
      "inputs": [
        {
          "internalType": "uint8",
          "name": "index",
          "type": "uint8"
        },
        {
          "internalType": "address",
          "name": "airline",
          "type": "address"
        },
        {
          "internalType": "string",
          "name": "flight",
          "type": "string"
        },
        {
          "internalType": "uint256",
          "name": "timestamp",
          "type": "uint256"
        },
        {
          "internalType": "uint8",
          "name": "statusCode",
          "type": "uint8"
        }
      ],
      "name": "submitOracleResponse",
      "outputs": [],
      "stateMutability": "nonpayable",
      "type": "function"
    }
  ],
  "bytecode": "0x60806040526000604051908082528060200260200182016040528015620000355781602001602082028038833980820191505090505b50600390805190602001906200004d92919062000136565b506000600460006101000a81548160ff021916908360ff1602179055503480156200007757600080fd5b5060405162002eee38038062002eee833981810160405260208110156200009d57600080fd5b810190808051906020019092919050505033600160006101000a81548173ffffffffffffffffffffffffffffffffffffffff021916908373ffffffffffffffffffffffffffffffffffffffff160217905550806000806101000a81548173ffffffffffffffffffffffffffffffffffffffff021916908373ffffffffffffffffffffffffffffffffffffffff160217905550506200020b565b828054828255906000526020600020908101928215620001b2579160200282015b82811115620001b15782518260006101000a81548173ffffffffffffffffffffffffffffffffffffffff021916908373ffffffffffffffffffffffffffffffffffffffff1602179055509160200191906001019062000157565b5b509050620001c19190620001c5565b5090565b6200020891905b808211156200020457600081816101000a81549073ffffffffffffffffffffffffffffffffffffffff021916905550600101620001cc565b5090565b90565b612cd3806200021b6000396000f3fe6080604052600436106100fe5760003560e01c80637a60024211610095578063c52c6d7f11610064578063c52c6d7f146105a1578063cd905dff146105ab578063e63c9bfe146105da578063f83f11c01461067d578063fbfa0c2e1461072d576100fe565b80637a600242146103b55780639ab24eb014610421578063bdfd987714610486578063c10f2700146104d7576100fe565b80635719424b116100d15780635719424b146102625780635c97fe35146102cb5780635f1cc0e61461033757806364b4f7511461038a576100fe565b80631b9265b8146101035780631bf642f11461011a578063339d25901461018657806339cfc99514610190575b600080fd5b34801561010f57600080fd5b5061011861077e565b005b34801561012657600080fd5b5061012f61092f565b6040518080602001828103825283818151815260200191508051906020019060200280838360005b83811015610172578082015181840152602081019050610157565b505050509050019250505060405180910390f35b61018e6109bd565b005b34801561019c57600080fd5b50610260600480360360408110156101b357600080fd5b81019080803590602001906401000000008111156101d057600080fd5b8201836020820111156101e257600080fd5b8035906020019184600183028401116401000000008311171561020457600080fd5b91908080601f016020809104026020016040519081016040528093929190818152602001838380828437600081840152601f19601f82011690508083019250505050505050919291929080359060200190929190505050610bda565b005b34801561026e57600080fd5b506102b16004803603602081101561028557600080fd5b81019080803573ffffffffffffffffffffffffffffffffffffffff169060200190929190505050610de3565b604051808215151515815260200191505060405180910390f35b3480156102d757600080fd5b506102e0610e3c565b6040518080602001828103825283818151815260200191508051906020019060200280838360005b83811015610323578082015181840152602081019050610308565b505050509050019250505060405180910390f35b34801561034357600080fd5b5061034c610f84565b6040518082600360200280838360005b8381101561037757808201518184015260208101905061035c565b5050505090500191505060405180910390f35b34801561039657600080fd5b5061039f6110f7565b6040518082815260200191505060405180910390f35b3480156103c157600080fd5b506103ca611103565b6040518080602001828103825283818151815260200191508051906020019060200280838360005b8381101561040d5780820151818401526020810190506103f2565b505050509050019250505060405180910390f35b34801561042d57600080fd5b506104706004803603602081101561044457600080fd5b81019080803573ffffffffffffffffffffffffffffffffffffffff16906020019092919050505061124b565b6040518082815260200191505060405180910390f35b34801561049257600080fd5b506104d5600480360360208110156104a957600080fd5b81019080803573ffffffffffffffffffffffffffffffffffffffff169060200190929190505050611297565b005b3480156104e357600080fd5b5061059f600480360360a08110156104fa57600080fd5b81019080803560ff169060200190929190803573ffffffffffffffffffffffffffffffffffffffff1690602001909291908035906020019064010000000081111561054457600080fd5b82018360208201111561055657600080fd5b8035906020019184600183028401116401000000008311171561057857600080fd5b909192939192939080359060200190929190803560ff1690602001909291905050506116f5565b005b6105a9611c13565b005b3480156105b757600080fd5b506105c0611d6f565b604051808215151515815260200191505060405180910390f35b61067b600480360360608110156105f057600080fd5b810190808035906020019064010000000081111561060d57600080fd5b82018360208201111561061f57600080fd5b8035906020019184600183028401116401000000008311171561064157600080fd5b9091929391929390803573ffffffffffffffffffffffffffffffffffffffff16906020019092919080359060200190929190505050611e18565b005b34801561068957600080fd5b5061072b600480360360608110156106a057600080fd5b81019080803573ffffffffffffffffffffffffffffffffffffffff169060200190929190803590602001906401000000008111156106dd57600080fd5b8201836020820111156106ef57600080fd5b8035906020019184600183028401116401000000008311171561071157600080fd5b909192939192939080359060200190929190505050612005565b005b34801561073957600080fd5b5061077c6004803603602081101561075057600080fd5b81019080803573ffffffffffffffffffffffffffffffffffffffff1690602001909291905050506121f6565b005b6000809054906101000a900473ffffffffffffffffffffffffffffffffffffffff1673ffffffffffffffffffffffffffffffffffffffff1663cd905dff6040518163ffffffff1660e01b815260040160206040518083038186803b1580156107e557600080fd5b505afa1580156107f9573d6000803e3d6000fd5b505050506040513d602081101561080f57600080fd5b8101908080519060200190929190505050610875576040517f08c379a0000000000000000000000000000000000000000000000000000000008152600401808060200182810382526025815260200180612c566025913960400191505060405180910390fd5b6000809054906101000a900473ffffffffffffffffffffffffffffffffffffffff1673ffffffffffffffffffffffffffffffffffffffff16630c11dedd336040518263ffffffff1660e01b8152600401808273ffffffffffffffffffffffffffffffffffffffff1673ffffffffffffffffffffffffffffffffffffffff168152602001915050600060405180830381600087803b15801561091557600080fd5b505af1158015610929573d6000803e3d6000fd5b50505050565b606060038054806020026020016040519081016040528092919081815260200182805480156109b357602002820191906000526020600020905b8160009054906101000a900473ffffffffffffffffffffffffffffffffffffffff1673ffffffffffffffffffffffffffffffffffffffff1681526020019060010190808311610969575b5050505050905090565b6000809054906101000a900473ffffffffffffffffffffffffffffffffffffffff1673ffffffffffffffffffffffffffffffffffffffff1663cd905dff6040518163ffffffff1660e01b815260040160206040518083038186803b158015610a2457600080fd5b505afa158015610a38573d6000803e3d6000fd5b505050506040513d6020811015610a4e57600080fd5b8101908080519060200190929190505050610ab4576040517f08c379a0000000000000000000000000000000000000000000000000000000008152600401808060200182810382526025815260200180612c566025913960400191505060405180910390fd5b670de0b6b3a7640000341015610b32576040517f08c379a000000000000000000000000000000000000000000000000000000000815260040180806020018281038252601c8152602001807f526567697374726174696f6e206665652069732072657175697265640000000081525060200191505060405180910390fd5b610b3a612b3a565b610b43336125e5565b9050604051806040016040528060011515815260200182815250600560003373ffffffffffffffffffffffffffffffffffffffff1673ffffffffffffffffffffffffffffffffffffffff16815260200190815260200160002060008201518160000160006101000a81548160ff021916908315150217905550602082015181600101906003610bd3929190612b5c565b5090505050565b6000809054906101000a900473ffffffffffffffffffffffffffffffffffffffff1673ffffffffffffffffffffffffffffffffffffffff166365c152f78383336040518463ffffffff1660e01b815260040180806020018481526020018373ffffffffffffffffffffffffffffffffffffffff1673ffffffffffffffffffffffffffffffffffffffff168152602001828103825285818151815260200191508051906020019080838360005b83811015610ca1578082015181840152602081019050610c86565b50505050905090810190601f168015610cce5780820380516001836020036101000a031916815260200191505b50945050505050600060405180830381600087803b158015610cef57600080fd5b505af1158015610d03573d6000803e3d6000fd5b505050507f7e9c226ac5d85c5e088472aea4786ad32703535448a2c13a5963ff836b91551f82823360405180806020018481526020018373ffffffffffffffffffffffffffffffffffffffff1673ffffffffffffffffffffffffffffffffffffffff168152602001828103825285818151815260200191508051906020019080838360005b83811015610da3578082015181840152602081019050610d88565b50505050905090810190601f168015610dd05780820380516001836020036101000a031916815260200191505b5094505050505060405180910390a15050565b6000600260008373ffffffffffffffffffffffffffffffffffffffff1673ffffffffffffffffffffffffffffffffffffffff16815260200190815260200160002060020160009054906101000a900460ff169050919050565b6060806000809054906101000a900473ffffffffffffffffffffffffffffffffffffffff1673ffffffffffffffffffffffffffffffffffffffff16631cebb54d6040518163ffffffff1660e01b815260040160006040518083038186803b158015610ea657600080fd5b505afa158015610eba573d6000803e3d6000fd5b505050506040513d6000823e3d601f19601f820116820180604052506020811015610ee457600080fd5b8101908080516040519392919084640100000000821115610f0457600080fd5b83820191506020820185811115610f1a57600080fd5b8251866020820283011164010000000082111715610f3757600080fd5b8083526020830192505050908051906020019060200280838360005b83811015610f6e578082015181840152602081019050610f53565b5050505090500160405250505090508091505090565b610f8c612b3a565b600560003373ffffffffffffffffffffffffffffffffffffffff1673ffffffffffffffffffffffffffffffffffffffff16815260200190815260200160002060000160009054906101000a900460ff1661104e576040517f08c379a000000000000000000000000000000000000000000000000000000000815260040180806020018281038252601b8152602001807f4e6f74207265676973746572656420617320616e206f7261636c65000000000081525060200191505060405180910390fd5b600560003373ffffffffffffffffffffffffffffffffffffffff1673ffffffffffffffffffffffffffffffffffffffff1681526020019081526020016000206001016003806020026040519081016040528092919082600380156110ed576020028201916000905b82829054906101000a900460ff1660ff16815260200190600101906020826000010492830192600103820291508084116110b65790505b5050505050905090565b670de0b6b3a764000081565b6060806000809054906101000a900473ffffffffffffffffffffffffffffffffffffffff1673ffffffffffffffffffffffffffffffffffffffff16637a6002426040518163ffffffff1660e01b815260040160006040518083038186803b15801561116d57600080fd5b505afa158015611181573d6000803e3d6000fd5b505050506040513d6000823e3d601f19601f8201168201806040525060208110156111ab57600080fd5b81019080805160405193929190846401000000008211156111cb57600080fd5b838201915060208201858111156111e157600080fd5b82518660208202830111640100000000821117156111fe57600080fd5b8083526020830192505050908051906020019060200280838360005b8381101561123557808201518184015260208101905061121a565b5050505090500160405250505090508091505090565b6000600260008373ffffffffffffffffffffffffffffffffffffffff1673ffffffffffffffffffffffffffffffffffffffff168152602001908152602001600020600101549050919050565b60606000809054906101000a900473ffffffffffffffffffffffffffffffffffffffff1673ffffffffffffffffffffffffffffffffffffffff16637a6002426040518163ffffffff1660e01b815260040160006040518083038186803b15801561130057600080fd5b505afa158015611314573d6000803e3d6000fd5b505050506040513d6000823e3d601f19601f82011682018060405250602081101561133e57600080fd5b810190808051604051939291908464010000000082111561135e57600080fd5b8382019150602082018581111561137457600080fd5b825186602082028301116401000000008211171561139157600080fd5b8083526020830192505050908051906020019060200280838360005b838110156113c85780820151818401526020810190506113ad565b5050505090500160405250505090506005815110156114d2576000809054906101000a900473ffffffffffffffffffffffffffffffffffffffff1673ffffffffffffffffffffffffffffffffffffffff1663c7ba501883336040518363ffffffff1660e01b8152600401808373ffffffffffffffffffffffffffffffffffffffff1673ffffffffffffffffffffffffffffffffffffffff1681526020018273ffffffffffffffffffffffffffffffffffffffff1673ffffffffffffffffffffffffffffffffffffffff16815260200192505050600060405180830381600087803b1580156114b557600080fd5b505af11580156114c9573d6000803e3d6000fd5b505050506116f1565b33600260008473ffffffffffffffffffffffffffffffffffffffff1673ffffffffffffffffffffffffffffffffffffffff16815260200190815260200160002060000160006101000a81548173ffffffffffffffffffffffffffffffffffffffff021916908373ffffffffffffffffffffffffffffffffffffffff1602179055506000600260008473ffffffffffffffffffffffffffffffffffffffff1673ffffffffffffffffffffffffffffffffffffffff168152602001908152602001600020600101819055506001600260008473ffffffffffffffffffffffffffffffffffffffff1673ffffffffffffffffffffffffffffffffffffffff16815260200190815260200160002060020160006101000a81548160ff0219169083151502179055506003829080600181540180825580915050600190039060005260206000200160009091909190916101000a81548173ffffffffffffffffffffffffffffffffffffffff021916908373ffffffffffffffffffffffffffffffffffffffff1602179055507fc243c0fd676d7d4d8475225a652beb9dbda28e69857257332eb01b7e01156f958233604051808373ffffffffffffffffffffffffffffffffffffffff1673ffffffffffffffffffffffffffffffffffffffff1681526020018273ffffffffffffffffffffffffffffffffffffffff1673ffffffffffffffffffffffffffffffffffffffff1681526020019250505060405180910390a15b5050565b8560ff16600560003373ffffffffffffffffffffffffffffffffffffffff1673ffffffffffffffffffffffffffffffffffffffff16815260200190815260200160002060010160006003811061174757fe5b602091828204019190069054906101000a900460ff1660ff1614806117d457508560ff16600560003373ffffffffffffffffffffffffffffffffffffffff1673ffffffffffffffffffffffffffffffffffffffff1681526020019081526020016000206001016001600381106117b957fe5b602091828204019190069054906101000a900460ff1660ff16145b8061184757508560ff16600560003373ffffffffffffffffffffffffffffffffffffffff1673ffffffffffffffffffffffffffffffffffffffff16815260200190815260200160002060010160026003811061182c57fe5b602091828204019190069054906101000a900460ff1660ff16145b61189c576040517f08c379a0000000000000000000000000000000000000000000000000000000008152600401808060200182810382526023815260200180612c7b6023913960400191505060405180910390fd5b60008686868686604051602001808660ff1660ff1660f81b81526001018573ffffffffffffffffffffffffffffffffffffffff1673ffffffffffffffffffffffffffffffffffffffff1660601b815260140184848082843780830192505050828152602001955050505050506040516020818303038152906040528051906020012090506006600082815260200190815260200160002060000160149054906101000a900460ff16611999576040517f08c379a000000000000000000000000000000000000000000000000000000000815260040180806020018281038252602f815260200180612c27602f913960400191505060405180910390fd5b6006600082815260200190815260200160002060010160008360ff1660ff168152602001908152602001600020339080600181540180825580915050600190039060005260206000200160009091909190916101000a81548173ffffffffffffffffffffffffffffffffffffffff021916908373ffffffffffffffffffffffffffffffffffffffff1602179055507f43c853095c2752648493c88b4baac4d580d2594ffb00c6f1d4242d844514f7838686868686604051808673ffffffffffffffffffffffffffffffffffffffff1673ffffffffffffffffffffffffffffffffffffffff168152602001806020018481526020018360ff1660ff1681526020018281038252868682818152602001925080828437600081840152601f19601f820116905080830192505050965050505050505060405180910390a160036006600083815260200190815260200160002060010160008460ff1660ff1681526020019081526020016000208054905010611c0a577fe23f5229de535c091e3b7bec2665f5d698192d3b31393066e8987b7a05076b6c8686868686604051808673ffffffffffffffffffffffffffffffffffffffff1673ffffffffffffffffffffffffffffffffffffffff168152602001806020018481526020018360ff1660ff1681526020018281038252868682818152602001925080828437600081840152601f19601f820116905080830192505050965050505050505060405180910390a1611c098686868080601f016020809104026020016040519081016040528093929190818152602001838380828437600081840152601f19601f820116905080830192505050505050508585612771565b5b50505050505050565b678ac7230489e800003414611c90576040517f08c379a000000000000000000000000000000000000000000000000000000000815260040180806020018281038252601f8152602001807f496e636f72726563742066756e64732076616c7565207375626d69747465640081525060200191505060405180910390fd5b6000809054906101000a900473ffffffffffffffffffffffffffffffffffffffff1673ffffffffffffffffffffffffffffffffffffffff16636fbb879834336040518363ffffffff1660e01b8152600401808273ffffffffffffffffffffffffffffffffffffffff1673ffffffffffffffffffffffffffffffffffffffff1681526020019150506020604051808303818588803b158015611d3057600080fd5b505af1158015611d44573d6000803e3d6000fd5b50505050506040513d6020811015611d5b57600080fd5b810190808051906020019092919050505050565b60008060009054906101000a900473ffffffffffffffffffffffffffffffffffffffff1673ffffffffffffffffffffffffffffffffffffffff1663cd905dff6040518163ffffffff1660e01b815260040160206040518083038186803b158015611dd857600080fd5b505afa158015611dec573d6000803e3d6000fd5b505050506040513d6020811015611e0257600080fd5b8101908080519060200190929190505050905090565b600034118015611e2f5750670de0b6b3a764000034145b611ea1576040517f08c379a000000000000000000000000000000000000000000000000000000000815260040180806020018281038252601f8152602001807f496e636f72726563742066756e64732076616c7565207375626d69747465640081525060200191505060405180910390fd5b6000809054906101000a900473ffffffffffffffffffffffffffffffffffffffff1673ffffffffffffffffffffffffffffffffffffffff166396fb29153433878787873460966040518963ffffffff1660e01b8152600401808873ffffffffffffffffffffffffffffffffffffffff1673ffffffffffffffffffffffffffffffffffffffff168152602001806020018673ffffffffffffffffffffffffffffffffffffffff1673ffffffffffffffffffffffffffffffffffffffff1681526020018581526020018481526020018381526020018281038252888882818152602001925080828437600081840152601f19601f820116905080830192505050985050505050505050506020604051808303818588803b158015611fc257600080fd5b505af1158015611fd6573d6000803e3d6000fd5b50505050506040513d6020811015611fed57600080fd5b81019080805190602001909291905050505050505050565b6000612010336128b2565b905060008186868686604051602001808660ff1660ff1660f81b81526001018573ffffffffffffffffffffffffffffffffffffffff1673ffffffffffffffffffffffffffffffffffffffff1660601b8152601401848480828437808301925050508281526020019550505050505060405160208183030381529060405280519060200120905060405180604001604052803373ffffffffffffffffffffffffffffffffffffffff168152602001600115158152506006600083815260200190815260200160002060008201518160000160006101000a81548173ffffffffffffffffffffffffffffffffffffffff021916908373ffffffffffffffffffffffffffffffffffffffff16021790555060208201518160000160146101000a81548160ff0219169083151502179055509050507f3ed01f2c3fc24c6b329d931e35b03e390d23497d22b3f90e15b600343e93df118287878787604051808660ff1660ff1681526020018573ffffffffffffffffffffffffffffffffffffffff1673ffffffffffffffffffffffffffffffffffffffff168152602001806020018381526020018281038252858582818152602001925080828437600081840152601f19601f820116905080830192505050965050505050505060405180910390a1505050505050565b60606000809054906101000a900473ffffffffffffffffffffffffffffffffffffffff1673ffffffffffffffffffffffffffffffffffffffff16631cebb54d6040518163ffffffff1660e01b815260040160006040518083038186803b15801561225f57600080fd5b505afa158015612273573d6000803e3d6000fd5b505050506040513d6000823e3d601f19601f82011682018060405250602081101561229d57600080fd5b81019080805160405193929190846401000000008211156122bd57600080fd5b838201915060208201858111156122d357600080fd5b82518660208202830111640100000000821117156122f057600080fd5b8083526020830192505050908051906020019060200280838360005b8381101561232757808201518184015260208101905061230c565b50505050905001604052505050905060008151905060006123526002836129a290919063ffffffff16565b90506000600260008673ffffffffffffffffffffffffffffffffffffffff1673ffffffffffffffffffffffffffffffffffffffff1681526020019081526020016000206001015490506123af6001826129ec90919063ffffffff16565b905080600260008773ffffffffffffffffffffffffffffffffffffffff1673ffffffffffffffffffffffffffffffffffffffff16815260200190815260200160002060010181905550818110612547576000809054906101000a900473ffffffffffffffffffffffffffffffffffffffff1673ffffffffffffffffffffffffffffffffffffffff1663c7ba501886336040518363ffffffff1660e01b8152600401808373ffffffffffffffffffffffffffffffffffffffff1673ffffffffffffffffffffffffffffffffffffffff1681526020018273ffffffffffffffffffffffffffffffffffffffff1673ffffffffffffffffffffffffffffffffffffffff16815260200192505050600060405180830381600087803b1580156124d357600080fd5b505af11580156124e7573d6000803e3d6000fd5b505050506000600260008773ffffffffffffffffffffffffffffffffffffffff1673ffffffffffffffffffffffffffffffffffffffff16815260200190815260200160002060020160006101000a81548160ff0219169083151502179055505b7f0fedfc31f1666875352b0f56bae76d940988f8ebcd7cb91dbf074384957198e78533604051808373ffffffffffffffffffffffffffffffffffffffff1673ffffffffffffffffffffffffffffffffffffffff1681526020018273ffffffffffffffffffffffffffffffffffffffff1673ffffffffffffffffffffffffffffffffffffffff1681526020019250505060405180910390a15050505050565b6125ed612b3a565b6125f5612b3a565b6125fe836128b2565b8160006003811061260b57fe5b602002019060ff16908160ff16815250508060006003811061262957fe5b60200201518160016003811061263b57fe5b602002019060ff16908160ff16815250505b8060006003811061265a57fe5b602002015160ff168160016003811061266f57fe5b602002015160ff1614156126a957612686836128b2565b8160016003811061269357fe5b602002019060ff16908160ff168152505061264d565b806001600381106126b657fe5b6020020151816002600381106126c857fe5b602002019060ff16908160ff16815250505b806000600381106126e757fe5b602002015160ff16816002600381106126fc57fe5b602002015160ff16148061273757508060016003811061271857fe5b602002015160ff168160026003811061272d57fe5b602002015160ff16145b1561276857612745836128b2565b8160026003811061275257fe5b602002019060ff16908160ff16815250506126da565b80915050919050565b6000809054906101000a900473ffffffffffffffffffffffffffffffffffffffff1673ffffffffffffffffffffffffffffffffffffffff1663e7bdde3b858585856040518563ffffffff1660e01b8152600401808573ffffffffffffffffffffffffffffffffffffffff1673ffffffffffffffffffffffffffffffffffffffff168152602001806020018481526020018360ff1660ff168152602001828103825285818151815260200191508051906020019080838360005b8381101561284557808201518184015260208101905061282a565b50505050905090810190601f1680156128725780820380516001836020036101000a031916815260200191505b5095505050505050600060405180830381600087803b15801561289457600080fd5b505af11580156128a8573d6000803e3d6000fd5b5050505050505050565b600080600a905060008160ff166004600081819054906101000a900460ff168092919060010191906101000a81548160ff021916908360ff16021790555060ff1643034085604051602001808381526020018273ffffffffffffffffffffffffffffffffffffffff1673ffffffffffffffffffffffffffffffffffffffff1660601b8152601401925050506040516020818303038152906040528051906020012060001c8161295d57fe5b06905060fa600460009054906101000a900460ff1660ff161115612998576000600460006101000a81548160ff021916908360ff1602179055505b8092505050919050565b60006129e483836040518060400160405280601a81526020017f536166654d6174683a206469766973696f6e206279207a65726f000000000000815250612a74565b905092915050565b600080828401905083811015612a6a576040517f08c379a000000000000000000000000000000000000000000000000000000000815260040180806020018281038252601b8152602001807f536166654d6174683a206164646974696f6e206f766572666c6f77000000000081525060200191505060405180910390fd5b8091505092915050565b60008083118290612b20576040517f08c379a00000000000000000000000000000000000000000000000000000000081526004018080602001828103825283818151815260200191508051906020019080838360005b83811015612ae5578082015181840152602081019050612aca565b50505050905090810190601f168015612b125780820380516001836020036101000a031916815260200191505b509250505060405180910390fd5b506000838581612b2c57fe5b049050809150509392505050565b6040518060600160405280600390602082028038833980820191505090505090565b826003601f01602090048101928215612be55791602002820160005b83821115612bb657835183826101000a81548160ff021916908360ff1602179055509260200192600101602081600001049283019260010302612b78565b8015612be35782816101000a81549060ff0219169055600101602081600001049283019260010302612bb6565b505b509050612bf29190612bf6565b5090565b612c2391905b80821115612c1f57600081816101000a81549060ff021916905550600101612bfc565b5090565b9056fe466c69676874206f722074696d657374616d7020646f206e6f74206d61746368206f7261636c652072657175657374436f6e74726163742069732063757272656e746c79206e6f74206f7065726174696f6e616c496e64657820646f6573206e6f74206d61746368206f7261636c652072657175657374a26469706673582212205a7644c333ec63bbaba4477ca59f49dc848d55f56c02fb485fd5591bf1814e5f64736f6c63430006020033",
  "source": "pragma solidity ^0.6;\n\nimport \"../node_modules/openzeppelin-solidity/contracts/math/SafeMath.sol\";\n\ncontract FlightSuretyApp {\n    using SafeMath for uint256;\n\n    /********************************************************************************************/\n    /*                                       DATA VARIABLES                                     */\n    /********************************************************************************************/\n\n    // MSJ: State variable to interface with FlightSuretyData contract\n    FlightSuretyData flightSuretyData;\n    \n    // MSJ: Account used to deploy contract\n    address private contractOwner;\n    \n     // MSJ: Airline registration fee\n    uint256 constant AIRLINE_REG_FEE = 10 ether;\n    \n    // MSJ: Flight insurance fee\n    uint256 constant FLIGHT_INSURANCE_FEE = 1 ether;\n    \n    // MSJ: Insurance multiplier\n    uint256 constant INSURANCE_MULTIPLIER = 150;\n\n    // MSJ: Airlines Registration Queue\n    struct AirlineRegistrationQueue {\n        address registerer;\n        uint256 votes;\n        bool isQueued;\n    }\n\n    // MSJ: Mapping the address of the airline's address with registration status\n    mapping(address => AirlineRegistrationQueue) private registrationQueue;\n    \n    // MSJ: Array to keep track of airline registration queue\n    address[] airlineRegQueue = new address[](0);\n    \n    /********************************************************************************************/\n    /*                                       EVENT DEFINITIONS                                  */\n    /********************************************************************************************/\n\n    // MSJ: Events\n    event AirlineRegistrationQueued(address queued, address registerer);\n    event VotedForAirline(address voted, address voter);\n    event FlightRegistered(string flight, uint256 timestamp, address airline);\n\n\n    /********************************************************************************************/\n    /*                                       CONSTRUCTOR                                        */\n    /********************************************************************************************/\n\n    // MSJ: Constructor\n    constructor(address payable dataContract) public\n    {\n        contractOwner = msg.sender;\n        flightSuretyData = FlightSuretyData(dataContract);\n    }\n    \n    /********************************************************************************************/\n    /*                                       FUNCTION MODIFIERS                                 */\n    /********************************************************************************************/\n\n    // MSJ: Modifier to verify address is registered\n    modifier requireIsOperational() \n    {\n        // Modify to call data contract's status\n        require(flightSuretyData.isOperational(), \"Contract is currently not operational\");  \n        _;  // All modifiers require an \"_\" which indicates where the function body will be added\n    }\n\n    // MSJ: Modifier to verify contract owner\n    modifier requireContractOwner() {\n        require(msg.sender == contractOwner, \"Caller is not contract owner\");\n        _;\n    }\n\n    // MSJ: Modifier to verify address is registered\n    modifier requireIsAirlineRegistered(address airline) {\n        require(flightSuretyData.isAirlineRegistered(airline) == true, 'Caller is not the authorized app contract');\n        _;\n    }\n\n    // MSJ: Modifier to verify address is Funded\n    modifier requireIsAirlineFunded(address airline) {\n        require(flightSuretyData.isAirlineFunded(airline) == true, 'Caller is not the authorized app contract');\n        _;\n    }\n    \n    /********************************************************************************************/\n    /*                                       UTILITY FUNCTIONS                                  */\n    /********************************************************************************************/\n\n    // MSJ: To check if contract isOperational()\n    function isOperational() external view returns(bool) {\n        return flightSuretyData.isOperational();\n    }\n\n    // MSJ: Get list of registered airlines\n    function getAirlinesRegistration() public view returns(address[] memory) \n    {\n        address[] memory airlinesRegistration = flightSuretyData.getAirlinesRegistration();\n\n        return airlinesRegistration;\n    }\n    \n    // MSJ: Get list of funded airlines\n    function getAirlinesFunded() public view returns(address[] memory) \n    {\n        address[] memory airlinesFunded = flightSuretyData.getAirlinesRegisteredFunded();\n\n        return airlinesFunded;\n    }\n    \n    // MSJ: Function to get airline registration queue\n    function getQueued() public view returns(address[] memory) \n    {\n        return airlineRegQueue;\n    }\n\n    // MSJ: Function to verify address is queue\n    function isAirlineQueued(address airline) external view returns(bool) \n    {     \n        return registrationQueue[airline].isQueued;\n    }\n\n    // MSJ: Get votes\n    function getVotes(address airline) external view returns(uint256) \n    {     \n        return registrationQueue[airline].votes;\n    }\n    \n    /********************************************************************************************/\n    /*                                     SMART CONTRACT FUNCTIONS                             */\n    /********************************************************************************************/\n\n    // MSJ: Register Airline\n    function registerAirline(address applicant) public\n    {\n        address[] memory airlinesRegisteredFunded = flightSuretyData.getAirlinesRegistration();\n\n        // MSJ: Register airline if there are less than 5 registered airlines altogether\n        if(airlinesRegisteredFunded.length < 5) \n        {\n            flightSuretyData.registerAirline(applicant, msg.sender);\n        }\n        // MSJ: Add airline registration to queue, to run through voting process\n        else \n        {\n            // add check that airline is not yet in queue\n            registrationQueue[applicant].registerer = msg.sender;\n            registrationQueue[applicant].votes = 0;\n            registrationQueue[applicant].isQueued = true;\n            \n            airlineRegQueue.push(applicant); \n\n            emit AirlineRegistrationQueued(applicant, msg.sender);\n        }\n    }\n    \n    // MSJ: Function to allow other registered airlines to vote\n    function voteForAirline(address applicant) public\n    {\n        // MSJ: Get total count of participating airlines\n        address[] memory participatingAirlines = flightSuretyData.getAirlinesRegisteredFunded();\n        uint256 currentRegistration = participatingAirlines.length;\n        \n        // MSJ: Get 50% if participating airlines\n        uint256 requiredConsensus = currentRegistration.div(2);\n\n        // MSJ: Get applicant's current votes\n        uint256 currentApplicantVotes = registrationQueue[applicant].votes;\n        \n        // MSJ: Increment votes\n        currentApplicantVotes = currentApplicantVotes.add(1);\n        registrationQueue[applicant].votes = currentApplicantVotes;\n\n        // MSJ: Check if there are enough votes\n        if(currentApplicantVotes >= requiredConsensus)\n        {\n            // MSJ: If required vote consensus is met, proceed with registration (but not yet funded)\n            flightSuretyData.registerAirline(applicant, msg.sender);\n            registrationQueue[applicant].isQueued = false;\n        }\n\n        emit VotedForAirline(applicant, msg.sender);\n    }\n\n    \n    // MSJ: For airline to submit registration funding so they can start participating\n    function submitFunding() payable external \n    {\n        require(msg.value == AIRLINE_REG_FEE, \"Incorrect funds value submitted\");\n       \n        //require(address(this).balance > AIRLINE_REG_FEE, \"Insufficient funds\");\n        \n        // MSJ: Submit funding\n        flightSuretyData.fundAirline{value: msg.value}(msg.sender);\n    }\n    \n    // MSJ: For Airline to register flight\n    function registerFlight(string memory flight, uint256 timestamp) public\n    {\n        // MSJ: Register flight (Flight No. and Timestamp)\n        flightSuretyData.registerFlight(flight, timestamp, msg.sender);\n\n        emit FlightRegistered(flight, timestamp, msg.sender);\n\n    }\n    \n    // MSJ: For passengers to buy insurance\n    function buyInsurance(string calldata flight, address airline, uint256 timestamp) payable external \n    {\n        require(msg.value > 0 && msg.value == FLIGHT_INSURANCE_FEE, \"Incorrect funds value submitted\");\n        \n        // MSJ: Submit funding\n        flightSuretyData.buy{value: msg.value}(msg.sender, flight, airline, timestamp, msg.value, INSURANCE_MULTIPLIER);    \n    }\n    \n    function processFlightStatus(address airline, string memory flight, uint256 timestamp, uint8 statusCode) internal {\n        flightSuretyData.processFlightStatus(airline, flight, timestamp, statusCode);\n    }\n\n    // Generate a request for oracles to fetch flight information\n    function fetchFlightStatus(address airline, string calldata flight, uint256 timestamp) external \n    {\n        uint8 index = getRandomIndex(msg.sender);\n\n        // Generate a unique key for storing the request\n        bytes32 key = keccak256(abi.encodePacked(index, airline, flight, timestamp));\n        oracleResponses[key] = ResponseInfo({requester: msg.sender, isOpen: true});\n\n        emit OracleRequest(index, airline, flight, timestamp);\n    }\n    \n    // MSJ: For transfer eligible payout funds to insured passengers\n    function pay() public requireIsOperational \n    {\n        flightSuretyData.pay(msg.sender);\n    }\n    \n    /********************************************************************************************/\n    /*                                     ORACLE MANAGEMENT                                    */\n    /********************************************************************************************/\n    \n    // Incremented to add pseudo-randomness at various points\n    uint8 private nonce = 0;    \n\n    // Fee to be paid when registering oracle\n    uint256 public constant REGISTRATION_FEE = 1 ether;\n\n    // Number of oracles that must respond for valid status\n    uint256 private constant MIN_RESPONSES = 3;\n\n    struct Oracle \n    {\n        bool isRegistered;\n        uint8[3] indexes;        \n    }\n\n    // Track all registered oracles\n    mapping(address => Oracle) private oracles;\n\n    // Model for responses from oracles\n    struct ResponseInfo \n    {\n        address requester;                          // Account that requested status\n        bool isOpen;                                // If open, oracle responses are accepted\n        mapping(uint8 => address[]) responses;      // Mapping key is the status code reported\n                                                    // This lets us group responses and identify\n                                                    // the response that majority of the oracles\n    }\n\n    // Track all oracle responses\n    // Key = hash(index, flight, timestamp)\n    mapping(bytes32 => ResponseInfo) private oracleResponses;\n\n    // Event fired each time an oracle submits a response\n    event FlightStatusInfo(address airline, string flight, uint256 timestamp, uint8 status);\n\n    event OracleReport(address airline, string flight, uint256 timestamp, uint8 status);\n\n    // Event fired when flight status request is submitted\n    // Oracles track this and if they have a matching index\n    // they fetch data and submit a response\n    event OracleRequest(uint8 index, address airline, string flight, uint256 timestamp);\n\n    // Register an oracle with the contract\n    function registerOracle() external payable requireIsOperational \n    {\n        // Require registration fee\n        require(msg.value >= REGISTRATION_FEE, \"Registration fee is required\");\n\n        uint8[3] memory indexes = generateIndexes(msg.sender);\n\n        oracles[msg.sender] = Oracle({isRegistered: true, indexes: indexes});\n    }\n    \n    function getMyIndexes() view external returns(uint8[3] memory)\n    {\n        require(oracles[msg.sender].isRegistered, \"Not registered as an oracle\");\n\n        return oracles[msg.sender].indexes;\n    }\n    \n    // Called by oracle when a response is available to an outstanding request\n    // For the response to be accepted, there must be a pending request that is open\n    // and matches one of the three Indexes randomly assigned to the oracle at the\n    // time of registration (i.e. uninvited oracles are not welcome)\n    function submitOracleResponse(uint8 index, address airline, string calldata flight, uint256 timestamp, uint8 statusCode) external\n    {\n        require((oracles[msg.sender].indexes[0] == index) || (oracles[msg.sender].indexes[1] == index) || (oracles[msg.sender].indexes[2] == index), \"Index does not match oracle request\");\n\n\n        bytes32 key = keccak256(abi.encodePacked(index, airline, flight, timestamp)); \n        require(oracleResponses[key].isOpen, \"Flight or timestamp do not match oracle request\");\n\n        oracleResponses[key].responses[statusCode].push(msg.sender);\n\n        // Information isn't considered verified until at least MIN_RESPONSES\n        // oracles respond with the *** same *** information\n        emit OracleReport(airline, flight, timestamp, statusCode);\n        if (oracleResponses[key].responses[statusCode].length >= MIN_RESPONSES) {\n\n            emit FlightStatusInfo(airline, flight, timestamp, statusCode);\n\n            // Handle flight status as appropriate\n            processFlightStatus(airline, flight, timestamp, statusCode);\n        }\n    }\n    \n    function getFlightKey(address airline, string memory flight, uint256 timestamp) pure internal returns(bytes32) \n    {\n        return keccak256(abi.encodePacked(airline, flight, timestamp));\n    }\n\n    \n    // Returns array of three non-duplicating integers from 0-9\n    function generateIndexes(address account) internal returns(uint8[3] memory) \n    {\n        uint8[3] memory indexes;\n        indexes[0] = getRandomIndex(account);\n    \n        indexes[1] = indexes[0];\n        while(indexes[1] == indexes[0]) \n        {\n            indexes[1] = getRandomIndex(account);\n        }\n\n        indexes[2] = indexes[1];\n        while((indexes[2] == indexes[0]) || (indexes[2] == indexes[1])) \n        {\n            indexes[2] = getRandomIndex(account);\n        }\n\n        return indexes;\n    }\n    \n    // Returns array of three non-duplicating integers from 0-9\n    function getRandomIndex(address account) internal returns (uint8) \n    {\n        uint8 maxValue = 10;\n\n        // Pseudo random number...the incrementing nonce adds variation\n        uint8 random = uint8(uint256(keccak256(abi.encodePacked(blockhash(block.number - nonce++), account))) % maxValue);\n\n        if (nonce > 250) \n        {\n            nonce = 0;  // Can only fetch blockhashes for last 256 blocks so we adapt\n        }\n\n        return random;\n    }\n\n}\n\n// MSJ: FlightSurety data contract interface\nabstract contract FlightSuretyData {\n    function isOperational() public virtual view returns(bool);\n    function registerAirline(address applicant, address registerer) external virtual; //returns(bool);\n    function getAirlinesRegistration() external virtual view returns(address[] memory);\n    function getAirlinesFunded() external virtual view returns(address[] memory);\n    function getAirlinesRegisteredFunded() external virtual view returns(address[] memory);\n    function fundAirline(address airline) external virtual payable returns(bool);\n    function isAirlineRegistered(address airline) external virtual view returns(bool);\n    function isAirlineFunded(address airline) external virtual view returns(bool);\n    function registerFlight(string calldata flight, uint256 timestamp, address registerer) external virtual;\n    function getRegisteredFlights() external virtual view returns(bytes32[] memory);\n    function buy(address passenger, string calldata flight, address airline, uint256 timestamp, uint256 amount, uint256 multiplier) external virtual payable returns(bool);\n    function pay(address passenger) external virtual;\n    function processFlightStatus(address airline, string calldata flight, uint256 timestamp, uint8 statusCode) external virtual;\n\n}",
  "sourcePath": "C:\\Users\\marco\\Documents\\bc_proj\\ud-bcnd-project-4\\contracts\\FlightSuretyApp.sol",
  "compiler": {
    "name": "solc",
    "version": "0.6.2+commit.bacdbe57.Emscripten.clang"
  },
  "schemaVersion": "3.0.23",
  "updatedAt": "2020-07-04T03:37:42.639Z",
  "networkType": "ethereum",
  "devdoc": {
    "methods": {}
  },
  "userdoc": {
    "methods": {
      "constructor": "*****************************************************************************************",
      "isOperational()": {
        "notice": "*****************************************************************************************"
      },
      "registerAirline(address)": {
        "notice": "*****************************************************************************************"
      }
    }
  }
}