{
  "contractName": "FlightSuretyApp",
  "abi": [
    {
      "inputs": [
        {
          "internalType": "address payable",
          "name": "dataContract",
          "type": "address"
        }
      ],
      "stateMutability": "nonpayable",
      "type": "constructor"
    },
    {
      "anonymous": false,
      "inputs": [
        {
          "indexed": false,
          "internalType": "address",
          "name": "queued",
          "type": "address"
        },
        {
          "indexed": false,
          "internalType": "address",
          "name": "registerer",
          "type": "address"
        }
      ],
      "name": "AirlineRegistrationQueued",
      "type": "event"
    },
    {
      "anonymous": false,
      "inputs": [
        {
          "indexed": false,
          "internalType": "string",
          "name": "flight",
          "type": "string"
        },
        {
          "indexed": false,
          "internalType": "uint256",
          "name": "timestamp",
          "type": "uint256"
        },
        {
          "indexed": false,
          "internalType": "address",
          "name": "airline",
          "type": "address"
        }
      ],
      "name": "FlightRegistered",
      "type": "event"
    },
    {
      "anonymous": false,
      "inputs": [
        {
          "indexed": false,
          "internalType": "address",
          "name": "airline",
          "type": "address"
        },
        {
          "indexed": false,
          "internalType": "string",
          "name": "flight",
          "type": "string"
        },
        {
          "indexed": false,
          "internalType": "uint256",
          "name": "timestamp",
          "type": "uint256"
        },
        {
          "indexed": false,
          "internalType": "uint8",
          "name": "status",
          "type": "uint8"
        }
      ],
      "name": "FlightStatusInfo",
      "type": "event"
    },
    {
      "anonymous": false,
      "inputs": [
        {
          "indexed": false,
          "internalType": "address",
          "name": "airline",
          "type": "address"
        },
        {
          "indexed": false,
          "internalType": "string",
          "name": "flight",
          "type": "string"
        },
        {
          "indexed": false,
          "internalType": "uint256",
          "name": "timestamp",
          "type": "uint256"
        },
        {
          "indexed": false,
          "internalType": "uint8",
          "name": "status",
          "type": "uint8"
        }
      ],
      "name": "OracleReport",
      "type": "event"
    },
    {
      "anonymous": false,
      "inputs": [
        {
          "indexed": false,
          "internalType": "uint8",
          "name": "index",
          "type": "uint8"
        },
        {
          "indexed": false,
          "internalType": "address",
          "name": "airline",
          "type": "address"
        },
        {
          "indexed": false,
          "internalType": "string",
          "name": "flight",
          "type": "string"
        },
        {
          "indexed": false,
          "internalType": "uint256",
          "name": "timestamp",
          "type": "uint256"
        }
      ],
      "name": "OracleRequest",
      "type": "event"
    },
    {
      "anonymous": false,
      "inputs": [
        {
          "indexed": false,
          "internalType": "address",
          "name": "voted",
          "type": "address"
        },
        {
          "indexed": false,
          "internalType": "address",
          "name": "voter",
          "type": "address"
        }
      ],
      "name": "VotedForAirline",
      "type": "event"
    },
    {
      "inputs": [],
      "name": "REGISTRATION_FEE",
      "outputs": [
        {
          "internalType": "uint256",
          "name": "",
          "type": "uint256"
        }
      ],
      "stateMutability": "view",
      "type": "function",
      "constant": true
    },
    {
      "inputs": [],
      "name": "isOperational",
      "outputs": [
        {
          "internalType": "bool",
          "name": "",
          "type": "bool"
        }
      ],
      "stateMutability": "view",
      "type": "function",
      "constant": true
    },
    {
      "inputs": [],
      "name": "getAirlinesRegistration",
      "outputs": [
        {
          "internalType": "address[]",
          "name": "",
          "type": "address[]"
        }
      ],
      "stateMutability": "view",
      "type": "function",
      "constant": true
    },
    {
      "inputs": [],
      "name": "getAirlinesFunded",
      "outputs": [
        {
          "internalType": "address[]",
          "name": "",
          "type": "address[]"
        }
      ],
      "stateMutability": "view",
      "type": "function",
      "constant": true
    },
    {
      "inputs": [],
      "name": "getQueued",
      "outputs": [
        {
          "internalType": "address[]",
          "name": "",
          "type": "address[]"
        }
      ],
      "stateMutability": "view",
      "type": "function",
      "constant": true
    },
    {
      "inputs": [
        {
          "internalType": "address",
          "name": "airline",
          "type": "address"
        }
      ],
      "name": "isAirlineQueued",
      "outputs": [
        {
          "internalType": "bool",
          "name": "",
          "type": "bool"
        }
      ],
      "stateMutability": "view",
      "type": "function",
      "constant": true
    },
    {
      "inputs": [
        {
          "internalType": "address",
          "name": "airline",
          "type": "address"
        }
      ],
      "name": "getVotes",
      "outputs": [
        {
          "internalType": "uint256",
          "name": "",
          "type": "uint256"
        }
      ],
      "stateMutability": "view",
      "type": "function",
      "constant": true
    },
    {
      "inputs": [
        {
          "internalType": "address",
          "name": "applicant",
          "type": "address"
        }
      ],
      "name": "registerAirline",
      "outputs": [],
      "stateMutability": "nonpayable",
      "type": "function"
    },
    {
      "inputs": [
        {
          "internalType": "address",
          "name": "applicant",
          "type": "address"
        }
      ],
      "name": "voteForAirline",
      "outputs": [],
      "stateMutability": "nonpayable",
      "type": "function"
    },
    {
      "inputs": [],
      "name": "submitFunding",
      "outputs": [],
      "stateMutability": "payable",
      "type": "function",
      "payable": true
    },
    {
      "inputs": [
        {
          "internalType": "string",
          "name": "flight",
          "type": "string"
        },
        {
          "internalType": "uint256",
          "name": "timestamp",
          "type": "uint256"
        }
      ],
      "name": "registerFlight",
      "outputs": [],
      "stateMutability": "nonpayable",
      "type": "function"
    },
    {
      "inputs": [
        {
          "internalType": "string",
          "name": "flight",
          "type": "string"
        },
        {
          "internalType": "address",
          "name": "airline",
          "type": "address"
        },
        {
          "internalType": "uint256",
          "name": "timestamp",
          "type": "uint256"
        }
      ],
      "name": "buyInsurance",
      "outputs": [],
      "stateMutability": "payable",
      "type": "function",
      "payable": true
    },
    {
      "inputs": [
        {
          "internalType": "address",
          "name": "airline",
          "type": "address"
        },
        {
          "internalType": "string",
          "name": "flight",
          "type": "string"
        },
        {
          "internalType": "uint256",
          "name": "timestamp",
          "type": "uint256"
        },
        {
          "internalType": "uint8",
          "name": "statusCode",
          "type": "uint8"
        }
      ],
      "name": "processFlightStatus",
      "outputs": [],
      "stateMutability": "nonpayable",
      "type": "function"
    },
    {
      "inputs": [
        {
          "internalType": "address",
          "name": "airline",
          "type": "address"
        },
        {
          "internalType": "string",
          "name": "flight",
          "type": "string"
        },
        {
          "internalType": "uint256",
          "name": "timestamp",
          "type": "uint256"
        }
      ],
      "name": "fetchFlightStatus",
      "outputs": [],
      "stateMutability": "nonpayable",
      "type": "function"
    },
    {
      "inputs": [],
      "name": "pay",
      "outputs": [],
      "stateMutability": "nonpayable",
      "type": "function"
    },
    {
      "inputs": [],
      "name": "registerOracle",
      "outputs": [],
      "stateMutability": "payable",
      "type": "function",
      "payable": true
    },
    {
      "inputs": [],
      "name": "getMyIndexes",
      "outputs": [
        {
          "internalType": "uint8[3]",
          "name": "",
          "type": "uint8[3]"
        }
      ],
      "stateMutability": "view",
      "type": "function",
      "constant": true
    },
    {
      "inputs": [
        {
          "internalType": "uint8",
          "name": "index",
          "type": "uint8"
        },
        {
          "internalType": "address",
          "name": "airline",
          "type": "address"
        },
        {
          "internalType": "string",
          "name": "flight",
          "type": "string"
        },
        {
          "internalType": "uint256",
          "name": "timestamp",
          "type": "uint256"
        },
        {
          "internalType": "uint8",
          "name": "statusCode",
          "type": "uint8"
        }
      ],
      "name": "submitOracleResponse",
      "outputs": [],
      "stateMutability": "nonpayable",
      "type": "function"
    }
  ],
  "bytecode": "0x60806040526000604051908082528060200260200182016040528015620000355781602001602082028038833980820191505090505b50600390805190602001906200004d92919062000136565b506000600460006101000a81548160ff021916908360ff1602179055503480156200007757600080fd5b506040516200303038038062003030833981810160405260208110156200009d57600080fd5b810190808051906020019092919050505033600160006101000a81548173ffffffffffffffffffffffffffffffffffffffff021916908373ffffffffffffffffffffffffffffffffffffffff160217905550806000806101000a81548173ffffffffffffffffffffffffffffffffffffffff021916908373ffffffffffffffffffffffffffffffffffffffff160217905550506200020b565b828054828255906000526020600020908101928215620001b2579160200282015b82811115620001b15782518260006101000a81548173ffffffffffffffffffffffffffffffffffffffff021916908373ffffffffffffffffffffffffffffffffffffffff1602179055509160200191906001019062000157565b5b509050620001c19190620001c5565b5090565b6200020891905b808211156200020457600081816101000a81549073ffffffffffffffffffffffffffffffffffffffff021916905550600101620001cc565b5090565b90565b612e15806200021b6000396000f3fe6080604052600436106101095760003560e01c80639ab24eb011610095578063cd905dff11610064578063cd905dff146105b6578063e63c9bfe146105e5578063e7bdde3b14610688578063f83f11c014610745578063fbfa0c2e146107f557610109565b80639ab24eb01461042c578063bdfd987714610491578063c10f2700146104e2578063c52c6d7f146105ac57610109565b80635719424b116100dc5780635719424b1461026d5780635c97fe35146102d65780635f1cc0e61461034257806364b4f751146103955780637a600242146103c057610109565b80631b9265b81461010e5780631bf642f114610125578063339d25901461019157806339cfc9951461019b575b600080fd5b34801561011a57600080fd5b50610123610846565b005b34801561013157600080fd5b5061013a6109f7565b6040518080602001828103825283818151815260200191508051906020019060200280838360005b8381101561017d578082015181840152602081019050610162565b505050509050019250505060405180910390f35b610199610a85565b005b3480156101a757600080fd5b5061026b600480360360408110156101be57600080fd5b81019080803590602001906401000000008111156101db57600080fd5b8201836020820111156101ed57600080fd5b8035906020019184600183028401116401000000008311171561020f57600080fd5b91908080601f016020809104026020016040519081016040528093929190818152602001838380828437600081840152601f19601f82011690508083019250505050505050919291929080359060200190929190505050610ca2565b005b34801561027957600080fd5b506102bc6004803603602081101561029057600080fd5b81019080803573ffffffffffffffffffffffffffffffffffffffff169060200190929190505050610eab565b604051808215151515815260200191505060405180910390f35b3480156102e257600080fd5b506102eb610f04565b6040518080602001828103825283818151815260200191508051906020019060200280838360005b8381101561032e578082015181840152602081019050610313565b505050509050019250505060405180910390f35b34801561034e57600080fd5b5061035761104c565b6040518082600360200280838360005b83811015610382578082015181840152602081019050610367565b5050505090500191505060405180910390f35b3480156103a157600080fd5b506103aa6111bf565b6040518082815260200191505060405180910390f35b3480156103cc57600080fd5b506103d56111cb565b6040518080602001828103825283818151815260200191508051906020019060200280838360005b838110156104185780820151818401526020810190506103fd565b505050509050019250505060405180910390f35b34801561043857600080fd5b5061047b6004803603602081101561044f57600080fd5b81019080803573ffffffffffffffffffffffffffffffffffffffff169060200190929190505050611313565b6040518082815260200191505060405180910390f35b34801561049d57600080fd5b506104e0600480360360208110156104b457600080fd5b81019080803573ffffffffffffffffffffffffffffffffffffffff16906020019092919050505061135f565b005b3480156104ee57600080fd5b506105aa600480360360a081101561050557600080fd5b81019080803560ff169060200190929190803573ffffffffffffffffffffffffffffffffffffffff1690602001909291908035906020019064010000000081111561054f57600080fd5b82018360208201111561056157600080fd5b8035906020019184600183028401116401000000008311171561058357600080fd5b909192939192939080359060200190929190803560ff1690602001909291905050506117bd565b005b6105b4611d8d565b005b3480156105c257600080fd5b506105cb611ee9565b604051808215151515815260200191505060405180910390f35b610686600480360360608110156105fb57600080fd5b810190808035906020019064010000000081111561061857600080fd5b82018360208201111561062a57600080fd5b8035906020019184600183028401116401000000008311171561064c57600080fd5b9091929391929390803573ffffffffffffffffffffffffffffffffffffffff16906020019092919080359060200190929190505050611f92565b005b34801561069457600080fd5b50610743600480360360808110156106ab57600080fd5b81019080803573ffffffffffffffffffffffffffffffffffffffff169060200190929190803590602001906401000000008111156106e857600080fd5b8201836020820111156106fa57600080fd5b8035906020019184600183028401116401000000008311171561071c57600080fd5b909192939192939080359060200190929190803560ff16906020019092919050505061217f565b005b34801561075157600080fd5b506107f36004803603606081101561076857600080fd5b81019080803573ffffffffffffffffffffffffffffffffffffffff169060200190929190803590602001906401000000008111156107a557600080fd5b8201836020820111156107b757600080fd5b803590602001918460018302840111640100000000831117156107d957600080fd5b909192939192939080359060200190929190505050612288565b005b34801561080157600080fd5b506108446004803603602081101561081857600080fd5b81019080803573ffffffffffffffffffffffffffffffffffffffff169060200190929190505050612479565b005b6000809054906101000a900473ffffffffffffffffffffffffffffffffffffffff1673ffffffffffffffffffffffffffffffffffffffff1663cd905dff6040518163ffffffff1660e01b815260040160206040518083038186803b1580156108ad57600080fd5b505afa1580156108c1573d6000803e3d6000fd5b505050506040513d60208110156108d757600080fd5b810190808051906020019092919050505061093d576040517f08c379a0000000000000000000000000000000000000000000000000000000008152600401808060200182810382526025815260200180612d986025913960400191505060405180910390fd5b6000809054906101000a900473ffffffffffffffffffffffffffffffffffffffff1673ffffffffffffffffffffffffffffffffffffffff16630c11dedd336040518263ffffffff1660e01b8152600401808273ffffffffffffffffffffffffffffffffffffffff1673ffffffffffffffffffffffffffffffffffffffff168152602001915050600060405180830381600087803b1580156109dd57600080fd5b505af11580156109f1573d6000803e3d6000fd5b50505050565b60606003805480602002602001604051908101604052809291908181526020018280548015610a7b57602002820191906000526020600020905b8160009054906101000a900473ffffffffffffffffffffffffffffffffffffffff1673ffffffffffffffffffffffffffffffffffffffff1681526020019060010190808311610a31575b5050505050905090565b6000809054906101000a900473ffffffffffffffffffffffffffffffffffffffff1673ffffffffffffffffffffffffffffffffffffffff1663cd905dff6040518163ffffffff1660e01b815260040160206040518083038186803b158015610aec57600080fd5b505afa158015610b00573d6000803e3d6000fd5b505050506040513d6020811015610b1657600080fd5b8101908080519060200190929190505050610b7c576040517f08c379a0000000000000000000000000000000000000000000000000000000008152600401808060200182810382526025815260200180612d986025913960400191505060405180910390fd5b670de0b6b3a7640000341015610bfa576040517f08c379a000000000000000000000000000000000000000000000000000000000815260040180806020018281038252601c8152602001807f526567697374726174696f6e206665652069732072657175697265640000000081525060200191505060405180910390fd5b610c02612c7c565b610c0b33612868565b9050604051806040016040528060011515815260200182815250600560003373ffffffffffffffffffffffffffffffffffffffff1673ffffffffffffffffffffffffffffffffffffffff16815260200190815260200160002060008201518160000160006101000a81548160ff021916908315150217905550602082015181600101906003610c9b929190612c9e565b5090505050565b6000809054906101000a900473ffffffffffffffffffffffffffffffffffffffff1673ffffffffffffffffffffffffffffffffffffffff166365c152f78383336040518463ffffffff1660e01b815260040180806020018481526020018373ffffffffffffffffffffffffffffffffffffffff1673ffffffffffffffffffffffffffffffffffffffff168152602001828103825285818151815260200191508051906020019080838360005b83811015610d69578082015181840152602081019050610d4e565b50505050905090810190601f168015610d965780820380516001836020036101000a031916815260200191505b50945050505050600060405180830381600087803b158015610db757600080fd5b505af1158015610dcb573d6000803e3d6000fd5b505050507f7e9c226ac5d85c5e088472aea4786ad32703535448a2c13a5963ff836b91551f82823360405180806020018481526020018373ffffffffffffffffffffffffffffffffffffffff1673ffffffffffffffffffffffffffffffffffffffff168152602001828103825285818151815260200191508051906020019080838360005b83811015610e6b578082015181840152602081019050610e50565b50505050905090810190601f168015610e985780820380516001836020036101000a031916815260200191505b5094505050505060405180910390a15050565b6000600260008373ffffffffffffffffffffffffffffffffffffffff1673ffffffffffffffffffffffffffffffffffffffff16815260200190815260200160002060020160009054906101000a900460ff169050919050565b6060806000809054906101000a900473ffffffffffffffffffffffffffffffffffffffff1673ffffffffffffffffffffffffffffffffffffffff16631cebb54d6040518163ffffffff1660e01b815260040160006040518083038186803b158015610f6e57600080fd5b505afa158015610f82573d6000803e3d6000fd5b505050506040513d6000823e3d601f19601f820116820180604052506020811015610fac57600080fd5b8101908080516040519392919084640100000000821115610fcc57600080fd5b83820191506020820185811115610fe257600080fd5b8251866020820283011164010000000082111715610fff57600080fd5b8083526020830192505050908051906020019060200280838360005b8381101561103657808201518184015260208101905061101b565b5050505090500160405250505090508091505090565b611054612c7c565b600560003373ffffffffffffffffffffffffffffffffffffffff1673ffffffffffffffffffffffffffffffffffffffff16815260200190815260200160002060000160009054906101000a900460ff16611116576040517f08c379a000000000000000000000000000000000000000000000000000000000815260040180806020018281038252601b8152602001807f4e6f74207265676973746572656420617320616e206f7261636c65000000000081525060200191505060405180910390fd5b600560003373ffffffffffffffffffffffffffffffffffffffff1673ffffffffffffffffffffffffffffffffffffffff1681526020019081526020016000206001016003806020026040519081016040528092919082600380156111b5576020028201916000905b82829054906101000a900460ff1660ff168152602001906001019060208260000104928301926001038202915080841161117e5790505b5050505050905090565b670de0b6b3a764000081565b6060806000809054906101000a900473ffffffffffffffffffffffffffffffffffffffff1673ffffffffffffffffffffffffffffffffffffffff16637a6002426040518163ffffffff1660e01b815260040160006040518083038186803b15801561123557600080fd5b505afa158015611249573d6000803e3d6000fd5b505050506040513d6000823e3d601f19601f82011682018060405250602081101561127357600080fd5b810190808051604051939291908464010000000082111561129357600080fd5b838201915060208201858111156112a957600080fd5b82518660208202830111640100000000821117156112c657600080fd5b8083526020830192505050908051906020019060200280838360005b838110156112fd5780820151818401526020810190506112e2565b5050505090500160405250505090508091505090565b6000600260008373ffffffffffffffffffffffffffffffffffffffff1673ffffffffffffffffffffffffffffffffffffffff168152602001908152602001600020600101549050919050565b60606000809054906101000a900473ffffffffffffffffffffffffffffffffffffffff1673ffffffffffffffffffffffffffffffffffffffff16637a6002426040518163ffffffff1660e01b815260040160006040518083038186803b1580156113c857600080fd5b505afa1580156113dc573d6000803e3d6000fd5b505050506040513d6000823e3d601f19601f82011682018060405250602081101561140657600080fd5b810190808051604051939291908464010000000082111561142657600080fd5b8382019150602082018581111561143c57600080fd5b825186602082028301116401000000008211171561145957600080fd5b8083526020830192505050908051906020019060200280838360005b83811015611490578082015181840152602081019050611475565b50505050905001604052505050905060058151101561159a576000809054906101000a900473ffffffffffffffffffffffffffffffffffffffff1673ffffffffffffffffffffffffffffffffffffffff1663c7ba501883336040518363ffffffff1660e01b8152600401808373ffffffffffffffffffffffffffffffffffffffff1673ffffffffffffffffffffffffffffffffffffffff1681526020018273ffffffffffffffffffffffffffffffffffffffff1673ffffffffffffffffffffffffffffffffffffffff16815260200192505050600060405180830381600087803b15801561157d57600080fd5b505af1158015611591573d6000803e3d6000fd5b505050506117b9565b33600260008473ffffffffffffffffffffffffffffffffffffffff1673ffffffffffffffffffffffffffffffffffffffff16815260200190815260200160002060000160006101000a81548173ffffffffffffffffffffffffffffffffffffffff021916908373ffffffffffffffffffffffffffffffffffffffff1602179055506000600260008473ffffffffffffffffffffffffffffffffffffffff1673ffffffffffffffffffffffffffffffffffffffff168152602001908152602001600020600101819055506001600260008473ffffffffffffffffffffffffffffffffffffffff1673ffffffffffffffffffffffffffffffffffffffff16815260200190815260200160002060020160006101000a81548160ff0219169083151502179055506003829080600181540180825580915050600190039060005260206000200160009091909190916101000a81548173ffffffffffffffffffffffffffffffffffffffff021916908373ffffffffffffffffffffffffffffffffffffffff1602179055507fc243c0fd676d7d4d8475225a652beb9dbda28e69857257332eb01b7e01156f958233604051808373ffffffffffffffffffffffffffffffffffffffff1673ffffffffffffffffffffffffffffffffffffffff1681526020018273ffffffffffffffffffffffffffffffffffffffff1673ffffffffffffffffffffffffffffffffffffffff1681526020019250505060405180910390a15b5050565b8560ff16600560003373ffffffffffffffffffffffffffffffffffffffff1673ffffffffffffffffffffffffffffffffffffffff16815260200190815260200160002060010160006003811061180f57fe5b602091828204019190069054906101000a900460ff1660ff16148061189c57508560ff16600560003373ffffffffffffffffffffffffffffffffffffffff1673ffffffffffffffffffffffffffffffffffffffff16815260200190815260200160002060010160016003811061188157fe5b602091828204019190069054906101000a900460ff1660ff16145b8061190f57508560ff16600560003373ffffffffffffffffffffffffffffffffffffffff1673ffffffffffffffffffffffffffffffffffffffff1681526020019081526020016000206001016002600381106118f457fe5b602091828204019190069054906101000a900460ff1660ff16145b611964576040517f08c379a0000000000000000000000000000000000000000000000000000000008152600401808060200182810382526023815260200180612dbd6023913960400191505060405180910390fd5b60008686868686604051602001808660ff1660ff1660f81b81526001018573ffffffffffffffffffffffffffffffffffffffff1673ffffffffffffffffffffffffffffffffffffffff1660601b815260140184848082843780830192505050828152602001955050505050506040516020818303038152906040528051906020012090506006600082815260200190815260200160002060000160149054906101000a900460ff16611a61576040517f08c379a000000000000000000000000000000000000000000000000000000000815260040180806020018281038252602f815260200180612d69602f913960400191505060405180910390fd5b6006600082815260200190815260200160002060010160008360ff1660ff168152602001908152602001600020339080600181540180825580915050600190039060005260206000200160009091909190916101000a81548173ffffffffffffffffffffffffffffffffffffffff021916908373ffffffffffffffffffffffffffffffffffffffff1602179055507f43c853095c2752648493c88b4baac4d580d2594ffb00c6f1d4242d844514f7838686868686604051808673ffffffffffffffffffffffffffffffffffffffff1673ffffffffffffffffffffffffffffffffffffffff168152602001806020018481526020018360ff1660ff1681526020018281038252868682818152602001925080828437600081840152601f19601f820116905080830192505050965050505050505060405180910390a160036006600083815260200190815260200160002060010160008460ff1660ff1681526020019081526020016000208054905010611d84577fe23f5229de535c091e3b7bec2665f5d698192d3b31393066e8987b7a05076b6c8686868686604051808673ffffffffffffffffffffffffffffffffffffffff1673ffffffffffffffffffffffffffffffffffffffff168152602001806020018481526020018360ff1660ff1681526020018281038252868682818152602001925080828437600081840152601f19601f820116905080830192505050965050505050505060405180910390a16000809054906101000a900473ffffffffffffffffffffffffffffffffffffffff1673ffffffffffffffffffffffffffffffffffffffff1663e7bdde3b87878787876040518663ffffffff1660e01b8152600401808673ffffffffffffffffffffffffffffffffffffffff1673ffffffffffffffffffffffffffffffffffffffff168152602001806020018481526020018360ff1660ff1681526020018281038252868682818152602001925080828437600081840152601f19601f8201169050808301925050509650505050505050600060405180830381600087803b158015611d6b57600080fd5b505af1158015611d7f573d6000803e3d6000fd5b505050505b50505050505050565b678ac7230489e800003414611e0a576040517f08c379a000000000000000000000000000000000000000000000000000000000815260040180806020018281038252601f8152602001807f496e636f72726563742066756e64732076616c7565207375626d69747465640081525060200191505060405180910390fd5b6000809054906101000a900473ffffffffffffffffffffffffffffffffffffffff1673ffffffffffffffffffffffffffffffffffffffff16636fbb879834336040518363ffffffff1660e01b8152600401808273ffffffffffffffffffffffffffffffffffffffff1673ffffffffffffffffffffffffffffffffffffffff1681526020019150506020604051808303818588803b158015611eaa57600080fd5b505af1158015611ebe573d6000803e3d6000fd5b50505050506040513d6020811015611ed557600080fd5b810190808051906020019092919050505050565b60008060009054906101000a900473ffffffffffffffffffffffffffffffffffffffff1673ffffffffffffffffffffffffffffffffffffffff1663cd905dff6040518163ffffffff1660e01b815260040160206040518083038186803b158015611f5257600080fd5b505afa158015611f66573d6000803e3d6000fd5b505050506040513d6020811015611f7c57600080fd5b8101908080519060200190929190505050905090565b600034118015611fa95750670de0b6b3a764000034145b61201b576040517f08c379a000000000000000000000000000000000000000000000000000000000815260040180806020018281038252601f8152602001807f496e636f72726563742066756e64732076616c7565207375626d69747465640081525060200191505060405180910390fd5b6000809054906101000a900473ffffffffffffffffffffffffffffffffffffffff1673ffffffffffffffffffffffffffffffffffffffff166396fb29153433878787873460966040518963ffffffff1660e01b8152600401808873ffffffffffffffffffffffffffffffffffffffff1673ffffffffffffffffffffffffffffffffffffffff168152602001806020018673ffffffffffffffffffffffffffffffffffffffff1673ffffffffffffffffffffffffffffffffffffffff1681526020018581526020018481526020018381526020018281038252888882818152602001925080828437600081840152601f19601f820116905080830192505050985050505050505050506020604051808303818588803b15801561213c57600080fd5b505af1158015612150573d6000803e3d6000fd5b50505050506040513d602081101561216757600080fd5b81019080805190602001909291905050505050505050565b6000809054906101000a900473ffffffffffffffffffffffffffffffffffffffff1673ffffffffffffffffffffffffffffffffffffffff1663e7bdde3b86868686866040518663ffffffff1660e01b8152600401808673ffffffffffffffffffffffffffffffffffffffff1673ffffffffffffffffffffffffffffffffffffffff168152602001806020018481526020018360ff1660ff1681526020018281038252868682818152602001925080828437600081840152601f19601f8201169050808301925050509650505050505050600060405180830381600087803b15801561226957600080fd5b505af115801561227d573d6000803e3d6000fd5b505050505050505050565b6000612293336129f4565b905060008186868686604051602001808660ff1660ff1660f81b81526001018573ffffffffffffffffffffffffffffffffffffffff1673ffffffffffffffffffffffffffffffffffffffff1660601b8152601401848480828437808301925050508281526020019550505050505060405160208183030381529060405280519060200120905060405180604001604052803373ffffffffffffffffffffffffffffffffffffffff168152602001600115158152506006600083815260200190815260200160002060008201518160000160006101000a81548173ffffffffffffffffffffffffffffffffffffffff021916908373ffffffffffffffffffffffffffffffffffffffff16021790555060208201518160000160146101000a81548160ff0219169083151502179055509050507f3ed01f2c3fc24c6b329d931e35b03e390d23497d22b3f90e15b600343e93df118287878787604051808660ff1660ff1681526020018573ffffffffffffffffffffffffffffffffffffffff1673ffffffffffffffffffffffffffffffffffffffff168152602001806020018381526020018281038252858582818152602001925080828437600081840152601f19601f820116905080830192505050965050505050505060405180910390a1505050505050565b60606000809054906101000a900473ffffffffffffffffffffffffffffffffffffffff1673ffffffffffffffffffffffffffffffffffffffff16631cebb54d6040518163ffffffff1660e01b815260040160006040518083038186803b1580156124e257600080fd5b505afa1580156124f6573d6000803e3d6000fd5b505050506040513d6000823e3d601f19601f82011682018060405250602081101561252057600080fd5b810190808051604051939291908464010000000082111561254057600080fd5b8382019150602082018581111561255657600080fd5b825186602082028301116401000000008211171561257357600080fd5b8083526020830192505050908051906020019060200280838360005b838110156125aa57808201518184015260208101905061258f565b50505050905001604052505050905060008151905060006125d5600283612ae490919063ffffffff16565b90506000600260008673ffffffffffffffffffffffffffffffffffffffff1673ffffffffffffffffffffffffffffffffffffffff168152602001908152602001600020600101549050612632600182612b2e90919063ffffffff16565b905080600260008773ffffffffffffffffffffffffffffffffffffffff1673ffffffffffffffffffffffffffffffffffffffff168152602001908152602001600020600101819055508181106127ca576000809054906101000a900473ffffffffffffffffffffffffffffffffffffffff1673ffffffffffffffffffffffffffffffffffffffff1663c7ba501886336040518363ffffffff1660e01b8152600401808373ffffffffffffffffffffffffffffffffffffffff1673ffffffffffffffffffffffffffffffffffffffff1681526020018273ffffffffffffffffffffffffffffffffffffffff1673ffffffffffffffffffffffffffffffffffffffff16815260200192505050600060405180830381600087803b15801561275657600080fd5b505af115801561276a573d6000803e3d6000fd5b505050506000600260008773ffffffffffffffffffffffffffffffffffffffff1673ffffffffffffffffffffffffffffffffffffffff16815260200190815260200160002060020160006101000a81548160ff0219169083151502179055505b7f0fedfc31f1666875352b0f56bae76d940988f8ebcd7cb91dbf074384957198e78533604051808373ffffffffffffffffffffffffffffffffffffffff1673ffffffffffffffffffffffffffffffffffffffff1681526020018273ffffffffffffffffffffffffffffffffffffffff1673ffffffffffffffffffffffffffffffffffffffff1681526020019250505060405180910390a15050505050565b612870612c7c565b612878612c7c565b612881836129f4565b8160006003811061288e57fe5b602002019060ff16908160ff1681525050806000600381106128ac57fe5b6020020151816001600381106128be57fe5b602002019060ff16908160ff16815250505b806000600381106128dd57fe5b602002015160ff16816001600381106128f257fe5b602002015160ff16141561292c57612909836129f4565b8160016003811061291657fe5b602002019060ff16908160ff16815250506128d0565b8060016003811061293957fe5b60200201518160026003811061294b57fe5b602002019060ff16908160ff16815250505b8060006003811061296a57fe5b602002015160ff168160026003811061297f57fe5b602002015160ff1614806129ba57508060016003811061299b57fe5b602002015160ff16816002600381106129b057fe5b602002015160ff16145b156129eb576129c8836129f4565b816002600381106129d557fe5b602002019060ff16908160ff168152505061295d565b80915050919050565b600080600a905060008160ff166004600081819054906101000a900460ff168092919060010191906101000a81548160ff021916908360ff16021790555060ff1643034085604051602001808381526020018273ffffffffffffffffffffffffffffffffffffffff1673ffffffffffffffffffffffffffffffffffffffff1660601b8152601401925050506040516020818303038152906040528051906020012060001c81612a9f57fe5b06905060fa600460009054906101000a900460ff1660ff161115612ada576000600460006101000a81548160ff021916908360ff1602179055505b8092505050919050565b6000612b2683836040518060400160405280601a81526020017f536166654d6174683a206469766973696f6e206279207a65726f000000000000815250612bb6565b905092915050565b600080828401905083811015612bac576040517f08c379a000000000000000000000000000000000000000000000000000000000815260040180806020018281038252601b8152602001807f536166654d6174683a206164646974696f6e206f766572666c6f77000000000081525060200191505060405180910390fd5b8091505092915050565b60008083118290612c62576040517f08c379a00000000000000000000000000000000000000000000000000000000081526004018080602001828103825283818151815260200191508051906020019080838360005b83811015612c27578082015181840152602081019050612c0c565b50505050905090810190601f168015612c545780820380516001836020036101000a031916815260200191505b509250505060405180910390fd5b506000838581612c6e57fe5b049050809150509392505050565b6040518060600160405280600390602082028038833980820191505090505090565b826003601f01602090048101928215612d275791602002820160005b83821115612cf857835183826101000a81548160ff021916908360ff1602179055509260200192600101602081600001049283019260010302612cba565b8015612d255782816101000a81549060ff0219169055600101602081600001049283019260010302612cf8565b505b509050612d349190612d38565b5090565b612d6591905b80821115612d6157600081816101000a81549060ff021916905550600101612d3e565b5090565b9056fe466c69676874206f722074696d657374616d7020646f206e6f74206d61746368206f7261636c652072657175657374436f6e74726163742069732063757272656e746c79206e6f74206f7065726174696f6e616c496e64657820646f6573206e6f74206d61746368206f7261636c652072657175657374a264697066735822122020fe15330ab520b687306e270085613ea843246da9d077ea260af7e55e5d48bf64736f6c63430006020033",
  "source": "pragma solidity ^0.6;\n\nimport \"../node_modules/openzeppelin-solidity/contracts/math/SafeMath.sol\";\n\ncontract FlightSuretyApp {\n    using SafeMath for uint256;\n\n    /********************************************************************************************/\n    /*                                       DATA VARIABLES                                     */\n    /********************************************************************************************/\n\n    // MSJ: State variable to interface with FlightSuretyData contract\n    FlightSuretyData flightSuretyData;\n    \n    // MSJ: Account used to deploy contract\n    address private contractOwner;\n    \n     // MSJ: Airline registration fee\n    uint256 constant AIRLINE_REG_FEE = 10 ether;\n    \n    // MSJ: Flight insurance fee\n    uint256 constant FLIGHT_INSURANCE_FEE = 1 ether;\n    \n    // MSJ: Insurance multiplier\n    uint256 constant INSURANCE_MULTIPLIER = 150;\n\n    // MSJ: Airlines Registration Queue\n    struct AirlineRegistrationQueue {\n        address registerer;\n        uint256 votes;\n        bool isQueued;\n    }\n\n    // MSJ: Mapping the address of the airline's address with registration status\n    mapping(address => AirlineRegistrationQueue) private registrationQueue;\n    \n    // MSJ: Array to keep track of airline registration queue\n    address[] airlineRegQueue = new address[](0);\n    \n    /********************************************************************************************/\n    /*                                       EVENT DEFINITIONS                                  */\n    /********************************************************************************************/\n\n    // MSJ: Events\n    event AirlineRegistrationQueued(address queued, address registerer);\n    event VotedForAirline(address voted, address voter);\n    event FlightRegistered(string flight, uint256 timestamp, address airline);\n\n\n    /********************************************************************************************/\n    /*                                       CONSTRUCTOR                                        */\n    /********************************************************************************************/\n\n    // MSJ: Constructor\n    constructor(address payable dataContract) public\n    {\n        contractOwner = msg.sender;\n        flightSuretyData = FlightSuretyData(dataContract);\n    }\n    \n    /********************************************************************************************/\n    /*                                       FUNCTION MODIFIERS                                 */\n    /********************************************************************************************/\n\n    // MSJ: Modifier to verify address is registered\n    modifier requireIsOperational() \n    {\n        // Modify to call data contract's status\n        require(flightSuretyData.isOperational(), \"Contract is currently not operational\");  \n        _;  // All modifiers require an \"_\" which indicates where the function body will be added\n    }\n\n    // MSJ: Modifier to verify contract owner\n    modifier requireContractOwner() {\n        require(msg.sender == contractOwner, \"Caller is not contract owner\");\n        _;\n    }\n\n    // MSJ: Modifier to verify address is registered\n    modifier requireIsAirlineRegistered(address airline) {\n        require(flightSuretyData.isAirlineRegistered(airline) == true, 'Caller is not the authorized app contract');\n        _;\n    }\n\n    // MSJ: Modifier to verify address is Funded\n    modifier requireIsAirlineFunded(address airline) {\n        require(flightSuretyData.isAirlineFunded(airline) == true, 'Caller is not the authorized app contract');\n        _;\n    }\n    \n    /********************************************************************************************/\n    /*                                       UTILITY FUNCTIONS                                  */\n    /********************************************************************************************/\n\n    // MSJ: To check if contract isOperational()\n    function isOperational() external view returns(bool) {\n        return flightSuretyData.isOperational();\n    }\n\n    // MSJ: Get list of registered airlines\n    function getAirlinesRegistration() public view returns(address[] memory) \n    {\n        address[] memory airlinesRegistration = flightSuretyData.getAirlinesRegistration();\n\n        return airlinesRegistration;\n    }\n    \n    // MSJ: Get list of funded airlines\n    function getAirlinesFunded() public view returns(address[] memory) \n    {\n        address[] memory airlinesFunded = flightSuretyData.getAirlinesRegisteredFunded();\n\n        return airlinesFunded;\n    }\n    \n    // MSJ: Function to get airline registration queue\n    function getQueued() public view returns(address[] memory) \n    {\n        return airlineRegQueue;\n    }\n\n    // MSJ: Function to verify address is queue\n    function isAirlineQueued(address airline) external view returns(bool) \n    {     \n        return registrationQueue[airline].isQueued;\n    }\n\n    // MSJ: Get votes\n    function getVotes(address airline) external view returns(uint256) \n    {     \n        return registrationQueue[airline].votes;\n    }\n    \n    /********************************************************************************************/\n    /*                                     SMART CONTRACT FUNCTIONS                             */\n    /********************************************************************************************/\n\n    // MSJ: Register Airline\n    function registerAirline(address applicant) public\n    {\n        address[] memory airlinesRegisteredFunded = flightSuretyData.getAirlinesRegistration();\n\n        // MSJ: Register airline if there are less than 5 registered airlines altogether\n        if(airlinesRegisteredFunded.length < 5) \n        {\n            flightSuretyData.registerAirline(applicant, msg.sender);\n        }\n        // MSJ: Add airline registration to queue, to run through voting process\n        else \n        {\n            // add check that airline is not yet in queue\n            registrationQueue[applicant].registerer = msg.sender;\n            registrationQueue[applicant].votes = 0;\n            registrationQueue[applicant].isQueued = true;\n            \n            airlineRegQueue.push(applicant); \n\n            emit AirlineRegistrationQueued(applicant, msg.sender);\n        }\n    }\n    \n    // MSJ: Function to allow other registered airlines to vote\n    function voteForAirline(address applicant) public\n    {\n        // MSJ: Get total count of participating airlines\n        address[] memory participatingAirlines = flightSuretyData.getAirlinesRegisteredFunded();\n        uint256 currentRegistration = participatingAirlines.length;\n        \n        // MSJ: Get 50% if participating airlines\n        uint256 requiredConsensus = currentRegistration.div(2);\n\n        // MSJ: Get applicant's current votes\n        uint256 currentApplicantVotes = registrationQueue[applicant].votes;\n        \n        // MSJ: Increment votes\n        currentApplicantVotes = currentApplicantVotes.add(1);\n        registrationQueue[applicant].votes = currentApplicantVotes;\n\n        // MSJ: Check if there are enough votes\n        if(currentApplicantVotes >= requiredConsensus)\n        {\n            // MSJ: If required vote consensus is met, proceed with registration (but not yet funded)\n            flightSuretyData.registerAirline(applicant, msg.sender);\n            registrationQueue[applicant].isQueued = false;\n        }\n\n        emit VotedForAirline(applicant, msg.sender);\n    }\n\n    \n    // MSJ: For airline to submit registration funding so they can start participating\n    function submitFunding() payable external \n    {\n        require(msg.value == AIRLINE_REG_FEE, \"Incorrect funds value submitted\");\n       \n        //require(address(this).balance > AIRLINE_REG_FEE, \"Insufficient funds\");\n        \n        // MSJ: Submit funding\n        flightSuretyData.fundAirline{value: msg.value}(msg.sender);\n    }\n    \n    // MSJ: For Airline to register flight\n    function registerFlight(string memory flight, uint256 timestamp) public\n    {\n        // MSJ: Register flight (Flight No. and Timestamp)\n        flightSuretyData.registerFlight(flight, timestamp, msg.sender);\n\n        emit FlightRegistered(flight, timestamp, msg.sender);\n\n    }\n    \n    // MSJ: For passengers to buy insurance\n    function buyInsurance(string calldata flight, address airline, uint256 timestamp) payable external \n    {\n        require(msg.value > 0 && msg.value == FLIGHT_INSURANCE_FEE, \"Incorrect funds value submitted\");\n        \n        // MSJ: Submit funding\n        flightSuretyData.buy{value: msg.value}(msg.sender, flight, airline, timestamp, msg.value, INSURANCE_MULTIPLIER);    \n    }\n    \n    function processFlightStatus(address airline, string calldata flight, uint256 timestamp, uint8 statusCode) external {\n        flightSuretyData.processFlightStatus(airline, flight, timestamp, statusCode);\n    }\n\n    // Generate a request for oracles to fetch flight information\n    function fetchFlightStatus(address airline, string calldata flight, uint256 timestamp) external \n    {\n        uint8 index = getRandomIndex(msg.sender);\n\n        // Generate a unique key for storing the request\n        bytes32 key = keccak256(abi.encodePacked(index, airline, flight, timestamp));\n        oracleResponses[key] = ResponseInfo({requester: msg.sender, isOpen: true});\n\n        emit OracleRequest(index, airline, flight, timestamp);\n    }\n    \n    // MSJ: For transfer eligible payout funds to insured passengers\n    function pay() public requireIsOperational \n    {\n        flightSuretyData.pay(msg.sender);\n    }\n    \n    /********************************************************************************************/\n    /*                                     ORACLE MANAGEMENT                                    */\n    /********************************************************************************************/\n    \n    // Incremented to add pseudo-randomness at various points\n    uint8 private nonce = 0;    \n\n    // Fee to be paid when registering oracle\n    uint256 public constant REGISTRATION_FEE = 1 ether;\n\n    // Number of oracles that must respond for valid status\n    uint256 private constant MIN_RESPONSES = 3;\n\n    struct Oracle \n    {\n        bool isRegistered;\n        uint8[3] indexes;        \n    }\n\n    // Track all registered oracles\n    mapping(address => Oracle) private oracles;\n\n    // Model for responses from oracles\n    struct ResponseInfo \n    {\n        address requester;                          // Account that requested status\n        bool isOpen;                                // If open, oracle responses are accepted\n        mapping(uint8 => address[]) responses;      // Mapping key is the status code reported\n                                                    // This lets us group responses and identify\n                                                    // the response that majority of the oracles\n    }\n\n    // Track all oracle responses\n    // Key = hash(index, flight, timestamp)\n    mapping(bytes32 => ResponseInfo) private oracleResponses;\n\n    // Event fired each time an oracle submits a response\n    event FlightStatusInfo(address airline, string flight, uint256 timestamp, uint8 status);\n\n    event OracleReport(address airline, string flight, uint256 timestamp, uint8 status);\n\n    // Event fired when flight status request is submitted\n    // Oracles track this and if they have a matching index\n    // they fetch data and submit a response\n    event OracleRequest(uint8 index, address airline, string flight, uint256 timestamp);\n\n    // Register an oracle with the contract\n    function registerOracle() external payable requireIsOperational \n    {\n        // Require registration fee\n        require(msg.value >= REGISTRATION_FEE, \"Registration fee is required\");\n\n        uint8[3] memory indexes = generateIndexes(msg.sender);\n\n        oracles[msg.sender] = Oracle({isRegistered: true, indexes: indexes});\n    }\n    \n    function getMyIndexes() view external returns(uint8[3] memory)\n    {\n        require(oracles[msg.sender].isRegistered, \"Not registered as an oracle\");\n\n        return oracles[msg.sender].indexes;\n    }\n    \n    // Called by oracle when a response is available to an outstanding request\n    // For the response to be accepted, there must be a pending request that is open\n    // and matches one of the three Indexes randomly assigned to the oracle at the\n    // time of registration (i.e. uninvited oracles are not welcome)\n    function submitOracleResponse(uint8 index, address airline, string calldata flight, uint256 timestamp, uint8 statusCode) external\n    {\n        require((oracles[msg.sender].indexes[0] == index) || (oracles[msg.sender].indexes[1] == index) || (oracles[msg.sender].indexes[2] == index), \"Index does not match oracle request\");\n\n\n        bytes32 key = keccak256(abi.encodePacked(index, airline, flight, timestamp)); \n        require(oracleResponses[key].isOpen, \"Flight or timestamp do not match oracle request\");\n\n        oracleResponses[key].responses[statusCode].push(msg.sender);\n\n        // Information isn't considered verified until at least MIN_RESPONSES\n        // oracles respond with the *** same *** information\n        emit OracleReport(airline, flight, timestamp, statusCode);\n        if (oracleResponses[key].responses[statusCode].length >= MIN_RESPONSES) {\n\n            emit FlightStatusInfo(airline, flight, timestamp, statusCode);\n\n            // Handle flight status as appropriate\n            flightSuretyData.processFlightStatus(airline, flight, timestamp, statusCode);\n        }\n    }\n    \n    function getFlightKey(address airline, string memory flight, uint256 timestamp) pure internal returns(bytes32) \n    {\n        return keccak256(abi.encodePacked(airline, flight, timestamp));\n    }\n\n    \n    // Returns array of three non-duplicating integers from 0-9\n    function generateIndexes(address account) internal returns(uint8[3] memory) \n    {\n        uint8[3] memory indexes;\n        indexes[0] = getRandomIndex(account);\n    \n        indexes[1] = indexes[0];\n        while(indexes[1] == indexes[0]) \n        {\n            indexes[1] = getRandomIndex(account);\n        }\n\n        indexes[2] = indexes[1];\n        while((indexes[2] == indexes[0]) || (indexes[2] == indexes[1])) \n        {\n            indexes[2] = getRandomIndex(account);\n        }\n\n        return indexes;\n    }\n    \n    // Returns array of three non-duplicating integers from 0-9\n    function getRandomIndex(address account) internal returns (uint8) \n    {\n        uint8 maxValue = 10;\n\n        // Pseudo random number...the incrementing nonce adds variation\n        uint8 random = uint8(uint256(keccak256(abi.encodePacked(blockhash(block.number - nonce++), account))) % maxValue);\n\n        if (nonce > 250) \n        {\n            nonce = 0;  // Can only fetch blockhashes for last 256 blocks so we adapt\n        }\n\n        return random;\n    }\n\n}\n\n// MSJ: FlightSurety data contract interface\nabstract contract FlightSuretyData {\n    function isOperational() public virtual view returns(bool);\n    function registerAirline(address applicant, address registerer) external virtual; //returns(bool);\n    function getAirlinesRegistration() external virtual view returns(address[] memory);\n    function getAirlinesFunded() external virtual view returns(address[] memory);\n    function getAirlinesRegisteredFunded() external virtual view returns(address[] memory);\n    function fundAirline(address airline) external virtual payable returns(bool);\n    function isAirlineRegistered(address airline) external virtual view returns(bool);\n    function isAirlineFunded(address airline) external virtual view returns(bool);\n    function registerFlight(string calldata flight, uint256 timestamp, address registerer) external virtual;\n    function getRegisteredFlights() external virtual view returns(bytes32[] memory);\n    function buy(address passenger, string calldata flight, address airline, uint256 timestamp, uint256 amount, uint256 multiplier) external virtual payable returns(bool);\n    function pay(address passenger) external virtual;\n    function processFlightStatus(address airline, string calldata flight, uint256 timestamp, uint8 statusCode) external virtual;\n\n}",
  "sourcePath": "C:\\Users\\marco\\Documents\\bc_proj\\ud-bcnd-project-4\\contracts\\FlightSuretyApp.sol",
  "compiler": {
    "name": "solc",
    "version": "0.6.2+commit.bacdbe57.Emscripten.clang"
  },
  "schemaVersion": "3.0.23",
  "updatedAt": "2020-07-04T08:09:04.247Z",
  "networkType": "ethereum",
  "devdoc": {
    "methods": {}
  },
  "userdoc": {
    "methods": {
      "constructor": "*****************************************************************************************",
      "isOperational()": {
        "notice": "*****************************************************************************************"
      },
      "registerAirline(address)": {
        "notice": "*****************************************************************************************"
      }
    }
  }
}